{
  "contractName": "BoxV2",
  "abi": [
    {
      "anonymous": false,
      "inputs": [
        {
          "indexed": true,
          "internalType": "address",
          "name": "owner",
          "type": "address"
        },
        {
          "indexed": true,
          "internalType": "address",
          "name": "approved",
          "type": "address"
        },
        {
          "indexed": true,
          "internalType": "uint256",
          "name": "tokenId",
          "type": "uint256"
        }
      ],
      "name": "Approval",
      "type": "event"
    },
    {
      "anonymous": false,
      "inputs": [
        {
          "indexed": true,
          "internalType": "address",
          "name": "owner",
          "type": "address"
        },
        {
          "indexed": true,
          "internalType": "address",
          "name": "operator",
          "type": "address"
        },
        {
          "indexed": false,
          "internalType": "bool",
          "name": "approved",
          "type": "bool"
        }
      ],
      "name": "ApprovalForAll",
      "type": "event"
    },
    {
      "anonymous": false,
      "inputs": [
        {
          "indexed": false,
          "internalType": "uint8",
          "name": "version",
          "type": "uint8"
        }
      ],
      "name": "Initialized",
      "type": "event"
    },
    {
      "anonymous": false,
      "inputs": [
        {
          "indexed": true,
          "internalType": "address",
          "name": "from",
          "type": "address"
        },
        {
          "indexed": true,
          "internalType": "address",
          "name": "to",
          "type": "address"
        },
        {
          "indexed": true,
          "internalType": "uint256",
          "name": "tokenId",
          "type": "uint256"
        }
      ],
      "name": "Transfer",
      "type": "event"
    },
    {
      "inputs": [],
      "name": "__Stake_init",
      "outputs": [],
      "stateMutability": "nonpayable",
      "type": "function"
    },
    {
      "inputs": [],
      "name": "__Stake_init_unchained",
      "outputs": [],
      "stateMutability": "nonpayable",
      "type": "function"
    },
    {
      "inputs": [],
      "name": "__StakingNFT_init",
      "outputs": [],
      "stateMutability": "nonpayable",
      "type": "function"
    },
    {
      "inputs": [],
      "name": "__StakingNFT_init_unchained",
      "outputs": [],
      "stateMutability": "nonpayable",
      "type": "function"
    },
    {
      "inputs": [
        {
          "internalType": "address",
          "name": "to",
          "type": "address"
        },
        {
          "internalType": "uint256",
          "name": "tokenId",
          "type": "uint256"
        }
      ],
      "name": "approve",
      "outputs": [],
      "stateMutability": "nonpayable",
      "type": "function"
    },
    {
      "inputs": [
        {
          "internalType": "address",
          "name": "owner",
          "type": "address"
        }
      ],
      "name": "balanceOf",
      "outputs": [
        {
          "internalType": "uint256",
          "name": "",
          "type": "uint256"
        }
      ],
      "stateMutability": "view",
      "type": "function"
    },
    {
      "inputs": [
        {
          "internalType": "uint256",
          "name": "tokenId",
          "type": "uint256"
        }
      ],
      "name": "getApproved",
      "outputs": [
        {
          "internalType": "address",
          "name": "",
          "type": "address"
        }
      ],
      "stateMutability": "view",
      "type": "function"
    },
    {
      "inputs": [
        {
          "internalType": "address",
          "name": "owner",
          "type": "address"
        },
        {
          "internalType": "address",
          "name": "operator",
          "type": "address"
        }
      ],
      "name": "isApprovedForAll",
      "outputs": [
        {
          "internalType": "bool",
          "name": "",
          "type": "bool"
        }
      ],
      "stateMutability": "view",
      "type": "function"
    },
    {
      "inputs": [],
      "name": "name",
      "outputs": [
        {
          "internalType": "string",
          "name": "",
          "type": "string"
        }
      ],
      "stateMutability": "view",
      "type": "function"
    },
    {
      "inputs": [],
      "name": "nextId",
      "outputs": [
        {
          "internalType": "uint256",
          "name": "",
          "type": "uint256"
        }
      ],
      "stateMutability": "view",
      "type": "function"
    },
    {
      "inputs": [
        {
          "internalType": "uint256",
          "name": "tokenId",
          "type": "uint256"
        }
      ],
      "name": "ownerOf",
      "outputs": [
        {
          "internalType": "address",
          "name": "",
          "type": "address"
        }
      ],
      "stateMutability": "view",
      "type": "function"
    },
    {
      "inputs": [
        {
          "internalType": "address",
          "name": "from",
          "type": "address"
        },
        {
          "internalType": "address",
          "name": "to",
          "type": "address"
        },
        {
          "internalType": "uint256",
          "name": "tokenId",
          "type": "uint256"
        }
      ],
      "name": "safeTransferFrom",
      "outputs": [],
      "stateMutability": "nonpayable",
      "type": "function"
    },
    {
      "inputs": [
        {
          "internalType": "address",
          "name": "from",
          "type": "address"
        },
        {
          "internalType": "address",
          "name": "to",
          "type": "address"
        },
        {
          "internalType": "uint256",
          "name": "tokenId",
          "type": "uint256"
        },
        {
          "internalType": "bytes",
          "name": "_data",
          "type": "bytes"
        }
      ],
      "name": "safeTransferFrom",
      "outputs": [],
      "stateMutability": "nonpayable",
      "type": "function"
    },
    {
      "inputs": [
        {
          "internalType": "address",
          "name": "operator",
          "type": "address"
        },
        {
          "internalType": "bool",
          "name": "approved",
          "type": "bool"
        }
      ],
      "name": "setApprovalForAll",
      "outputs": [],
      "stateMutability": "nonpayable",
      "type": "function"
    },
    {
      "inputs": [
        {
          "internalType": "bytes4",
          "name": "interfaceId",
          "type": "bytes4"
        }
      ],
      "name": "supportsInterface",
      "outputs": [
        {
          "internalType": "bool",
          "name": "",
          "type": "bool"
        }
      ],
      "stateMutability": "view",
      "type": "function"
    },
    {
      "inputs": [],
      "name": "symbol",
      "outputs": [
        {
          "internalType": "string",
          "name": "",
          "type": "string"
        }
      ],
      "stateMutability": "view",
      "type": "function"
    },
    {
      "inputs": [
        {
          "internalType": "uint256",
          "name": "tokenId",
          "type": "uint256"
        }
      ],
      "name": "tokenURI",
      "outputs": [
        {
          "internalType": "string",
          "name": "",
          "type": "string"
        }
      ],
      "stateMutability": "view",
      "type": "function"
    },
    {
      "inputs": [
        {
          "internalType": "address",
          "name": "from",
          "type": "address"
        },
        {
          "internalType": "address",
          "name": "to",
          "type": "address"
        },
        {
          "internalType": "uint256",
          "name": "tokenId",
          "type": "uint256"
        }
      ],
      "name": "transferFrom",
      "outputs": [],
      "stateMutability": "nonpayable",
      "type": "function"
    },
    {
      "inputs": [],
      "name": "initializeBoxV2",
      "outputs": [],
      "stateMutability": "nonpayable",
      "type": "function"
    }
  ],
  "bytecode": "0x608060405234801561001057600080fd5b506115fa806100206000396000f3fe608060405234801561001057600080fd5b50600436106101215760003560e01c80636352211e116100ad578063b88d4fde11610071578063b88d4fde14610239578063bd615c9114610231578063c87b56dd1461024c578063e985e9c51461025f578063f43b43311461029b57600080fd5b80636352211e146101f057806370a082311461020357806395d89b4114610216578063a22cb4651461021e578063a7605c9e1461023157600080fd5b806323b872dd116100f457806323b872dd146101a35780632cd25258146101b657806342842e0e146101be57806361b8ce8c146101d1578063627f7d0f146101e857600080fd5b806301ffc9a71461012657806306fdde031461014e578063081812fc14610163578063095ea7b31461018e575b600080fd5b6101396101343660046112a7565b6102a3565b60405190151581526020015b60405180910390f35b6101566102f5565b604051610145919061138f565b6101766101713660046112df565b610387565b6040516001600160a01b039091168152602001610145565b6101a161019c36600461127e565b610421565b005b6101a16101b1366004611134565b610537565b6101a1610568565b6101a16101cc366004611134565b610614565b6101da60975481565b604051908152602001610145565b6101a161062f565b6101766101fe3660046112df565b61065b565b6101da6102113660046110e8565b6106d2565b610156610759565b6101a161022c366004611244565b610768565b6101a1610777565b6101a161024736600461116f565b6107a3565b61015661025a3660046112df565b6107db565b61013961026d366004611102565b6001600160a01b039182166000908152606a6020908152604080832093909416825291909152205460ff1690565b6101a16108c3565b60006001600160e01b031982166380ac58cd60e01b14806102d457506001600160e01b03198216635b5e139f60e01b145b806102ef57506301ffc9a760e01b6001600160e01b03198316145b92915050565b60606065805461030490611502565b80601f016020809104026020016040519081016040528092919081815260200182805461033090611502565b801561037d5780601f106103525761010080835404028352916020019161037d565b820191906000526020600020905b81548152906001019060200180831161036057829003601f168201915b5050505050905090565b6000818152606760205260408120546001600160a01b03166104055760405162461bcd60e51b815260206004820152602c60248201527f4552433732313a20617070726f76656420717565727920666f72206e6f6e657860448201526b34b9ba32b73a103a37b5b2b760a11b60648201526084015b60405180910390fd5b506000908152606960205260409020546001600160a01b031690565b600061042c8261065b565b9050806001600160a01b0316836001600160a01b0316141561049a5760405162461bcd60e51b815260206004820152602160248201527f4552433732313a20617070726f76616c20746f2063757272656e74206f776e656044820152603960f91b60648201526084016103fc565b336001600160a01b03821614806104b657506104b6813361026d565b6105285760405162461bcd60e51b815260206004820152603860248201527f4552433732313a20617070726f76652063616c6c6572206973206e6f74206f7760448201527f6e6572206e6f7220617070726f76656420666f7220616c6c000000000000000060648201526084016103fc565b61053283836108ef565b505050565b610541338261095d565b61055d5760405162461bcd60e51b81526004016103fc90611442565b610532838383610a54565b60006105746001610bf0565b9050801561058c576000805461ff0019166101001790555b6105cb60405180604001604052806003815260200162084def60eb1b81525060405180604001604052806002815260200161084b60f31b815250610c7d565b8015610611576000805461ff0019169055604051600181527f7f26b83ff96e1f2b6a682f133852f6798a09c465da95921460cefb38474024989060200160405180910390a15b50565b610532838383604051806020016040528060008152506107a3565b600061063b6001610bf0565b90508015610653576000805461ff0019166101001790555b6105cb610777565b6000818152606760205260408120546001600160a01b0316806102ef5760405162461bcd60e51b815260206004820152602960248201527f4552433732313a206f776e657220717565727920666f72206e6f6e657869737460448201526832b73a103a37b5b2b760b91b60648201526084016103fc565b60006001600160a01b03821661073d5760405162461bcd60e51b815260206004820152602a60248201527f4552433732313a2062616c616e636520717565727920666f7220746865207a65604482015269726f206164647265737360b01b60648201526084016103fc565b506001600160a01b031660009081526068602052604090205490565b60606066805461030490611502565b610773338383610d0f565b5050565b60006107836001610bf0565b9050801561079b576000805461ff0019166101001790555b6105cb610568565b6107ad338361095d565b6107c95760405162461bcd60e51b81526004016103fc90611442565b6107d584848484610dde565b50505050565b6000818152606760205260409020546060906001600160a01b031661085a5760405162461bcd60e51b815260206004820152602f60248201527f4552433732314d657461646174613a2055524920717565727920666f72206e6f60448201526e3732bc34b9ba32b73a103a37b5b2b760891b60648201526084016103fc565b600061087160408051602081019091526000815290565b9050600081511161089157604051806020016040528060008152506108bc565b8061089b84610e11565b6040516020016108ac929190611323565b6040516020818303038152906040525b9392505050565b60006108cf6001610bf0565b905080156108e7576000805461ff0019166101001790555b6105cb61062f565b600081815260696020526040902080546001600160a01b0319166001600160a01b03841690811790915581906109248261065b565b6001600160a01b03167f8c5be1e5ebec7d5bd14f71427d1e84f3dd0314c0f7b2291e5b200ac8c7c3b92560405160405180910390a45050565b6000818152606760205260408120546001600160a01b03166109d65760405162461bcd60e51b815260206004820152602c60248201527f4552433732313a206f70657261746f7220717565727920666f72206e6f6e657860448201526b34b9ba32b73a103a37b5b2b760a11b60648201526084016103fc565b60006109e18361065b565b9050806001600160a01b0316846001600160a01b03161480610a2857506001600160a01b038082166000908152606a602090815260408083209388168352929052205460ff165b80610a4c5750836001600160a01b0316610a4184610387565b6001600160a01b0316145b949350505050565b826001600160a01b0316610a678261065b565b6001600160a01b031614610acb5760405162461bcd60e51b815260206004820152602560248201527f4552433732313a207472616e736665722066726f6d20696e636f72726563742060448201526437bbb732b960d91b60648201526084016103fc565b6001600160a01b038216610b2d5760405162461bcd60e51b8152602060048201526024808201527f4552433732313a207472616e7366657220746f20746865207a65726f206164646044820152637265737360e01b60648201526084016103fc565b610b386000826108ef565b6001600160a01b0383166000908152606860205260408120805460019290610b619084906114bf565b90915550506001600160a01b0382166000908152606860205260408120805460019290610b8f908490611493565b909155505060008181526067602052604080822080546001600160a01b0319166001600160a01b0386811691821790925591518493918716917fddf252ad1be2c89b69c2b068fc378daa952ba7f163c4a11628f55a4df523b3ef91a4505050565b60008054610100900460ff1615610c37578160ff166001148015610c135750303b155b610c2f5760405162461bcd60e51b81526004016103fc906113f4565b506000919050565b60005460ff808416911610610c5e5760405162461bcd60e51b81526004016103fc906113f4565b506000805460ff191660ff92909216919091179055600190565b919050565b600054610100900460ff16610ce85760405162461bcd60e51b815260206004820152602b60248201527f496e697469616c697a61626c653a20636f6e7472616374206973206e6f74206960448201526a6e697469616c697a696e6760a81b60648201526084016103fc565b8151610cfb906065906020850190611038565b508051610532906066906020840190611038565b816001600160a01b0316836001600160a01b03161415610d715760405162461bcd60e51b815260206004820152601960248201527f4552433732313a20617070726f766520746f2063616c6c65720000000000000060448201526064016103fc565b6001600160a01b038381166000818152606a6020908152604080832094871680845294825291829020805460ff191686151590811790915591519182527f17307eab39ab6107e8899845ad3d59bd9653f200f220920489ca2b5937696c31910160405180910390a3505050565b610de9848484610a54565b610df584848484610f2b565b6107d55760405162461bcd60e51b81526004016103fc906113a2565b606081610e355750506040805180820190915260018152600360fc1b602082015290565b8160005b8115610e5f5780610e498161153d565b9150610e589050600a836114ab565b9150610e39565b60008167ffffffffffffffff811115610e8857634e487b7160e01b600052604160045260246000fd5b6040519080825280601f01601f191660200182016040528015610eb2576020820181803683370190505b5090505b8415610a4c57610ec76001836114bf565b9150610ed4600a86611558565b610edf906030611493565b60f81b818381518110610f0257634e487b7160e01b600052603260045260246000fd5b60200101906001600160f81b031916908160001a905350610f24600a866114ab565b9450610eb6565b60006001600160a01b0384163b1561102d57604051630a85bd0160e11b81526001600160a01b0385169063150b7a0290610f6f903390899088908890600401611352565b602060405180830381600087803b158015610f8957600080fd5b505af1925050508015610fb9575060408051601f3d908101601f19168201909252610fb6918101906112c3565b60015b611013573d808015610fe7576040519150601f19603f3d011682016040523d82523d6000602084013e610fec565b606091505b50805161100b5760405162461bcd60e51b81526004016103fc906113a2565b805181602001fd5b6001600160e01b031916630a85bd0160e11b149050610a4c565b506001949350505050565b82805461104490611502565b90600052602060002090601f01602090048101928261106657600085556110ac565b82601f1061107f57805160ff19168380011785556110ac565b828001600101855582156110ac579182015b828111156110ac578251825591602001919060010190611091565b506110b89291506110bc565b5090565b5b808211156110b857600081556001016110bd565b80356001600160a01b0381168114610c7857600080fd5b6000602082840312156110f9578081fd5b6108bc826110d1565b60008060408385031215611114578081fd5b61111d836110d1565b915061112b602084016110d1565b90509250929050565b600080600060608486031215611148578081fd5b611151846110d1565b925061115f602085016110d1565b9150604084013590509250925092565b60008060008060808587031215611184578081fd5b61118d856110d1565b935061119b602086016110d1565b925060408501359150606085013567ffffffffffffffff808211156111be578283fd5b818701915087601f8301126111d1578283fd5b8135818111156111e3576111e3611598565b604051601f8201601f19908116603f0116810190838211818310171561120b5761120b611598565b816040528281528a6020848701011115611223578586fd5b82602086016020830137918201602001949094529598949750929550505050565b60008060408385031215611256578182fd5b61125f836110d1565b915060208301358015158114611273578182fd5b809150509250929050565b60008060408385031215611290578182fd5b611299836110d1565b946020939093013593505050565b6000602082840312156112b8578081fd5b81356108bc816115ae565b6000602082840312156112d4578081fd5b81516108bc816115ae565b6000602082840312156112f0578081fd5b5035919050565b6000815180845261130f8160208601602086016114d6565b601f01601f19169290920160200192915050565b600083516113358184602088016114d6565b8351908301906113498183602088016114d6565b01949350505050565b6001600160a01b0385811682528416602082015260408101839052608060608201819052600090611385908301846112f7565b9695505050505050565b6020815260006108bc60208301846112f7565b60208082526032908201527f4552433732313a207472616e7366657220746f206e6f6e20455243373231526560408201527131b2b4bb32b91034b6b83632b6b2b73a32b960711b606082015260800190565b6020808252602e908201527f496e697469616c697a61626c653a20636f6e747261637420697320616c72656160408201526d191e481a5b9a5d1a585b1a5e995960921b606082015260800190565b60208082526031908201527f4552433732313a207472616e736665722063616c6c6572206973206e6f74206f6040820152701ddb995c881b9bdc88185c1c1c9bdd9959607a1b606082015260800190565b600082198211156114a6576114a661156c565b500190565b6000826114ba576114ba611582565b500490565b6000828210156114d1576114d161156c565b500390565b60005b838110156114f15781810151838201526020016114d9565b838111156107d55750506000910152565b600181811c9082168061151657607f821691505b6020821081141561153757634e487b7160e01b600052602260045260246000fd5b50919050565b60006000198214156115515761155161156c565b5060010190565b60008261156757611567611582565b500690565b634e487b7160e01b600052601160045260246000fd5b634e487b7160e01b600052601260045260246000fd5b634e487b7160e01b600052604160045260246000fd5b6001600160e01b03198116811461061157600080fdfea26469706673582212209bff20289f71e355b58570749409861d80dc80248f98f88abb1f663b0ee1d17964736f6c63430008040033",
  "immutableReferences": {},
  "source": "// contracts/Box.sol\n// SPDX-License-Identifier: MIT\npragma solidity ^0.8.4;\n\nimport \"./Stake.sol\";\n \ncontract BoxV2 is Stake {\n\n    //New stuff goes here\n    function initializeBoxV2() initializer public {\n        __Stake_init();\n    }\n\n}",
  "sourcePath": "/Users/torbjoranderson/Documents/TorbjorDefi/develpoment/crypto-commerce-hud-1.0/src/truffle/contracts/BoxV2.sol",
  "compiler": {
    "name": "solc",
    "version": "0.8.4+commit.c7e474f2.Emscripten.clang"
  },
  "schemaVersion": "3.4.7",
  "updatedAt": "2022-09-21T02:52:08.766Z",
  "devdoc": {
    "kind": "dev",
    "methods": {
      "approve(address,uint256)": {
        "details": "See {IERC721-approve}."
      },
      "balanceOf(address)": {
        "details": "See {IERC721-balanceOf}."
      },
      "getApproved(uint256)": {
        "details": "See {IERC721-getApproved}."
      },
      "isApprovedForAll(address,address)": {
        "details": "See {IERC721-isApprovedForAll}."
      },
      "name()": {
        "details": "See {IERC721Metadata-name}."
      },
      "ownerOf(uint256)": {
        "details": "See {IERC721-ownerOf}."
      },
      "safeTransferFrom(address,address,uint256)": {
        "details": "See {IERC721-safeTransferFrom}."
      },
      "safeTransferFrom(address,address,uint256,bytes)": {
        "details": "See {IERC721-safeTransferFrom}."
      },
      "setApprovalForAll(address,bool)": {
        "details": "See {IERC721-setApprovalForAll}."
      },
      "supportsInterface(bytes4)": {
        "details": "See {IERC165-supportsInterface}."
      },
      "symbol()": {
        "details": "See {IERC721Metadata-symbol}."
      },
      "tokenURI(uint256)": {
        "details": "See {IERC721Metadata-tokenURI}."
      },
      "transferFrom(address,address,uint256)": {
        "details": "See {IERC721-transferFrom}."
      }
    },
    "version": 1
  },
  "userdoc": {
    "kind": "user",
    "methods": {},
    "version": 1
  }
}