{
  "contractName": "PreorderNFTProxy",
  "abi": [
    {
      "anonymous": false,
      "inputs": [
        {
          "indexed": true,
          "internalType": "address",
          "name": "owner",
          "type": "address"
        },
        {
          "indexed": true,
          "internalType": "address",
          "name": "approved",
          "type": "address"
        },
        {
          "indexed": true,
          "internalType": "uint256",
          "name": "tokenId",
          "type": "uint256"
        }
      ],
      "name": "Approval",
      "type": "event"
    },
    {
      "anonymous": false,
      "inputs": [
        {
          "indexed": true,
          "internalType": "address",
          "name": "owner",
          "type": "address"
        },
        {
          "indexed": true,
          "internalType": "address",
          "name": "operator",
          "type": "address"
        },
        {
          "indexed": false,
          "internalType": "bool",
          "name": "approved",
          "type": "bool"
        }
      ],
      "name": "ApprovalForAll",
      "type": "event"
    },
    {
      "anonymous": false,
      "inputs": [
        {
          "indexed": false,
          "internalType": "uint8",
          "name": "version",
          "type": "uint8"
        }
      ],
      "name": "Initialized",
      "type": "event"
    },
    {
      "anonymous": false,
      "inputs": [
        {
          "indexed": true,
          "internalType": "address",
          "name": "previousOwner",
          "type": "address"
        },
        {
          "indexed": true,
          "internalType": "address",
          "name": "newOwner",
          "type": "address"
        }
      ],
      "name": "OwnershipTransferred",
      "type": "event"
    },
    {
      "anonymous": false,
      "inputs": [
        {
          "indexed": true,
          "internalType": "address",
          "name": "from",
          "type": "address"
        },
        {
          "indexed": true,
          "internalType": "address",
          "name": "to",
          "type": "address"
        },
        {
          "indexed": true,
          "internalType": "uint256",
          "name": "tokenId",
          "type": "uint256"
        }
      ],
      "name": "Transfer",
      "type": "event"
    },
    {
      "inputs": [
        {
          "internalType": "uint256",
          "name": "",
          "type": "uint256"
        }
      ],
      "name": "NFTPricePaid",
      "outputs": [
        {
          "internalType": "uint256",
          "name": "",
          "type": "uint256"
        }
      ],
      "stateMutability": "view",
      "type": "function"
    },
    {
      "inputs": [
        {
          "internalType": "uint256",
          "name": "",
          "type": "uint256"
        }
      ],
      "name": "NFTfunder",
      "outputs": [
        {
          "internalType": "address",
          "name": "",
          "type": "address"
        }
      ],
      "stateMutability": "view",
      "type": "function"
    },
    {
      "inputs": [
        {
          "internalType": "address",
          "name": "_productAddress",
          "type": "address"
        },
        {
          "internalType": "address",
          "name": "_currency",
          "type": "address"
        }
      ],
      "name": "__PreorderNFT_init",
      "outputs": [],
      "stateMutability": "nonpayable",
      "type": "function"
    },
    {
      "inputs": [
        {
          "internalType": "address",
          "name": "_productAddress",
          "type": "address"
        },
        {
          "internalType": "address",
          "name": "_currency",
          "type": "address"
        }
      ],
      "name": "__PreorderNFT_init_unchained",
      "outputs": [],
      "stateMutability": "nonpayable",
      "type": "function"
    },
    {
      "inputs": [
        {
          "internalType": "string",
          "name": "affiliateCode",
          "type": "string"
        },
        {
          "internalType": "uint8",
          "name": "percentage",
          "type": "uint8"
        }
      ],
      "name": "affiliateRegistration",
      "outputs": [],
      "stateMutability": "nonpayable",
      "type": "function"
    },
    {
      "inputs": [
        {
          "internalType": "address",
          "name": "to",
          "type": "address"
        },
        {
          "internalType": "uint256",
          "name": "tokenId",
          "type": "uint256"
        }
      ],
      "name": "approve",
      "outputs": [],
      "stateMutability": "nonpayable",
      "type": "function"
    },
    {
      "inputs": [
        {
          "internalType": "address",
          "name": "owner",
          "type": "address"
        }
      ],
      "name": "balanceOf",
      "outputs": [
        {
          "internalType": "uint256",
          "name": "",
          "type": "uint256"
        }
      ],
      "stateMutability": "view",
      "type": "function"
    },
    {
      "inputs": [
        {
          "internalType": "string",
          "name": "oldCode",
          "type": "string"
        },
        {
          "internalType": "string",
          "name": "newCode",
          "type": "string"
        }
      ],
      "name": "changeAffiliateCode",
      "outputs": [],
      "stateMutability": "nonpayable",
      "type": "function"
    },
    {
      "inputs": [
        {
          "internalType": "uint8",
          "name": "percentage",
          "type": "uint8"
        }
      ],
      "name": "changeAffiliateSharedPercentage",
      "outputs": [],
      "stateMutability": "nonpayable",
      "type": "function"
    },
    {
      "inputs": [
        {
          "internalType": "address",
          "name": "currency",
          "type": "address"
        },
        {
          "internalType": "uint256[]",
          "name": "productIds",
          "type": "uint256[]"
        },
        {
          "internalType": "address",
          "name": "affiliate",
          "type": "address"
        }
      ],
      "name": "checkoutCart",
      "outputs": [],
      "stateMutability": "nonpayable",
      "type": "function"
    },
    {
      "inputs": [
        {
          "internalType": "address",
          "name": "currency",
          "type": "address"
        },
        {
          "internalType": "uint256",
          "name": "productId",
          "type": "uint256"
        }
      ],
      "name": "fundPreorder",
      "outputs": [],
      "stateMutability": "nonpayable",
      "type": "function"
    },
    {
      "inputs": [
        {
          "internalType": "string",
          "name": "affiliateCode",
          "type": "string"
        }
      ],
      "name": "getAffiliateByCode",
      "outputs": [
        {
          "internalType": "address",
          "name": "",
          "type": "address"
        }
      ],
      "stateMutability": "view",
      "type": "function"
    },
    {
      "inputs": [
        {
          "internalType": "address",
          "name": "affiliate",
          "type": "address"
        }
      ],
      "name": "getAffiliateCode",
      "outputs": [
        {
          "internalType": "string",
          "name": "",
          "type": "string"
        }
      ],
      "stateMutability": "view",
      "type": "function"
    },
    {
      "inputs": [
        {
          "internalType": "address",
          "name": "affiliate",
          "type": "address"
        }
      ],
      "name": "getAffiliateSharedPercentage",
      "outputs": [
        {
          "internalType": "uint8",
          "name": "",
          "type": "uint8"
        }
      ],
      "stateMutability": "view",
      "type": "function"
    },
    {
      "inputs": [
        {
          "internalType": "uint256",
          "name": "tokenId",
          "type": "uint256"
        }
      ],
      "name": "getApproved",
      "outputs": [
        {
          "internalType": "address",
          "name": "",
          "type": "address"
        }
      ],
      "stateMutability": "view",
      "type": "function"
    },
    {
      "inputs": [
        {
          "internalType": "uint256",
          "name": "NFTid",
          "type": "uint256"
        }
      ],
      "name": "getNFTaffiliate",
      "outputs": [
        {
          "internalType": "address",
          "name": "",
          "type": "address"
        }
      ],
      "stateMutability": "view",
      "type": "function"
    },
    {
      "inputs": [
        {
          "internalType": "uint256",
          "name": "NFTid",
          "type": "uint256"
        }
      ],
      "name": "getNFTaffiliateAmountDue",
      "outputs": [
        {
          "internalType": "uint256",
          "name": "",
          "type": "uint256"
        }
      ],
      "stateMutability": "view",
      "type": "function"
    },
    {
      "inputs": [
        {
          "internalType": "uint256",
          "name": "NFTid",
          "type": "uint256"
        }
      ],
      "name": "getNFTstoreAmountDue",
      "outputs": [
        {
          "internalType": "uint256",
          "name": "",
          "type": "uint256"
        }
      ],
      "stateMutability": "view",
      "type": "function"
    },
    {
      "inputs": [
        {
          "internalType": "uint256",
          "name": "productID",
          "type": "uint256"
        },
        {
          "internalType": "uint256",
          "name": "index",
          "type": "uint256"
        }
      ],
      "name": "getOrphanedFunderNFTidByIndex",
      "outputs": [
        {
          "internalType": "uint256",
          "name": "",
          "type": "uint256"
        }
      ],
      "stateMutability": "view",
      "type": "function"
    },
    {
      "inputs": [
        {
          "internalType": "uint256",
          "name": "productID",
          "type": "uint256"
        }
      ],
      "name": "getOrphanedFundersCount",
      "outputs": [
        {
          "internalType": "uint256",
          "name": "",
          "type": "uint256"
        }
      ],
      "stateMutability": "view",
      "type": "function"
    },
    {
      "inputs": [
        {
          "internalType": "uint256",
          "name": "_productID",
          "type": "uint256"
        }
      ],
      "name": "getProductBalances",
      "outputs": [
        {
          "internalType": "uint256[]",
          "name": "",
          "type": "uint256[]"
        }
      ],
      "stateMutability": "view",
      "type": "function"
    },
    {
      "inputs": [
        {
          "internalType": "uint256",
          "name": "NFTid",
          "type": "uint256"
        }
      ],
      "name": "getProductByNFT",
      "outputs": [
        {
          "internalType": "uint256",
          "name": "",
          "type": "uint256"
        }
      ],
      "stateMutability": "view",
      "type": "function"
    },
    {
      "inputs": [
        {
          "internalType": "uint256",
          "name": "productID",
          "type": "uint256"
        },
        {
          "internalType": "address",
          "name": "currency",
          "type": "address"
        }
      ],
      "name": "getProductCurrencyBalance",
      "outputs": [
        {
          "internalType": "uint256",
          "name": "",
          "type": "uint256"
        }
      ],
      "stateMutability": "view",
      "type": "function"
    },
    {
      "inputs": [
        {
          "internalType": "address",
          "name": "currency",
          "type": "address"
        },
        {
          "internalType": "uint256",
          "name": "productId",
          "type": "uint256"
        },
        {
          "internalType": "address",
          "name": "affiliate",
          "type": "address"
        }
      ],
      "name": "getQuote",
      "outputs": [
        {
          "internalType": "uint256",
          "name": "",
          "type": "uint256"
        }
      ],
      "stateMutability": "view",
      "type": "function"
    },
    {
      "inputs": [
        {
          "internalType": "address",
          "name": "currency",
          "type": "address"
        },
        {
          "internalType": "uint256",
          "name": "productId",
          "type": "uint256"
        }
      ],
      "name": "getUnfundedNFT",
      "outputs": [
        {
          "internalType": "uint256",
          "name": "",
          "type": "uint256"
        }
      ],
      "stateMutability": "view",
      "type": "function"
    },
    {
      "inputs": [
        {
          "internalType": "uint256",
          "name": "productID",
          "type": "uint256"
        }
      ],
      "name": "getUnitsReceived",
      "outputs": [
        {
          "internalType": "uint64",
          "name": "",
          "type": "uint64"
        }
      ],
      "stateMutability": "view",
      "type": "function"
    },
    {
      "inputs": [
        {
          "internalType": "uint256",
          "name": "productID",
          "type": "uint256"
        }
      ],
      "name": "getUnitsRedeemed",
      "outputs": [
        {
          "internalType": "uint64",
          "name": "",
          "type": "uint64"
        }
      ],
      "stateMutability": "view",
      "type": "function"
    },
    {
      "inputs": [
        {
          "internalType": "uint256",
          "name": "productID",
          "type": "uint256"
        }
      ],
      "name": "getUnitsRefunded",
      "outputs": [
        {
          "internalType": "uint64",
          "name": "",
          "type": "uint64"
        }
      ],
      "stateMutability": "view",
      "type": "function"
    },
    {
      "inputs": [
        {
          "internalType": "uint256",
          "name": "productID",
          "type": "uint256"
        }
      ],
      "name": "getUnitsSold",
      "outputs": [
        {
          "internalType": "uint64",
          "name": "",
          "type": "uint64"
        }
      ],
      "stateMutability": "view",
      "type": "function"
    },
    {
      "inputs": [
        {
          "internalType": "address",
          "name": "owner",
          "type": "address"
        },
        {
          "internalType": "address",
          "name": "operator",
          "type": "address"
        }
      ],
      "name": "isApprovedForAll",
      "outputs": [
        {
          "internalType": "bool",
          "name": "",
          "type": "bool"
        }
      ],
      "stateMutability": "view",
      "type": "function"
    },
    {
      "inputs": [
        {
          "internalType": "uint256",
          "name": "",
          "type": "uint256"
        }
      ],
      "name": "isNFTFunded",
      "outputs": [
        {
          "internalType": "bool",
          "name": "",
          "type": "bool"
        }
      ],
      "stateMutability": "view",
      "type": "function"
    },
    {
      "inputs": [
        {
          "internalType": "uint256",
          "name": "",
          "type": "uint256"
        }
      ],
      "name": "isNFTUseable",
      "outputs": [
        {
          "internalType": "bool",
          "name": "",
          "type": "bool"
        }
      ],
      "stateMutability": "view",
      "type": "function"
    },
    {
      "inputs": [],
      "name": "name",
      "outputs": [
        {
          "internalType": "string",
          "name": "",
          "type": "string"
        }
      ],
      "stateMutability": "view",
      "type": "function"
    },
    {
      "inputs": [],
      "name": "owner",
      "outputs": [
        {
          "internalType": "address",
          "name": "",
          "type": "address"
        }
      ],
      "stateMutability": "view",
      "type": "function"
    },
    {
      "inputs": [
        {
          "internalType": "uint256",
          "name": "tokenId",
          "type": "uint256"
        }
      ],
      "name": "ownerOf",
      "outputs": [
        {
          "internalType": "address",
          "name": "",
          "type": "address"
        }
      ],
      "stateMutability": "view",
      "type": "function"
    },
    {
      "inputs": [
        {
          "internalType": "uint256",
          "name": "",
          "type": "uint256"
        },
        {
          "internalType": "address",
          "name": "",
          "type": "address"
        }
      ],
      "name": "productBalances",
      "outputs": [
        {
          "internalType": "uint256",
          "name": "",
          "type": "uint256"
        }
      ],
      "stateMutability": "view",
      "type": "function"
    },
    {
      "inputs": [
        {
          "internalType": "address",
          "name": "currency",
          "type": "address"
        },
        {
          "internalType": "uint256",
          "name": "productId",
          "type": "uint256"
        },
        {
          "internalType": "address",
          "name": "affiliate",
          "type": "address"
        }
      ],
      "name": "purchasePreorder",
      "outputs": [],
      "stateMutability": "nonpayable",
      "type": "function"
    },
    {
      "inputs": [
        {
          "internalType": "address",
          "name": "currency",
          "type": "address"
        },
        {
          "internalType": "uint256[]",
          "name": "productIds",
          "type": "uint256[]"
        },
        {
          "internalType": "address",
          "name": "affiliate",
          "type": "address"
        }
      ],
      "name": "quoteCart",
      "outputs": [
        {
          "internalType": "uint256",
          "name": "",
          "type": "uint256"
        }
      ],
      "stateMutability": "view",
      "type": "function"
    },
    {
      "inputs": [
        {
          "internalType": "uint256",
          "name": "NFTid",
          "type": "uint256"
        }
      ],
      "name": "redeemPreorder",
      "outputs": [],
      "stateMutability": "nonpayable",
      "type": "function"
    },
    {
      "inputs": [
        {
          "internalType": "uint256",
          "name": "NFTid",
          "type": "uint256"
        }
      ],
      "name": "refundPreorder",
      "outputs": [],
      "stateMutability": "nonpayable",
      "type": "function"
    },
    {
      "inputs": [],
      "name": "renounceOwnership",
      "outputs": [],
      "stateMutability": "nonpayable",
      "type": "function"
    },
    {
      "inputs": [
        {
          "internalType": "address",
          "name": "from",
          "type": "address"
        },
        {
          "internalType": "address",
          "name": "to",
          "type": "address"
        },
        {
          "internalType": "uint256",
          "name": "tokenId",
          "type": "uint256"
        }
      ],
      "name": "safeTransferFrom",
      "outputs": [],
      "stateMutability": "nonpayable",
      "type": "function"
    },
    {
      "inputs": [
        {
          "internalType": "address",
          "name": "from",
          "type": "address"
        },
        {
          "internalType": "address",
          "name": "to",
          "type": "address"
        },
        {
          "internalType": "uint256",
          "name": "tokenId",
          "type": "uint256"
        },
        {
          "internalType": "bytes",
          "name": "_data",
          "type": "bytes"
        }
      ],
      "name": "safeTransferFrom",
      "outputs": [],
      "stateMutability": "nonpayable",
      "type": "function"
    },
    {
      "inputs": [
        {
          "internalType": "address",
          "name": "operator",
          "type": "address"
        },
        {
          "internalType": "bool",
          "name": "approved",
          "type": "bool"
        }
      ],
      "name": "setApprovalForAll",
      "outputs": [],
      "stateMutability": "nonpayable",
      "type": "function"
    },
    {
      "inputs": [
        {
          "internalType": "bytes4",
          "name": "interfaceId",
          "type": "bytes4"
        }
      ],
      "name": "supportsInterface",
      "outputs": [
        {
          "internalType": "bool",
          "name": "",
          "type": "bool"
        }
      ],
      "stateMutability": "view",
      "type": "function"
    },
    {
      "inputs": [],
      "name": "symbol",
      "outputs": [
        {
          "internalType": "string",
          "name": "",
          "type": "string"
        }
      ],
      "stateMutability": "view",
      "type": "function"
    },
    {
      "inputs": [
        {
          "internalType": "uint256",
          "name": "index",
          "type": "uint256"
        }
      ],
      "name": "tokenByIndex",
      "outputs": [
        {
          "internalType": "uint256",
          "name": "",
          "type": "uint256"
        }
      ],
      "stateMutability": "view",
      "type": "function"
    },
    {
      "inputs": [
        {
          "internalType": "address",
          "name": "owner",
          "type": "address"
        },
        {
          "internalType": "uint256",
          "name": "index",
          "type": "uint256"
        }
      ],
      "name": "tokenOfOwnerByIndex",
      "outputs": [
        {
          "internalType": "uint256",
          "name": "",
          "type": "uint256"
        }
      ],
      "stateMutability": "view",
      "type": "function"
    },
    {
      "inputs": [
        {
          "internalType": "uint256",
          "name": "tokenId",
          "type": "uint256"
        }
      ],
      "name": "tokenURI",
      "outputs": [
        {
          "internalType": "string",
          "name": "",
          "type": "string"
        }
      ],
      "stateMutability": "view",
      "type": "function"
    },
    {
      "inputs": [],
      "name": "totalSupply",
      "outputs": [
        {
          "internalType": "uint256",
          "name": "",
          "type": "uint256"
        }
      ],
      "stateMutability": "view",
      "type": "function"
    },
    {
      "inputs": [
        {
          "internalType": "address",
          "name": "from",
          "type": "address"
        },
        {
          "internalType": "address",
          "name": "to",
          "type": "address"
        },
        {
          "internalType": "uint256",
          "name": "tokenId",
          "type": "uint256"
        }
      ],
      "name": "transferFrom",
      "outputs": [],
      "stateMutability": "nonpayable",
      "type": "function"
    },
    {
      "inputs": [
        {
          "internalType": "address",
          "name": "newOwner",
          "type": "address"
        }
      ],
      "name": "transferOwnership",
      "outputs": [],
      "stateMutability": "nonpayable",
      "type": "function"
    },
    {
      "inputs": [
        {
          "internalType": "uint256",
          "name": "amount",
          "type": "uint256"
        },
        {
          "internalType": "address",
          "name": "currency",
          "type": "address"
        }
      ],
      "name": "withdrawSpecificCurrencyBalance",
      "outputs": [
        {
          "internalType": "uint256",
          "name": "",
          "type": "uint256"
        }
      ],
      "stateMutability": "nonpayable",
      "type": "function"
    },
    {
      "inputs": [
        {
          "internalType": "address",
          "name": "_productAddress",
          "type": "address"
        },
        {
          "internalType": "address",
          "name": "_currency",
          "type": "address"
        }
      ],
      "name": "initialize",
      "outputs": [],
      "stateMutability": "nonpayable",
      "type": "function"
    }
  ],
  "bytecode": "0x608060405234801561001057600080fd5b5061569b80620000216000396000f3fe608060405234801561001057600080fd5b50600436106103425760003560e01c806370a08231116101b8578063a8e6dc9011610104578063e94392ce116100a2578063f28d2c221161007c578063f28d2c2214610859578063f2fde38b14610879578063f64dd29f1461088c578063fc9c76731461089f57600080fd5b8063e94392ce146107d8578063e985e9c5146107fc578063eb19da0d1461083857600080fd5b8063c1f828ae116100de578063c1f828ae1461077f578063c87b56dd14610792578063dd79d663146107a5578063e0fd58c9146107b857600080fd5b8063a8e6dc9014610746578063b16dde5d14610759578063b88d4fde1461076c57600080fd5b806395d89b41116101715780639e8762551161014b5780639e876255146106ec578063a22cb4651461070d578063a4a4391a14610720578063a6bc534a1461073357600080fd5b806395d89b41146106a557806396c8c824146106ad5780639af7521b146106c057600080fd5b806370a0823114610632578063715018a6146106455780637e8368d01461064d5780637eea6cae14610660578063868ef340146106735780638da5cb5b1461069457600080fd5b80632f745c59116102925780634f6ccce7116102305780636352211e1161020a5780636352211e146105e657806365e7b4e9146105f95780636ea4bee21461060c5780636f2388511461061f57600080fd5b80634f6ccce71461059d5780635beb7c1f146105b05780635f438d2f146105d357600080fd5b8063485cc9551161026c578063485cc9551461053a5780634abf5de71461054d5780634aff4698146105775780634b3818331461058a57600080fd5b80632f745c5914610501578063323d86781461051457806342842e0e1461052757600080fd5b8063137941cb116102ff5780631ebee254116102d95780631ebee2541461047657806322573ea2146104a157806323b872dd146104cd5780632d278548146104e057600080fd5b8063137941cb14610424578063139d78771461045b57806318160ddd1461046e57600080fd5b806301ffc9a714610347578063030e9be21461036f57806306fdde03146103ae578063081812fc146103c3578063095ea7b3146103ee5780630ab6d67314610403575b600080fd5b61035a610355366004614e3a565b6108c9565b60405190151581526020015b60405180910390f35b61039c61037d366004614b8d565b6001600160a01b0316600090815261010a602052604090205460ff1690565b60405160ff9091168152602001610366565b6103b66108f4565b6040516103669190615199565b6103d66103d136600461501a565b610986565b6040516001600160a01b039091168152602001610366565b6104016103fc366004614db2565b610a13565b005b610416610411366004614cb9565b610b29565b604051908152602001610366565b61041661043236600461504a565b600091825261010d602090815260408084206001600160a01b0393909316845291905290205490565b610401610469366004614bc5565b610bb5565b609954610416565b61048961048436600461501a565b610c2d565b6040516001600160401b039091168152602001610366565b6104166104af36600461504a565b61010d60209081526000928352604080842090915290825290205481565b6104016104db366004614bfd565b610d02565b6104166104ee36600461501a565b6101006020526000908152604090205481565b61041661050f366004614db2565b610d33565b61048961052236600461501a565b610dc9565b610401610535366004614bfd565b610e9a565b610401610548366004614bc5565b610eb5565b6103d661055b36600461501a565b600090815261010760205260409020546001600160a01b031690565b61048961058536600461501a565b610ee3565b610401610598366004614ddd565b610fb4565b6104166105ab36600461501a565b611449565b61035a6105be36600461501a565b60fe6020526000908152604090205460ff1681565b6104016105e1366004614bc5565b6114ea565b6103d66105f436600461501a565b611580565b61040161060736600461501a565b6115f7565b61041661061a366004614db2565b611c5b565b61040161062d366004614f04565b611f01565b610416610640366004614b8d565b6120b5565b61040161213c565b6103d661065b366004614e72565b6121a2565b61041661066e36600461504a565b6121d4565b61041661068136600461501a565b6000908152610118602052604090205490565b60c9546001600160a01b03166103d6565b6103b661225f565b6104016106bb366004614cb9565b61226e565b6104166106ce36600461506e565b60009182526101166020908152604080842092845291905290205490565b6104166106fa36600461501a565b6000908152610108602052604090205490565b61040161071b366004614d85565b6122c4565b61040161072e366004614db2565b6122d3565b61040161074136600461501a565b61233f565b6103b6610754366004614b8d565b612e35565b610401610767366004614ea4565b612f54565b61040161077a366004614c3d565b613155565b61048961078d36600461501a565b613187565b6103b66107a036600461501a565b613258565b6104016107b336600461508f565b613330565b6107cb6107c636600461501a565b6133b6565b6040516103669190615155565b61035a6107e636600461501a565b60ff602081905260009182526040909120541681565b61035a61080a366004614bc5565b6001600160a01b039182166000908152606a6020908152604080832093909416825291909152205460ff1690565b61041661084636600461501a565b6000908152610109602052604090205490565b61041661086736600461501a565b600090815260fd602052604090205490565b610401610887366004614b8d565b61360a565b61041661089a366004614ddd565b6136d5565b6103d66108ad36600461501a565b610101602052600090815260409020546001600160a01b031681565b60006001600160e01b0319821663780e9d6360e01b14806108ee57506108ee82613a6a565b92915050565b60606065805461090390615577565b80601f016020809104026020016040519081016040528092919081815260200182805461092f90615577565b801561097c5780601f106109515761010080835404028352916020019161097c565b820191906000526020600020905b81548152906001019060200180831161095f57829003601f168201915b5050505050905090565b600061099182613aba565b6109f75760405162461bcd60e51b815260206004820152602c60248201527f4552433732313a20617070726f76656420717565727920666f72206e6f6e657860448201526b34b9ba32b73a103a37b5b2b760a11b60648201526084015b60405180910390fd5b506000908152606960205260409020546001600160a01b031690565b6000610a1e82611580565b9050806001600160a01b0316836001600160a01b03161415610a8c5760405162461bcd60e51b815260206004820152602160248201527f4552433732313a20617070726f76616c20746f2063757272656e74206f776e656044820152603960f91b60648201526084016109ee565b336001600160a01b0382161480610aa85750610aa8813361080a565b610b1a5760405162461bcd60e51b815260206004820152603860248201527f4552433732313a20617070726f76652063616c6c6572206973206e6f74206f7760448201527f6e6572206e6f7220617070726f76656420666f7220616c6c000000000000000060648201526084016109ee565b610b248383613ad7565b505050565b6001600160a01b0381166000908152610104602052604081205460ff16610b4f57600091505b6000805b8451811015610bac57610b8e86868381518110610b8057634e487b7160e01b600052603260045260246000fd5b6020026020010151866136d5565b610b9890836154b0565b915080610ba4816155ac565b915050610b53565b50949350505050565b6000610bc16001613b45565b90508015610bd9576000805461ff0019166101001790555b610be383836114ea565b8015610b24576000805461ff0019169055604051600181527f7f26b83ff96e1f2b6a682f133852f6798a09c465da95921460cefb38474024989060200160405180910390a1505050565b6000818015801590610cc4575060fb60009054906101000a90046001600160a01b03166001600160a01b03166326fdfcb36040518163ffffffff1660e01b815260040160206040518083038186803b158015610c8857600080fd5b505afa158015610c9c573d6000803e3d6000fd5b505050506040513d601f19601f82011682018060405250810190610cc09190615032565b8111155b610ce05760405162461bcd60e51b81526004016109ee90615350565b600083815261011060205260409020546001600160401b031691505b50919050565b610d0c3382613bd2565b610d285760405162461bcd60e51b81526004016109ee906152ff565b610b24838383613cbc565b6000610d3e836120b5565b8210610da05760405162461bcd60e51b815260206004820152602b60248201527f455243373231456e756d657261626c653a206f776e657220696e646578206f7560448201526a74206f6620626f756e647360a81b60648201526084016109ee565b506001600160a01b03919091166000908152609760209081526040808320938352929052205490565b6000818015801590610e60575060fb60009054906101000a90046001600160a01b03166001600160a01b03166326fdfcb36040518163ffffffff1660e01b815260040160206040518083038186803b158015610e2457600080fd5b505afa158015610e38573d6000803e3d6000fd5b505050506040513d601f19601f82011682018060405250810190610e5c9190615032565b8111155b610e7c5760405162461bcd60e51b81526004016109ee90615350565b5050600090815261010e60205260409020546001600160401b031690565b610b2483838360405180602001604052806000815250613155565b6000610ec16001613b45565b90508015610ed9576000805461ff0019166101001790555b610be38383610bb5565b6000818015801590610f7a575060fb60009054906101000a90046001600160a01b03166001600160a01b03166326fdfcb36040518163ffffffff1660e01b815260040160206040518083038186803b158015610f3e57600080fd5b505afa158015610f52573d6000803e3d6000fd5b505050506040513d601f19601f82011682018060405250810190610f769190615032565b8111155b610f965760405162461bcd60e51b81526004016109ee90615350565b5050600090815261011160205260409020546001600160401b031690565b6001600160a01b03811660009081526101046020526040902054339060ff16610fdc57600091505b6000610fe98585856136d5565b60fb54604051632e76c56d60e21b8152600481018790529192506000916001600160a01b039091169063b9db15b49060240160006040518083038186803b15801561103357600080fd5b505afa158015611047573d6000803e3d6000fd5b505050506040513d6000823e601f3d908101601f1916820160405261106f9190810190614f48565b90508060e001516110bb5760405162461bcd60e51b815260206004820152601660248201527550726f64756374206973206e6f742062757961626c6560501b60448201526064016109ee565b6040516323b872dd60e01b81526001600160a01b038481166004830152306024830152604482018490528716906323b872dd90606401602060405180830381600087803b15801561110b57600080fd5b505af115801561111f573d6000803e3d6000fd5b505050506040513d601f19601f820116820180604052508101906111439190614e1e565b6111845760405162461bcd60e51b8152602060048201526012602482015271151c985b9cd858dd1a5bdb8819985a5b195960721b60448201526064016109ee565b600085815261010d602090815260408083206001600160a01b038a168452909152812080548492906111b79084906154b0565b90915550506099546000906111cd9060016154b0565b600081815261010b6020908152604080832080546001600160a01b0319166001600160a01b038d16179055610100825280832087905560fd82528083208a905560fe8252808320805460ff19908116600190811790925560ff8452828520805490911690558a845261010e90925282208054939450909290919061125b9084906001600160401b03166154c8565b82546101009290920a6001600160401b0381810219909316918316021790915583516001600160a01b031660009081526101126020526040812080546001945090926112a9918591166154c8565b92506101000a8154816001600160401b0302191690836001600160401b0316021790555060006001600160a01b0316856001600160a01b0316146113af576000818152610107602052604080822080546001600160a01b0319166001600160a01b03891617905560808401519084015160649161132b9160ff909116906154fe565b61133591906154ea565b6001600160a01b038716600090815261010a60205260409020549091506064906113629060ff16836154fe565b61136c91906154ea565b611376908261551d565b60008381526101096020526040908190209190915583015161139990829061551d565b60008381526101086020526040902055506113c2565b6000818152610108602052604090208390555b6113cc8482613e63565b600086815261011860205260409020541561142d5760008681526101166020908152604080832083805282528083205480845261010c83528184205461010190935292205461142a916001600160a01b03908116918a911684613e7d565b50505b8160c0015115611440576114408161233f565b50505050505050565b600061145460995490565b82106114b75760405162461bcd60e51b815260206004820152602c60248201527f455243373231456e756d657261626c653a20676c6f62616c20696e646578206f60448201526b7574206f6620626f756e647360a01b60648201526084016109ee565b609982815481106114d857634e487b7160e01b600052603260045260246000fd5b90600052602060002001549050919050565b60006114f66001613b45565b9050801561150e576000805461ff0019166101001790555b60fb80546001600160a01b038086166001600160a01b03199283161790925560fc8054928516929091169190911790556040805180820182526008815267283932a7b93232b960c11b6020808301919091528251808401909352600383526250524560e81b90830152610be39161423c565b6000818152606760205260408120546001600160a01b0316806108ee5760405162461bcd60e51b815260206004820152602960248201527f4552433732313a206f776e657220717565727920666f72206e6f6e657869737460448201526832b73a103a37b5b2b760b91b60648201526084016109ee565b600081815260fd602052604081205482919060fb54604051632e76c56d60e21b8152600481018390529192506000916001600160a01b039091169063b9db15b49060240160006040518083038186803b15801561165357600080fd5b505afa158015611667573d6000803e3d6000fd5b505050506040513d6000823e601f3d908101601f1916820160405261168f9190810190614f48565b90508060c001516116de5760405162461bcd60e51b815260206004820152601960248201527850726f64756374206973206e6f742052656465656d61626c6560381b60448201526064016109ee565b8333806116ea83611580565b6001600160a01b0316146117105760405162461bcd60e51b81526004016109ee906152b4565b61171986613aba565b61175a5760405162461bcd60e51b81526020600482015260126024820152714e465420646f65736e27742065786973742160701b60448201526064016109ee565b600086815260fe602052604090205460ff166117f15760405162461bcd60e51b815260206004820152604a60248201527f54686973204e4654206973206e6f7420726566756e6461626c652c206974206d60448201527f6179206861766520616c7265616479206265656e20726566756e646564206f726064820152692072656465656d65642160b01b608482015260a4016109ee565b600086815260fd602052604081205460fb54604051632e76c56d60e21b8152600481018390529192506000916001600160a01b039091169063b9db15b49060240160006040518083038186803b15801561184a57600080fd5b505afa15801561185e573d6000803e3d6000fd5b505050506040513d6000823e601f3d908101601f191682016040526118869190810190614f48565b60fb54604051631a4fc34360e31b8152600481018590529192506001600160a01b03169063d27e1a189060240160206040518083038186803b1580156118cb57600080fd5b505afa1580156118df573d6000803e3d6000fd5b505050506040513d601f19601f820116820180604052508101906119039190614e1e565b61195b5760405162461bcd60e51b815260206004820152602360248201527f546869732070726f64756374206973206e6f7420726566756e6461626c65207960448201526265742160e81b60648201526084016109ee565b600088815261010b60209081526040808320546101009092529182902054915163095ea7b360e01b815233600482015260248101929092526001600160a01b03169063095ea7b390604401602060405180830381600087803b1580156119c057600080fd5b505af11580156119d4573d6000803e3d6000fd5b505050506040513d601f19601f820116820180604052508101906119f89190614e1e565b611a535760405162461bcd60e51b815260206004820152602660248201527f417070726f76616c20666f7220667574757265207769746864726177616c206660448201526561696c65642160d01b60648201526084016109ee565b600088815261010b60209081526040808320546101009092529182902054915163a9059cbb60e01b815233600482015260248101929092526001600160a01b03169063a9059cbb90604401602060405180830381600087803b158015611ab857600080fd5b505af1158015611acc573d6000803e3d6000fd5b505050506040513d601f19601f82011682018060405250810190611af09190614e1e565b611b3c5760405162461bcd60e51b815260206004820152601760248201527f526566756e64207472616e73666572206661696c65642100000000000000000060448201526064016109ee565b600088815260fe60209081526040808320805460ff191690558483526101109091528120805460019290611b7a9084906001600160401b03166154c8565b82546101009290920a6001600160401b0381810219909316918316021790915582516001600160a01b03166000908152610114602052604081208054600194509092611bc8918591166154c8565b82546001600160401b039182166101009390930a928302919092021990911617905550600088815260ff60208190526040909120541615611c5157600088815261010c602090815260408083205461010190925290912054611c39916001600160a01b03908116918591168b613e7d565b50600088815260ff60205260409020805460ff191690555b5050505050505050565b60fb54604051632e76c56d60e21b81526004810183905260009182916001600160a01b039091169063b9db15b49060240160006040518083038186803b158015611ca457600080fd5b505afa158015611cb8573d6000803e3d6000fd5b505050506040513d6000823e601f3d908101601f19168201604052611ce09190810190614f48565b60fb54815160405163095fea6160e41b81526001600160a01b039182166004820152878216602482015292935016906395fea6109060440160206040518083038186803b158015611d3057600080fd5b505afa158015611d44573d6000803e3d6000fd5b505050506040513d601f19601f82011682018060405250810190611d689190614e1e565b611db45760405162461bcd60e51b815260206004820152601b60248201527f43757272656e6379206973206e6f742061636365707461626c6521000000000060448201526064016109ee565b60fb54815160405163a10a0adf60e01b81526001600160a01b039182166004820152868216602482015291169063a10a0adf9060440160206040518083038186803b158015611e0257600080fd5b505afa158015611e16573d6000803e3d6000fd5b505050506040513d601f19601f82011682018060405250810190611e3a9190614e1e565b611e805760405162461bcd60e51b815260206004820152601760248201527643757272656e6379206973206e6f74206163746976652160481b60448201526064016109ee565b6000805b6099548111611ef557600081815260fd602052604090205485148015611eba5750600081815260ff602081905260409091205416155b8015611ed45750600081815260fe602052604090205460ff165b15611ee35792506108ee915050565b80611eed816155ac565b915050611e84565b50600095945050505050565b336000908152610104602052604090205460ff1615611f625760405162461bcd60e51b815260206004820152601d60248201527f596f752061726520616c726561647920616e20616666696c696174652100000060448201526064016109ee565b6000611f6d836121a2565b6001600160a01b031614611fc35760405162461bcd60e51b815260206004820152601a60248201527f5468697320636f646520697320616c72656164792074616b656e00000000000060448201526064016109ee565b60008160ff16118015611fd9575060648160ff16105b611ff55760405162461bcd60e51b81526004016109ee906153d2565b336101058360405161200791906150d7565b90815260405190819003602001902080546001600160a01b03929092166001600160a01b03199092169190911790558161010660006120433390565b6001600160a01b03166001600160a01b031681526020019081526020016000209080519060200190612076929190614a16565b5033600090815261010460209081526040808320805460ff1990811660011790915561010a909252909120805460ff9093169290911691909117905550565b60006001600160a01b0382166121205760405162461bcd60e51b815260206004820152602a60248201527f4552433732313a2062616c616e636520717565727920666f7220746865207a65604482015269726f206164647265737360b01b60648201526084016109ee565b506001600160a01b031660009081526068602052604090205490565b60c9546001600160a01b031633146121965760405162461bcd60e51b815260206004820181905260248201527f4f776e61626c653a2063616c6c6572206973206e6f7420746865206f776e657260448201526064016109ee565b6121a0600061426d565b565b6000610105826040516121b591906150d7565b908152604051908190036020019020546001600160a01b031692915050565b60405163a9059cbb60e01b8152336004820152602481018390526000906001600160a01b0383169063a9059cbb90604401602060405180830381600087803b15801561221f57600080fd5b505af1158015612233573d6000803e3d6000fd5b505050506040513d601f19601f820116820180604052508101906122579190614e1e565b509192915050565b60606066805461090390615577565b60005b82518110156122be576122ac8484838151811061229e57634e487b7160e01b600052603260045260246000fd5b602002602001015184610fb4565b806122b6816155ac565b915050612271565b50505050565b6122cf3383836142bf565b5050565b3360006122e284848484613e7d565b9050806122be5760405162461bcd60e51b815260206004820152602560248201527f4e6f20617661696c61626c65205072656f726465727320666f756e6420746f2060448201526466756e642160d81b60648201526084016109ee565b600081815260fd602052604081205482919060fb54604051632e76c56d60e21b8152600481018390529192506000916001600160a01b039091169063b9db15b49060240160006040518083038186803b15801561239b57600080fd5b505afa1580156123af573d6000803e3d6000fd5b505050506040513d6000823e601f3d908101601f191682016040526123d79190810190614f48565b90508060c001516124265760405162461bcd60e51b815260206004820152601960248201527850726f64756374206973206e6f742052656465656d61626c6560381b60448201526064016109ee565b83338061243283611580565b6001600160a01b0316146124585760405162461bcd60e51b81526004016109ee906152b4565b61246186613aba565b6124a25760405162461bcd60e51b81526020600482015260126024820152714e465420646f65736e27742065786973742160701b60448201526064016109ee565b600086815260fd602052604081205460fb54604051632e76c56d60e21b8152600481018390529192506000916001600160a01b039091169063b9db15b49060240160006040518083038186803b1580156124fb57600080fd5b505afa15801561250f573d6000803e3d6000fd5b505050506040513d6000823e601f3d908101601f191682016040526125379190810190614f48565b600089815260fe602052604090205490915060ff166125d15760405162461bcd60e51b815260206004820152604a60248201527f54686973204e4654206973206e6f742072656465656d61626c652c206974206d60448201527f6179206861766520616c7265616479206265656e2072656465656d6564206f7260648201526920726566756e6465642160b01b608482015260a4016109ee565b6000888152610100602090815260408083205485845261010d835281842061010b8452828520546001600160a01b0316855290925290912054101561268d5760405162461bcd60e51b815260206004820152604660248201527f5468697320636f6e747261637420646f6573206e6f742068617665206120737560448201527f6666696369656e742062616c616e636520746f20617070726f766520746865206064820152651c185e5bdd5d60d21b608482015260a4016109ee565b600088815260fe60209081526040808320805460ff1916905584835261010f90915281208054600192906126cb9084906001600160401b03166154c8565b82546101009290920a6001600160401b0381810219909316918316021790915582516001600160a01b0381166000908152610113602052604081208054929450600193909261271c918591166154c8565b92506101000a8154816001600160401b0302191690836001600160401b03160217905550600061010960008b8152602001908152602001600020541115612916576000898152610107602081815260408084205461010b8352818520549383528151636eb1769f60e11b81523060048201526001600160a01b039182166024820181905292519295949091169263dd62ed3e92604480840193829003018186803b1580156127c957600080fd5b505afa1580156127dd573d6000803e3d6000fd5b505050506040513d601f19601f820116820180604052508101906128019190615032565b60008c8152610109602052604090205490915061281e90826154b0565b60008c815261010b60205260409081902054905163095ea7b360e01b81526001600160a01b0385811660048301526024820184905292935091169063095ea7b390604401602060405180830381600087803b15801561287c57600080fd5b505af1158015612890573d6000803e3d6000fd5b505050506040513d601f19601f820116820180604052508101906128b49190614e1e565b6129135760405162461bcd60e51b815260206004820152602a60248201527f417070726f76616c20666f7220416666696c6961746520746f207769746864726044820152696177206661696c65642160b01b60648201526084016109ee565b50505b600089815260ff602081905260408220541615612c5d5761297c6040518061012001604052806000815260200160008152602001600081526020016000815260200160008152602001600081526020016000815260200160008152602001600081525090565b60008b815261010c602090815260408083205461010190925291829020549151636eb1769f60e11b81523060048201526001600160a01b03928316602482015291169063dd62ed3e9060440160206040518083038186803b1580156129e057600080fd5b505afa1580156129f4573d6000803e3d6000fd5b505050506040513d601f19601f82011682018060405250810190612a189190615032565b815260008b8152610102602090815260408083205461011990925290912054909250612a44904261551d565b60208201819052612a599062015180906155c7565b60408201819052602082018051612a7190839061551d565b9052506020810151612a879062015180906154ea565b606082015260008b81526101036020526040902054606490612aad9061ffff16846154fe565b612ab791906154ea565b60808201819052612acb9061016d906155c7565b60a08201819052608082018051612ae390839061551d565b9052506080810151612af89061016d906154ea565b60c082018190526060820151612b0d916154fe565b60e08201819052612b1e90836154b0565b60008c815261010860205260409020546101008301819052909250821115612b495780610100015191505b8181600001818151612b5b91906154b0565b90525060008b815261010c602090815260408083205461010190925291829020548351925163095ea7b360e01b81526001600160a01b0391821660048201526024810193909352169063095ea7b390604401602060405180830381600087803b158015612bc757600080fd5b505af1158015612bdb573d6000803e3d6000fd5b505050506040513d601f19601f82011682018060405250810190612bff9190614e1e565b612c5b5760405162461bcd60e51b815260206004820152602760248201527f417070726f76616c20666f722046756e64657220746f207769746864726177206044820152666661696c65642160c81b60648201526084016109ee565b505b60008a81526101086020526040812054612c7890839061551d565b1115612e295760008a815261010b6020526040808220549051636eb1769f60e11b81523060048201526001600160a01b0385811660248301529091169063dd62ed3e9060440160206040518083038186803b158015612cd657600080fd5b505afa158015612cea573d6000803e3d6000fd5b505050506040513d601f19601f82011682018060405250810190612d0e9190615032565b60008c81526101086020526040902054909150612d2c90839061551d565b612d3690826154b0565b60008c815261010b60205260409081902054905163095ea7b360e01b81526001600160a01b0386811660048301526024820184905292935091169063095ea7b390604401602060405180830381600087803b158015612d9457600080fd5b505af1158015612da8573d6000803e3d6000fd5b505050506040513d601f19601f82011682018060405250810190612dcc9190614e1e565b612e275760405162461bcd60e51b815260206004820152602660248201527f417070726f76616c20666f722053746f726520746f207769746864726177206660448201526561696c65642160d01b60648201526084016109ee565b505b50505050505050505050565b6001600160a01b0381166000908152610104602052604090205460609060ff16612eab5760405162461bcd60e51b815260206004820152602160248201527f546869732061646472657373206973206e6f7420616e20416666696c696174656044820152602160f81b60648201526084016109ee565b6001600160a01b0382166000908152610106602052604090208054612ecf90615577565b80601f0160208091040260200160405190810160405280929190818152602001828054612efb90615577565b8015612f485780601f10612f1d57610100808354040283529160200191612f48565b820191906000526020600020905b815481529060010190602001808311612f2b57829003601f168201915b50505050509050919050565b336000908152610104602052604090205460ff16612f845760405162461bcd60e51b81526004016109ee906151fe565b336001600160a01b031661010583604051612f9f91906150d7565b908152604051908190036020019020546001600160a01b03161461302b5760405162461bcd60e51b815260206004820152603d60248201527f596f75206d7573742070726f7669646520796f75722063757272656e7420636f60448201527f64652c20616e6420796f752064657369726564206e657720636f64652100000060648201526084016109ee565b6000613036826121a2565b6001600160a01b03161461308c5760405162461bcd60e51b815260206004820152601a60248201527f5468697320636f646520697320616c72656164792074616b656e00000000000060448201526064016109ee565b60006101058360405161309f91906150d7565b90815260405190819003602001902080546001600160a01b03929092166001600160a01b03199092169190911790556130d53390565b610105826040516130e691906150d7565b90815260405190819003602001902080546001600160a01b03929092166001600160a01b03199092169190911790558061010660006131223390565b6001600160a01b03166001600160a01b031681526020019081526020016000209080519060200190610b24929190614a16565b61315f3383613bd2565b61317b5760405162461bcd60e51b81526004016109ee906152ff565b6122be8484848461438e565b600081801580159061321e575060fb60009054906101000a90046001600160a01b03166001600160a01b03166326fdfcb36040518163ffffffff1660e01b815260040160206040518083038186803b1580156131e257600080fd5b505afa1580156131f6573d6000803e3d6000fd5b505050506040513d601f19601f8201168201806040525081019061321a9190615032565b8111155b61323a5760405162461bcd60e51b81526004016109ee90615350565b5050600090815261010f60205260409020546001600160401b031690565b606061326382613aba565b6132c75760405162461bcd60e51b815260206004820152602f60248201527f4552433732314d657461646174613a2055524920717565727920666f72206e6f60448201526e3732bc34b9ba32b73a103a37b5b2b760891b60648201526084016109ee565b60006132de60408051602081019091526000815290565b905060008151116132fe5760405180602001604052806000815250613329565b80613308846143c1565b6040516020016133199291906150f3565b6040516020818303038152906040525b9392505050565b336000908152610104602052604090205460ff166133605760405162461bcd60e51b81526004016109ee906151fe565b60008160ff16118015613376575060648160ff16105b6133925760405162461bcd60e51b81526004016109ee906153d2565b33600090815261010a60205260409020805460ff191660ff92909216919091179055565b6060600060fb60009054906101000a90046001600160a01b03166001600160a01b0316634bbf7e306040518163ffffffff1660e01b815260040160206040518083038186803b15801561340857600080fd5b505afa15801561341c573d6000803e3d6000fd5b505050506040513d601f19601f820116820180604052508101906134409190615032565b6001600160401b0381111561346557634e487b7160e01b600052604160045260246000fd5b60405190808252806020026020018201604052801561348e578160200160208202803683370190505b50905060005b60fb60009054906101000a90046001600160a01b03166001600160a01b0316634bbf7e306040518163ffffffff1660e01b815260040160206040518083038186803b1580156134e257600080fd5b505afa1580156134f6573d6000803e3d6000fd5b505050506040513d601f19601f8201168201806040525081019061351a9190615032565b8110156136035760fb546040516301a0cc8360e41b8152600481018390526000916001600160a01b031690631a0cc8309060240160206040518083038186803b15801561356657600080fd5b505afa15801561357a573d6000803e3d6000fd5b505050506040513d601f19601f8201168201806040525081019061359e9190614ba9565b600086815261010d602090815260408083206001600160a01b03851684529091529020549091508383815181106135e557634e487b7160e01b600052603260045260246000fd5b602090810291909101015250806135fb816155ac565b915050613494565b5092915050565b60c9546001600160a01b031633146136645760405162461bcd60e51b815260206004820181905260248201527f4f776e61626c653a2063616c6c6572206973206e6f7420746865206f776e657260448201526064016109ee565b6001600160a01b0381166136c95760405162461bcd60e51b815260206004820152602660248201527f4f776e61626c653a206e6577206f776e657220697320746865207a65726f206160448201526564647265737360d01b60648201526084016109ee565b6136d28161426d565b50565b600082801580159061376c575060fb60009054906101000a90046001600160a01b03166001600160a01b03166326fdfcb36040518163ffffffff1660e01b815260040160206040518083038186803b15801561373057600080fd5b505afa158015613744573d6000803e3d6000fd5b505050506040513d601f19601f820116820180604052508101906137689190615032565b8111155b6137885760405162461bcd60e51b81526004016109ee90615350565b6001600160a01b0383166000908152610104602052604090205460ff166137ae57600092505b60fb54604051632ffdba8560e11b8152600481018690526001600160a01b03878116602483015290911690635ffb750a9060440160206040518083038186803b1580156137fa57600080fd5b505afa15801561380e573d6000803e3d6000fd5b505050506040513d601f19601f820116820180604052508101906138329190614e1e565b6138935760405162461bcd60e51b815260206004820152602c60248201527f43757272656e6379206973206e6f742061636365707461626c6520666f72207460448201526b6869732070726f647563742160a01b60648201526084016109ee565b60fb54604051632e76c56d60e21b8152600481018690526000916001600160a01b03169063b9db15b49060240160006040518083038186803b1580156138d857600080fd5b505afa1580156138ec573d6000803e3d6000fd5b505050506040513d6000823e601f3d908101601f191682016040526139149190810190614f48565b60fb54815160405163a10a0adf60e01b81526001600160a01b0391821660048201528982166024820152929350169063a10a0adf9060440160206040518083038186803b15801561396457600080fd5b505afa158015613978573d6000803e3d6000fd5b505050506040513d601f19601f8201168201806040525081019061399c9190614e1e565b6139e25760405162461bcd60e51b815260206004820152601760248201527643757272656e6379206973206e6f74206163746976652160481b60448201526064016109ee565b60408101516001600160a01b03851615613a605760006064836080015160ff1683613a0d91906154fe565b613a1791906154ea565b6001600160a01b038716600090815261010a602052604081205491925090606490613a459060ff16846154fe565b613a4f91906154ea565b9050613a5b818461551d565b925050505b9695505050505050565b60006001600160e01b031982166380ac58cd60e01b1480613a9b57506001600160e01b03198216635b5e139f60e01b145b806108ee57506301ffc9a760e01b6001600160e01b03198316146108ee565b6000908152606760205260409020546001600160a01b0316151590565b600081815260696020526040902080546001600160a01b0319166001600160a01b0384169081179091558190613b0c82611580565b6001600160a01b03167f8c5be1e5ebec7d5bd14f71427d1e84f3dd0314c0f7b2291e5b200ac8c7c3b92560405160405180910390a45050565b60008054610100900460ff1615613b8c578160ff166001148015613b685750303b155b613b845760405162461bcd60e51b81526004016109ee90615266565b506000919050565b60005460ff808416911610613bb35760405162461bcd60e51b81526004016109ee90615266565b506000805460ff191660ff92909216919091179055600190565b919050565b6000613bdd82613aba565b613c3e5760405162461bcd60e51b815260206004820152602c60248201527f4552433732313a206f70657261746f7220717565727920666f72206e6f6e657860448201526b34b9ba32b73a103a37b5b2b760a11b60648201526084016109ee565b6000613c4983611580565b9050806001600160a01b0316846001600160a01b03161480613c9057506001600160a01b038082166000908152606a602090815260408083209388168352929052205460ff165b80613cb45750836001600160a01b0316613ca984610986565b6001600160a01b0316145b949350505050565b826001600160a01b0316613ccf82611580565b6001600160a01b031614613d335760405162461bcd60e51b815260206004820152602560248201527f4552433732313a207472616e736665722066726f6d20696e636f72726563742060448201526437bbb732b960d91b60648201526084016109ee565b6001600160a01b038216613d955760405162461bcd60e51b8152602060048201526024808201527f4552433732313a207472616e7366657220746f20746865207a65726f206164646044820152637265737360e01b60648201526084016109ee565b613da08383836144da565b613dab600082613ad7565b6001600160a01b0383166000908152606860205260408120805460019290613dd490849061551d565b90915550506001600160a01b0382166000908152606860205260408120805460019290613e029084906154b0565b909155505060008181526067602052604080822080546001600160a01b0319166001600160a01b0386811691821790925591518493918716917fddf252ad1be2c89b69c2b068fc378daa952ba7f163c4a11628f55a4df523b3ef91a4505050565b6122cf828260405180602001604052806000815250614592565b60fb54604051632e76c56d60e21b81526004810185905260009182916001600160a01b039091169063b9db15b49060240160006040518083038186803b158015613ec657600080fd5b505afa158015613eda573d6000803e3d6000fd5b505050506040513d6000823e601f3d908101601f19168201604052613f029190810190614f48565b90506000613f108787611c5b565b9050836140405780613f2757600092505050613cb4565b60608201516040516323b872dd60e01b81526001600160a01b0387811660048301523060248301526044820192909252908816906323b872dd90606401602060405180830381600087803b158015613f7e57600080fd5b505af1158015613f92573d6000803e3d6000fd5b505050506040513d601f19601f82011682018060405250810190613fb69190614e1e565b613ff75760405162461bcd60e51b8152602060048201526012602482015271151c985b9cd858dd1a5bdb8819985a5b195960721b60448201526064016109ee565b60608201516000828152610102602090815260408083209390935560a08501516101038252838320805461ffff191661ffff9092169190911790556101199052204290556141d7565b806140de576000848152610117602052604090205460ff166140d357600084815261011760209081526040808320805460ff191660011790558883526101189091528120805491614090836155ac565b909155505060008681526101186020908152604080832054610116909252822090918691906140c060018561551d565b8152602081019190915260400160002055505b600092505050613cb4565b6000848152610102602090815260408083205484845281842055868352610103825280832054848452818420805461ffff191661ffff9092169190911790558683526101198252808320548484528184205586835261011790915290205460ff16156141d75760008681526101186020526040812080549161415f83615560565b909155505060008681526101186020526040812054905b818110156141d457600088815261011660205260408120906141998360016154b0565b815260208082019290925260409081016000908120548b825261011684528282208583529093522055806141cc816155ac565b915050614176565b50505b600090815260ff60209081526040808320805460ff19166001908117909155610101835281842080546001600160a01b03808b166001600160a01b03199283161790925561010c909452919093208054918a1691909216179055915050949350505050565b600054610100900460ff166142635760405162461bcd60e51b81526004016109ee90615387565b6122cf82826145c5565b60c980546001600160a01b038381166001600160a01b0319831681179093556040519116919082907f8be0079c531659141344cd1fd0a4f28419497f9722a3daafe3b4186f6b6457e090600090a35050565b816001600160a01b0316836001600160a01b031614156143215760405162461bcd60e51b815260206004820152601960248201527f4552433732313a20617070726f766520746f2063616c6c65720000000000000060448201526064016109ee565b6001600160a01b038381166000818152606a6020908152604080832094871680845294825291829020805460ff191686151590811790915591519182527f17307eab39ab6107e8899845ad3d59bd9653f200f220920489ca2b5937696c31910160405180910390a3505050565b614399848484613cbc565b6143a584848484614613565b6122be5760405162461bcd60e51b81526004016109ee906151ac565b6060816143e55750506040805180820190915260018152600360fc1b602082015290565b8160005b811561440f57806143f9816155ac565b91506144089050600a836154ea565b91506143e9565b6000816001600160401b0381111561443757634e487b7160e01b600052604160045260246000fd5b6040519080825280601f01601f191660200182016040528015614461576020820181803683370190505b5090505b8415613cb45761447660018361551d565b9150614483600a866155c7565b61448e9060306154b0565b60f81b8183815181106144b157634e487b7160e01b600052603260045260246000fd5b60200101906001600160f81b031916908160001a9053506144d3600a866154ea565b9450614465565b6001600160a01b0383166145355761453081609980546000838152609a60205260408120829055600182018355919091527f72a152ddfb8e864297c917af52ea6c1c68aead0fee1a62673fcc7e0c94979d000155565b614558565b816001600160a01b0316836001600160a01b03161461455857614558838261471d565b6001600160a01b03821661456f57610b24816147ba565b826001600160a01b0316826001600160a01b031614610b2457610b248282614893565b61459c83836148d7565b6145a96000848484614613565b610b245760405162461bcd60e51b81526004016109ee906151ac565b600054610100900460ff166145ec5760405162461bcd60e51b81526004016109ee90615387565b81516145ff906065906020850190614a16565b508051610b24906066906020840190614a16565b60006001600160a01b0384163b1561471557604051630a85bd0160e11b81526001600160a01b0385169063150b7a0290614657903390899088908890600401615122565b602060405180830381600087803b15801561467157600080fd5b505af19250505080156146a1575060408051601f3d908101601f1916820190925261469e91810190614e56565b60015b6146fb573d8080156146cf576040519150601f19603f3d011682016040523d82523d6000602084013e6146d4565b606091505b5080516146f35760405162461bcd60e51b81526004016109ee906151ac565b805181602001fd5b6001600160e01b031916630a85bd0160e11b149050613cb4565b506001613cb4565b6000600161472a846120b5565b614734919061551d565b600083815260986020526040902054909150808214614787576001600160a01b03841660009081526097602090815260408083208584528252808320548484528184208190558352609890915290208190555b5060009182526098602090815260408084208490556001600160a01b039094168352609781528383209183525290812055565b6099546000906147cc9060019061551d565b6000838152609a60205260408120546099805493945090928490811061480257634e487b7160e01b600052603260045260246000fd5b90600052602060002001549050806099838154811061483157634e487b7160e01b600052603260045260246000fd5b6000918252602080832090910192909255828152609a9091526040808220849055858252812055609980548061487757634e487b7160e01b600052603160045260246000fd5b6001900381819060005260206000200160009055905550505050565b600061489e836120b5565b6001600160a01b039093166000908152609760209081526040808320868452825280832085905593825260989052919091209190915550565b6001600160a01b03821661492d5760405162461bcd60e51b815260206004820181905260248201527f4552433732313a206d696e7420746f20746865207a65726f206164647265737360448201526064016109ee565b61493681613aba565b156149835760405162461bcd60e51b815260206004820152601c60248201527f4552433732313a20746f6b656e20616c7265616479206d696e7465640000000060448201526064016109ee565b61498f600083836144da565b6001600160a01b03821660009081526068602052604081208054600192906149b89084906154b0565b909155505060008181526067602052604080822080546001600160a01b0319166001600160a01b03861690811790915590518392907fddf252ad1be2c89b69c2b068fc378daa952ba7f163c4a11628f55a4df523b3ef908290a45050565b828054614a2290615577565b90600052602060002090601f016020900481019282614a445760008555614a8a565b82601f10614a5d57805160ff1916838001178555614a8a565b82800160010185558215614a8a579182015b82811115614a8a578251825591602001919060010190614a6f565b50614a96929150614a9a565b5090565b5b80821115614a965760008155600101614a9b565b6000614ac2614abd84615489565b615459565b9050828152838383011115614ad657600080fd5b828260208301376000602084830101529392505050565b8035613bcd8161561d565b8051613bcd8161561d565b8051613bcd81615632565b600082601f830112614b1e578081fd5b61332983833560208501614aaf565b600082601f830112614b3d578081fd5b8151614b4b614abd82615489565b818152846020838601011115614b5f578283fd5b613cb4826020830160208701615534565b805161ffff81168114613bcd57600080fd5b8051613bcd81615656565b600060208284031215614b9e578081fd5b81356133298161561d565b600060208284031215614bba578081fd5b81516133298161561d565b60008060408385031215614bd7578081fd5b8235614be28161561d565b91506020830135614bf28161561d565b809150509250929050565b600080600060608486031215614c11578081fd5b8335614c1c8161561d565b92506020840135614c2c8161561d565b929592945050506040919091013590565b60008060008060808587031215614c52578081fd5b8435614c5d8161561d565b93506020850135614c6d8161561d565b92506040850135915060608501356001600160401b03811115614c8e578182fd5b8501601f81018713614c9e578182fd5b614cad87823560208401614aaf565b91505092959194509250565b600080600060608486031215614ccd578081fd5b8335614cd88161561d565b92506020848101356001600160401b0380821115614cf4578384fd5b818701915087601f830112614d07578384fd5b813581811115614d1957614d19615607565b8060051b9150614d2a848301615459565b8181528481019084860184860187018c1015614d44578788fd5b8795505b83861015614d66578035835260019590950194918601918601614d48565b50809750505050505050614d7c60408501614aed565b90509250925092565b60008060408385031215614d97578182fd5b8235614da28161561d565b91506020830135614bf281615632565b60008060408385031215614dc4578182fd5b8235614dcf8161561d565b946020939093013593505050565b600080600060608486031215614df1578081fd5b8335614dfc8161561d565b9250602084013591506040840135614e138161561d565b809150509250925092565b600060208284031215614e2f578081fd5b815161332981615632565b600060208284031215614e4b578081fd5b813561332981615640565b600060208284031215614e67578081fd5b815161332981615640565b600060208284031215614e83578081fd5b81356001600160401b03811115614e98578182fd5b613cb484828501614b0e565b60008060408385031215614eb6578182fd5b82356001600160401b0380821115614ecc578384fd5b614ed886838701614b0e565b93506020850135915080821115614eed578283fd5b50614efa85828601614b0e565b9150509250929050565b60008060408385031215614f16578182fd5b82356001600160401b03811115614f2b578283fd5b614f3785828601614b0e565b9250506020830135614bf281615656565b600060208284031215614f59578081fd5b81516001600160401b0380821115614f6f578283fd5b908301906101008286031215614f83578283fd5b614f8b615430565b614f9483614af8565b8152602083015182811115614fa7578485fd5b614fb387828601614b2d565b6020830152506040830151604082015260608301516060820152614fd960808401614b82565b6080820152614fea60a08401614b70565b60a0820152614ffb60c08401614b03565b60c082015261500c60e08401614b03565b60e082015295945050505050565b60006020828403121561502b578081fd5b5035919050565b600060208284031215615043578081fd5b5051919050565b6000806040838503121561505c578182fd5b823591506020830135614bf28161561d565b60008060408385031215615080578182fd5b50508035926020909101359150565b6000602082840312156150a0578081fd5b813561332981615656565b600081518084526150c3816020860160208601615534565b601f01601f19169290920160200192915050565b600082516150e9818460208701615534565b9190910192915050565b60008351615105818460208801615534565b835190830190615119818360208801615534565b01949350505050565b6001600160a01b0385811682528416602082015260408101839052608060608201819052600090613a60908301846150ab565b6020808252825182820181905260009190848201906040850190845b8181101561518d57835183529284019291840191600101615171565b50909695505050505050565b60208152600061332960208301846150ab565b60208082526032908201527f4552433732313a207472616e7366657220746f206e6f6e20455243373231526560408201527131b2b4bb32b91034b6b83632b6b2b73a32b960711b606082015260800190565b60208082526042908201527f596f75206e65656420746f20726567697374657220617320616e20416666696c60408201527f69617465206265666f72652063616c6c696e6720746869732066756e6374696f6060820152616e2160f01b608082015260a00190565b6020808252602e908201527f496e697469616c697a61626c653a20636f6e747261637420697320616c72656160408201526d191e481a5b9a5d1a585b1a5e995960921b606082015260800190565b6020808252602b908201527f4f6e6c7920746865204e46542773206f776e65722063616e2063616c6c20746860408201526a34b990333ab731ba34b7b760a91b606082015260800190565b60208082526031908201527f4552433732313a207472616e736665722063616c6c6572206973206e6f74206f6040820152701ddb995c881b9bdc88185c1c1c9bdd9959607a1b606082015260800190565b60208082526017908201527f50726f6475637420646f6573206e6f7420657869737421000000000000000000604082015260600190565b6020808252602b908201527f496e697469616c697a61626c653a20636f6e7472616374206973206e6f74206960408201526a6e697469616c697a696e6760a81b606082015260800190565b602080825260409082018190527f5468652070657263656e7461676520796f752073686172652077697468206375908201527f746f6d657273206d757374206265206265747765656e203020616e6420313030606082015260800190565b60405161010081016001600160401b038111828210171561545357615453615607565b60405290565b604051601f8201601f191681016001600160401b038111828210171561548157615481615607565b604052919050565b60006001600160401b038211156154a2576154a2615607565b50601f01601f191660200190565b600082198211156154c3576154c36155db565b500190565b60006001600160401b03808316818516808303821115615119576151196155db565b6000826154f9576154f96155f1565b500490565b6000816000190483118215151615615518576155186155db565b500290565b60008282101561552f5761552f6155db565b500390565b60005b8381101561554f578181015183820152602001615537565b838111156122be5750506000910152565b60008161556f5761556f6155db565b506000190190565b600181811c9082168061558b57607f821691505b60208210811415610cfc57634e487b7160e01b600052602260045260246000fd5b60006000198214156155c0576155c06155db565b5060010190565b6000826155d6576155d66155f1565b500690565b634e487b7160e01b600052601160045260246000fd5b634e487b7160e01b600052601260045260246000fd5b634e487b7160e01b600052604160045260246000fd5b6001600160a01b03811681146136d257600080fd5b80151581146136d257600080fd5b6001600160e01b0319811681146136d257600080fd5b60ff811681146136d257600080fdfea264697066735822122065fdfdde6079391f4e838da08438d26eaca41f03ac3795541baa6018a62c7abf64736f6c63430008040033",
  "immutableReferences": {},
  "source": "// contracts/Box.sol\n// SPDX-License-Identifier: MIT\npragma solidity ^0.8.4;\n\nimport \"./PreorderNFT.sol\";\nimport \"./ProductFactory.sol\";\n\n//Note: Any contract that wants to receive a newly minted NFT will need to support safeTransfers. See: \"@openzeppelin/contracts-upgradeable/token/ERC721/ERC721ReceiverUpgradeable.sol\"\n \ncontract PreorderNFTProxy is PreorderNFT {\n\nfunction initialize(address _productAddress, address _currency) initializer public {\n        __PreorderNFT_init(_productAddress, _currency);\n    }\n\n}",
  "sourcePath": "/Users/torbjoranderson/Documents/TorbjorDefi/develpoment/crypto-commerce-hud-1.0/src/truffle/contracts/PreorderNFTProxy.sol",
  "compiler": {
    "name": "solc",
    "version": "0.8.4+commit.c7e474f2.Emscripten.clang"
  },
  "schemaVersion": "3.4.7",
  "updatedAt": "2022-09-21T02:52:08.838Z",
  "devdoc": {
    "kind": "dev",
    "methods": {
      "__PreorderNFT_init_unchained(address,address)": {
        "details": "Initialzes the contract.",
        "params": {
          "_productAddress": "The default currency for which to trade for the item."
        }
      },
      "approve(address,uint256)": {
        "details": "See {IERC721-approve}."
      },
      "balanceOf(address)": {
        "details": "See {IERC721-balanceOf}."
      },
      "checkoutCart(address,uint256[],address)": {
        "details": "Caller gives this contract the amount of currency token required to pay for this product. A new redeemable NFT is then minted for the caller",
        "params": {
          "affiliate": "The affiliate used (address(0) if no affiliate)",
          "currency": "The currency that will be used to buy the NFT.",
          "productIds": "The product the NFT will represent."
        }
      },
      "getApproved(uint256)": {
        "details": "See {IERC721-getApproved}."
      },
      "getProductBalances(uint256)": {
        "details": "Returns an array of amounts. Note that item[i] in the array will corrospond to acceptableCurrencies[i]",
        "params": {
          "_productID": "The Product to get the current balances from."
        }
      },
      "isApprovedForAll(address,address)": {
        "details": "See {IERC721-isApprovedForAll}."
      },
      "name()": {
        "details": "See {IERC721Metadata-name}."
      },
      "owner()": {
        "details": "Returns the address of the current owner."
      },
      "ownerOf(uint256)": {
        "details": "See {IERC721-ownerOf}."
      },
      "purchasePreorder(address,uint256,address)": {
        "details": "Caller gives this contract the amount of currency token required to pay for this product. A new redeemable NFT is then minted for the caller",
        "params": {
          "currency": "The currency that will be used to buy the NFT.",
          "productId": "The product the NFT will represent."
        }
      },
      "redeemPreorder(uint256)": {
        "details": "Redeems the NFT for the product it represents",
        "params": {
          "NFTid": "The NFT to redeem."
        }
      },
      "refundPreorder(uint256)": {
        "details": "Approves the entire balance for a Product in each acceptableCurrency to be withdrawn by msg.sender",
        "params": {
          "NFTid": "The NFT to refund."
        }
      },
      "renounceOwnership()": {
        "details": "Leaves the contract without owner. It will not be possible to call `onlyOwner` functions anymore. Can only be called by the current owner. NOTE: Renouncing ownership will leave the contract without an owner, thereby removing any functionality that is only available to the owner."
      },
      "safeTransferFrom(address,address,uint256)": {
        "details": "See {IERC721-safeTransferFrom}."
      },
      "safeTransferFrom(address,address,uint256,bytes)": {
        "details": "See {IERC721-safeTransferFrom}."
      },
      "setApprovalForAll(address,bool)": {
        "details": "See {IERC721-setApprovalForAll}."
      },
      "supportsInterface(bytes4)": {
        "details": "See {IERC165-supportsInterface}."
      },
      "symbol()": {
        "details": "See {IERC721Metadata-symbol}."
      },
      "tokenByIndex(uint256)": {
        "details": "See {IERC721Enumerable-tokenByIndex}."
      },
      "tokenOfOwnerByIndex(address,uint256)": {
        "details": "See {IERC721Enumerable-tokenOfOwnerByIndex}."
      },
      "tokenURI(uint256)": {
        "details": "See {IERC721Metadata-tokenURI}."
      },
      "totalSupply()": {
        "details": "See {IERC721Enumerable-totalSupply}."
      },
      "transferFrom(address,address,uint256)": {
        "details": "See {IERC721-transferFrom}."
      },
      "transferOwnership(address)": {
        "details": "Transfers ownership of the contract to a new account (`newOwner`). Can only be called by the current owner."
      },
      "withdrawSpecificCurrencyBalance(uint256,address)": {
        "details": "Approves the entire balance for a Product in each acceptableCurrency to be withdrawn by msg.sender",
        "params": {
          "amount": "The amount to approve.",
          "currency": "The currency to withdraw the balance of."
        }
      }
    },
    "version": 1
  },
  "userdoc": {
    "kind": "user",
    "methods": {},
    "version": 1
  }
}