{
  "contractName": "PreorderNFT",
  "abi": [
    {
      "anonymous": false,
      "inputs": [
        {
          "indexed": true,
          "internalType": "address",
          "name": "owner",
          "type": "address"
        },
        {
          "indexed": true,
          "internalType": "address",
          "name": "approved",
          "type": "address"
        },
        {
          "indexed": true,
          "internalType": "uint256",
          "name": "tokenId",
          "type": "uint256"
        }
      ],
      "name": "Approval",
      "type": "event"
    },
    {
      "anonymous": false,
      "inputs": [
        {
          "indexed": true,
          "internalType": "address",
          "name": "owner",
          "type": "address"
        },
        {
          "indexed": true,
          "internalType": "address",
          "name": "operator",
          "type": "address"
        },
        {
          "indexed": false,
          "internalType": "bool",
          "name": "approved",
          "type": "bool"
        }
      ],
      "name": "ApprovalForAll",
      "type": "event"
    },
    {
      "anonymous": false,
      "inputs": [
        {
          "indexed": false,
          "internalType": "uint8",
          "name": "version",
          "type": "uint8"
        }
      ],
      "name": "Initialized",
      "type": "event"
    },
    {
      "anonymous": false,
      "inputs": [
        {
          "indexed": true,
          "internalType": "address",
          "name": "previousOwner",
          "type": "address"
        },
        {
          "indexed": true,
          "internalType": "address",
          "name": "newOwner",
          "type": "address"
        }
      ],
      "name": "OwnershipTransferred",
      "type": "event"
    },
    {
      "anonymous": false,
      "inputs": [
        {
          "indexed": true,
          "internalType": "address",
          "name": "from",
          "type": "address"
        },
        {
          "indexed": true,
          "internalType": "address",
          "name": "to",
          "type": "address"
        },
        {
          "indexed": true,
          "internalType": "uint256",
          "name": "tokenId",
          "type": "uint256"
        }
      ],
      "name": "Transfer",
      "type": "event"
    },
    {
      "inputs": [
        {
          "internalType": "uint256",
          "name": "",
          "type": "uint256"
        }
      ],
      "name": "NFTPricePaid",
      "outputs": [
        {
          "internalType": "uint256",
          "name": "",
          "type": "uint256"
        }
      ],
      "stateMutability": "view",
      "type": "function"
    },
    {
      "inputs": [
        {
          "internalType": "uint256",
          "name": "",
          "type": "uint256"
        }
      ],
      "name": "NFTfunder",
      "outputs": [
        {
          "internalType": "address",
          "name": "",
          "type": "address"
        }
      ],
      "stateMutability": "view",
      "type": "function"
    },
    {
      "inputs": [
        {
          "internalType": "address",
          "name": "to",
          "type": "address"
        },
        {
          "internalType": "uint256",
          "name": "tokenId",
          "type": "uint256"
        }
      ],
      "name": "approve",
      "outputs": [],
      "stateMutability": "nonpayable",
      "type": "function"
    },
    {
      "inputs": [
        {
          "internalType": "address",
          "name": "owner",
          "type": "address"
        }
      ],
      "name": "balanceOf",
      "outputs": [
        {
          "internalType": "uint256",
          "name": "",
          "type": "uint256"
        }
      ],
      "stateMutability": "view",
      "type": "function"
    },
    {
      "inputs": [
        {
          "internalType": "uint256",
          "name": "tokenId",
          "type": "uint256"
        }
      ],
      "name": "getApproved",
      "outputs": [
        {
          "internalType": "address",
          "name": "",
          "type": "address"
        }
      ],
      "stateMutability": "view",
      "type": "function"
    },
    {
      "inputs": [
        {
          "internalType": "address",
          "name": "owner",
          "type": "address"
        },
        {
          "internalType": "address",
          "name": "operator",
          "type": "address"
        }
      ],
      "name": "isApprovedForAll",
      "outputs": [
        {
          "internalType": "bool",
          "name": "",
          "type": "bool"
        }
      ],
      "stateMutability": "view",
      "type": "function"
    },
    {
      "inputs": [
        {
          "internalType": "uint256",
          "name": "",
          "type": "uint256"
        }
      ],
      "name": "isNFTFunded",
      "outputs": [
        {
          "internalType": "bool",
          "name": "",
          "type": "bool"
        }
      ],
      "stateMutability": "view",
      "type": "function"
    },
    {
      "inputs": [
        {
          "internalType": "uint256",
          "name": "",
          "type": "uint256"
        }
      ],
      "name": "isNFTUseable",
      "outputs": [
        {
          "internalType": "bool",
          "name": "",
          "type": "bool"
        }
      ],
      "stateMutability": "view",
      "type": "function"
    },
    {
      "inputs": [],
      "name": "name",
      "outputs": [
        {
          "internalType": "string",
          "name": "",
          "type": "string"
        }
      ],
      "stateMutability": "view",
      "type": "function"
    },
    {
      "inputs": [],
      "name": "owner",
      "outputs": [
        {
          "internalType": "address",
          "name": "",
          "type": "address"
        }
      ],
      "stateMutability": "view",
      "type": "function"
    },
    {
      "inputs": [
        {
          "internalType": "uint256",
          "name": "tokenId",
          "type": "uint256"
        }
      ],
      "name": "ownerOf",
      "outputs": [
        {
          "internalType": "address",
          "name": "",
          "type": "address"
        }
      ],
      "stateMutability": "view",
      "type": "function"
    },
    {
      "inputs": [
        {
          "internalType": "uint256",
          "name": "",
          "type": "uint256"
        },
        {
          "internalType": "address",
          "name": "",
          "type": "address"
        }
      ],
      "name": "productBalances",
      "outputs": [
        {
          "internalType": "uint256",
          "name": "",
          "type": "uint256"
        }
      ],
      "stateMutability": "view",
      "type": "function"
    },
    {
      "inputs": [],
      "name": "renounceOwnership",
      "outputs": [],
      "stateMutability": "nonpayable",
      "type": "function"
    },
    {
      "inputs": [
        {
          "internalType": "address",
          "name": "from",
          "type": "address"
        },
        {
          "internalType": "address",
          "name": "to",
          "type": "address"
        },
        {
          "internalType": "uint256",
          "name": "tokenId",
          "type": "uint256"
        }
      ],
      "name": "safeTransferFrom",
      "outputs": [],
      "stateMutability": "nonpayable",
      "type": "function"
    },
    {
      "inputs": [
        {
          "internalType": "address",
          "name": "from",
          "type": "address"
        },
        {
          "internalType": "address",
          "name": "to",
          "type": "address"
        },
        {
          "internalType": "uint256",
          "name": "tokenId",
          "type": "uint256"
        },
        {
          "internalType": "bytes",
          "name": "_data",
          "type": "bytes"
        }
      ],
      "name": "safeTransferFrom",
      "outputs": [],
      "stateMutability": "nonpayable",
      "type": "function"
    },
    {
      "inputs": [
        {
          "internalType": "address",
          "name": "operator",
          "type": "address"
        },
        {
          "internalType": "bool",
          "name": "approved",
          "type": "bool"
        }
      ],
      "name": "setApprovalForAll",
      "outputs": [],
      "stateMutability": "nonpayable",
      "type": "function"
    },
    {
      "inputs": [
        {
          "internalType": "bytes4",
          "name": "interfaceId",
          "type": "bytes4"
        }
      ],
      "name": "supportsInterface",
      "outputs": [
        {
          "internalType": "bool",
          "name": "",
          "type": "bool"
        }
      ],
      "stateMutability": "view",
      "type": "function"
    },
    {
      "inputs": [],
      "name": "symbol",
      "outputs": [
        {
          "internalType": "string",
          "name": "",
          "type": "string"
        }
      ],
      "stateMutability": "view",
      "type": "function"
    },
    {
      "inputs": [
        {
          "internalType": "uint256",
          "name": "index",
          "type": "uint256"
        }
      ],
      "name": "tokenByIndex",
      "outputs": [
        {
          "internalType": "uint256",
          "name": "",
          "type": "uint256"
        }
      ],
      "stateMutability": "view",
      "type": "function"
    },
    {
      "inputs": [
        {
          "internalType": "address",
          "name": "owner",
          "type": "address"
        },
        {
          "internalType": "uint256",
          "name": "index",
          "type": "uint256"
        }
      ],
      "name": "tokenOfOwnerByIndex",
      "outputs": [
        {
          "internalType": "uint256",
          "name": "",
          "type": "uint256"
        }
      ],
      "stateMutability": "view",
      "type": "function"
    },
    {
      "inputs": [
        {
          "internalType": "uint256",
          "name": "tokenId",
          "type": "uint256"
        }
      ],
      "name": "tokenURI",
      "outputs": [
        {
          "internalType": "string",
          "name": "",
          "type": "string"
        }
      ],
      "stateMutability": "view",
      "type": "function"
    },
    {
      "inputs": [],
      "name": "totalSupply",
      "outputs": [
        {
          "internalType": "uint256",
          "name": "",
          "type": "uint256"
        }
      ],
      "stateMutability": "view",
      "type": "function"
    },
    {
      "inputs": [
        {
          "internalType": "address",
          "name": "from",
          "type": "address"
        },
        {
          "internalType": "address",
          "name": "to",
          "type": "address"
        },
        {
          "internalType": "uint256",
          "name": "tokenId",
          "type": "uint256"
        }
      ],
      "name": "transferFrom",
      "outputs": [],
      "stateMutability": "nonpayable",
      "type": "function"
    },
    {
      "inputs": [
        {
          "internalType": "address",
          "name": "newOwner",
          "type": "address"
        }
      ],
      "name": "transferOwnership",
      "outputs": [],
      "stateMutability": "nonpayable",
      "type": "function"
    },
    {
      "inputs": [
        {
          "internalType": "address",
          "name": "_productAddress",
          "type": "address"
        },
        {
          "internalType": "address",
          "name": "_currency",
          "type": "address"
        }
      ],
      "name": "__PreorderNFT_init",
      "outputs": [],
      "stateMutability": "nonpayable",
      "type": "function"
    },
    {
      "inputs": [
        {
          "internalType": "address",
          "name": "_productAddress",
          "type": "address"
        },
        {
          "internalType": "address",
          "name": "_currency",
          "type": "address"
        }
      ],
      "name": "__PreorderNFT_init_unchained",
      "outputs": [],
      "stateMutability": "nonpayable",
      "type": "function"
    },
    {
      "inputs": [
        {
          "internalType": "address",
          "name": "currency",
          "type": "address"
        },
        {
          "internalType": "uint256",
          "name": "productId",
          "type": "uint256"
        },
        {
          "internalType": "address",
          "name": "affiliate",
          "type": "address"
        }
      ],
      "name": "getQuote",
      "outputs": [
        {
          "internalType": "uint256",
          "name": "",
          "type": "uint256"
        }
      ],
      "stateMutability": "view",
      "type": "function"
    },
    {
      "inputs": [
        {
          "internalType": "address",
          "name": "currency",
          "type": "address"
        },
        {
          "internalType": "uint256[]",
          "name": "productIds",
          "type": "uint256[]"
        },
        {
          "internalType": "address",
          "name": "affiliate",
          "type": "address"
        }
      ],
      "name": "quoteCart",
      "outputs": [
        {
          "internalType": "uint256",
          "name": "",
          "type": "uint256"
        }
      ],
      "stateMutability": "view",
      "type": "function"
    },
    {
      "inputs": [
        {
          "internalType": "address",
          "name": "currency",
          "type": "address"
        },
        {
          "internalType": "uint256",
          "name": "productId",
          "type": "uint256"
        },
        {
          "internalType": "address",
          "name": "affiliate",
          "type": "address"
        }
      ],
      "name": "purchasePreorder",
      "outputs": [],
      "stateMutability": "nonpayable",
      "type": "function"
    },
    {
      "inputs": [
        {
          "internalType": "address",
          "name": "currency",
          "type": "address"
        },
        {
          "internalType": "uint256[]",
          "name": "productIds",
          "type": "uint256[]"
        },
        {
          "internalType": "address",
          "name": "affiliate",
          "type": "address"
        }
      ],
      "name": "checkoutCart",
      "outputs": [],
      "stateMutability": "nonpayable",
      "type": "function"
    },
    {
      "inputs": [
        {
          "internalType": "uint256",
          "name": "NFTid",
          "type": "uint256"
        }
      ],
      "name": "redeemPreorder",
      "outputs": [],
      "stateMutability": "nonpayable",
      "type": "function"
    },
    {
      "inputs": [
        {
          "internalType": "uint256",
          "name": "NFTid",
          "type": "uint256"
        }
      ],
      "name": "refundPreorder",
      "outputs": [],
      "stateMutability": "nonpayable",
      "type": "function"
    },
    {
      "inputs": [
        {
          "internalType": "address",
          "name": "currency",
          "type": "address"
        },
        {
          "internalType": "uint256",
          "name": "productId",
          "type": "uint256"
        }
      ],
      "name": "getUnfundedNFT",
      "outputs": [
        {
          "internalType": "uint256",
          "name": "",
          "type": "uint256"
        }
      ],
      "stateMutability": "view",
      "type": "function"
    },
    {
      "inputs": [
        {
          "internalType": "address",
          "name": "currency",
          "type": "address"
        },
        {
          "internalType": "uint256",
          "name": "productId",
          "type": "uint256"
        }
      ],
      "name": "fundPreorder",
      "outputs": [],
      "stateMutability": "nonpayable",
      "type": "function"
    },
    {
      "inputs": [
        {
          "internalType": "uint256",
          "name": "amount",
          "type": "uint256"
        },
        {
          "internalType": "address",
          "name": "currency",
          "type": "address"
        }
      ],
      "name": "withdrawSpecificCurrencyBalance",
      "outputs": [
        {
          "internalType": "uint256",
          "name": "",
          "type": "uint256"
        }
      ],
      "stateMutability": "nonpayable",
      "type": "function"
    },
    {
      "inputs": [
        {
          "internalType": "string",
          "name": "affiliateCode",
          "type": "string"
        },
        {
          "internalType": "uint8",
          "name": "percentage",
          "type": "uint8"
        }
      ],
      "name": "affiliateRegistration",
      "outputs": [],
      "stateMutability": "nonpayable",
      "type": "function"
    },
    {
      "inputs": [
        {
          "internalType": "address",
          "name": "affiliate",
          "type": "address"
        }
      ],
      "name": "getAffiliateCode",
      "outputs": [
        {
          "internalType": "string",
          "name": "",
          "type": "string"
        }
      ],
      "stateMutability": "view",
      "type": "function"
    },
    {
      "inputs": [
        {
          "internalType": "string",
          "name": "affiliateCode",
          "type": "string"
        }
      ],
      "name": "getAffiliateByCode",
      "outputs": [
        {
          "internalType": "address",
          "name": "",
          "type": "address"
        }
      ],
      "stateMutability": "view",
      "type": "function"
    },
    {
      "inputs": [
        {
          "internalType": "address",
          "name": "affiliate",
          "type": "address"
        }
      ],
      "name": "getAffiliateSharedPercentage",
      "outputs": [
        {
          "internalType": "uint8",
          "name": "",
          "type": "uint8"
        }
      ],
      "stateMutability": "view",
      "type": "function"
    },
    {
      "inputs": [
        {
          "internalType": "string",
          "name": "oldCode",
          "type": "string"
        },
        {
          "internalType": "string",
          "name": "newCode",
          "type": "string"
        }
      ],
      "name": "changeAffiliateCode",
      "outputs": [],
      "stateMutability": "nonpayable",
      "type": "function"
    },
    {
      "inputs": [
        {
          "internalType": "uint8",
          "name": "percentage",
          "type": "uint8"
        }
      ],
      "name": "changeAffiliateSharedPercentage",
      "outputs": [],
      "stateMutability": "nonpayable",
      "type": "function"
    },
    {
      "inputs": [
        {
          "internalType": "uint256",
          "name": "NFTid",
          "type": "uint256"
        }
      ],
      "name": "getProductByNFT",
      "outputs": [
        {
          "internalType": "uint256",
          "name": "",
          "type": "uint256"
        }
      ],
      "stateMutability": "view",
      "type": "function"
    },
    {
      "inputs": [
        {
          "internalType": "uint256",
          "name": "NFTid",
          "type": "uint256"
        }
      ],
      "name": "getNFTaffiliate",
      "outputs": [
        {
          "internalType": "address",
          "name": "",
          "type": "address"
        }
      ],
      "stateMutability": "view",
      "type": "function"
    },
    {
      "inputs": [
        {
          "internalType": "uint256",
          "name": "NFTid",
          "type": "uint256"
        }
      ],
      "name": "getNFTaffiliateAmountDue",
      "outputs": [
        {
          "internalType": "uint256",
          "name": "",
          "type": "uint256"
        }
      ],
      "stateMutability": "view",
      "type": "function"
    },
    {
      "inputs": [
        {
          "internalType": "uint256",
          "name": "NFTid",
          "type": "uint256"
        }
      ],
      "name": "getNFTstoreAmountDue",
      "outputs": [
        {
          "internalType": "uint256",
          "name": "",
          "type": "uint256"
        }
      ],
      "stateMutability": "view",
      "type": "function"
    },
    {
      "inputs": [
        {
          "internalType": "uint256",
          "name": "productID",
          "type": "uint256"
        }
      ],
      "name": "getUnitsSold",
      "outputs": [
        {
          "internalType": "uint64",
          "name": "",
          "type": "uint64"
        }
      ],
      "stateMutability": "view",
      "type": "function"
    },
    {
      "inputs": [
        {
          "internalType": "uint256",
          "name": "productID",
          "type": "uint256"
        }
      ],
      "name": "getUnitsRedeemed",
      "outputs": [
        {
          "internalType": "uint64",
          "name": "",
          "type": "uint64"
        }
      ],
      "stateMutability": "view",
      "type": "function"
    },
    {
      "inputs": [
        {
          "internalType": "uint256",
          "name": "productID",
          "type": "uint256"
        }
      ],
      "name": "getUnitsRefunded",
      "outputs": [
        {
          "internalType": "uint64",
          "name": "",
          "type": "uint64"
        }
      ],
      "stateMutability": "view",
      "type": "function"
    },
    {
      "inputs": [
        {
          "internalType": "uint256",
          "name": "productID",
          "type": "uint256"
        }
      ],
      "name": "getUnitsReceived",
      "outputs": [
        {
          "internalType": "uint64",
          "name": "",
          "type": "uint64"
        }
      ],
      "stateMutability": "view",
      "type": "function"
    },
    {
      "inputs": [
        {
          "internalType": "uint256",
          "name": "productID",
          "type": "uint256"
        },
        {
          "internalType": "address",
          "name": "currency",
          "type": "address"
        }
      ],
      "name": "getProductCurrencyBalance",
      "outputs": [
        {
          "internalType": "uint256",
          "name": "",
          "type": "uint256"
        }
      ],
      "stateMutability": "view",
      "type": "function"
    },
    {
      "inputs": [
        {
          "internalType": "uint256",
          "name": "productID",
          "type": "uint256"
        }
      ],
      "name": "getOrphanedFundersCount",
      "outputs": [
        {
          "internalType": "uint256",
          "name": "",
          "type": "uint256"
        }
      ],
      "stateMutability": "view",
      "type": "function"
    },
    {
      "inputs": [
        {
          "internalType": "uint256",
          "name": "productID",
          "type": "uint256"
        },
        {
          "internalType": "uint256",
          "name": "index",
          "type": "uint256"
        }
      ],
      "name": "getOrphanedFunderNFTidByIndex",
      "outputs": [
        {
          "internalType": "uint256",
          "name": "",
          "type": "uint256"
        }
      ],
      "stateMutability": "view",
      "type": "function"
    },
    {
      "inputs": [
        {
          "internalType": "uint256",
          "name": "_productID",
          "type": "uint256"
        }
      ],
      "name": "getProductBalances",
      "outputs": [
        {
          "internalType": "uint256[]",
          "name": "",
          "type": "uint256[]"
        }
      ],
      "stateMutability": "view",
      "type": "function"
    }
  ],
  "bytecode": "0x608060405234801561001057600080fd5b5061563f80620000216000396000f3fe608060405234801561001057600080fd5b50600436106103275760003560e01c806370a08231116101b8578063a8e6dc9011610104578063e94392ce116100a2578063f28d2c221161007c578063f28d2c221461082b578063f2fde38b1461084b578063f64dd29f1461085e578063fc9c76731461087157600080fd5b8063e94392ce146107aa578063e985e9c5146107ce578063eb19da0d1461080a57600080fd5b8063c1f828ae116100de578063c1f828ae14610751578063c87b56dd14610764578063dd79d66314610777578063e0fd58c91461078a57600080fd5b8063a8e6dc9014610718578063b16dde5d1461072b578063b88d4fde1461073e57600080fd5b806395d89b41116101715780639e8762551161014b5780639e876255146106be578063a22cb465146106df578063a4a4391a146106f2578063a6bc534a1461070557600080fd5b806395d89b411461067757806396c8c8241461067f5780639af7521b1461069257600080fd5b806370a0823114610604578063715018a6146106175780637e8368d01461061f5780637eea6cae14610632578063868ef340146106455780638da5cb5b1461066657600080fd5b80632f745c59116102775780634f6ccce7116102305780636352211e1161020a5780636352211e146105b857806365e7b4e9146105cb5780636ea4bee2146105de5780636f238851146105f157600080fd5b80634f6ccce71461056f5780635beb7c1f146105825780635f438d2f146105a557600080fd5b80632f745c59146104e6578063323d8678146104f957806342842e0e1461050c5780634abf5de71461051f5780634aff4698146105495780634b3818331461055c57600080fd5b8063137941cb116102e45780631ebee254116102be5780631ebee2541461045b57806322573ea21461048657806323b872dd146104b25780632d278548146104c557600080fd5b8063137941cb14610409578063139d78771461044057806318160ddd1461045357600080fd5b806301ffc9a71461032c578063030e9be21461035457806306fdde0314610393578063081812fc146103a8578063095ea7b3146103d35780630ab6d673146103e8575b600080fd5b61033f61033a366004614dde565b61089b565b60405190151581526020015b60405180910390f35b610381610362366004614b31565b6001600160a01b0316600090815261010a602052604090205460ff1690565b60405160ff909116815260200161034b565b61039b6108c6565b60405161034b919061513d565b6103bb6103b6366004614fbe565b610958565b6040516001600160a01b03909116815260200161034b565b6103e66103e1366004614d56565b6109e5565b005b6103fb6103f6366004614c5d565b610afb565b60405190815260200161034b565b6103fb610417366004614fee565b600091825261010d602090815260408084206001600160a01b0393909316845291905290205490565b6103e661044e366004614b69565b610b87565b6099546103fb565b61046e610469366004614fbe565b610bff565b6040516001600160401b03909116815260200161034b565b6103fb610494366004614fee565b61010d60209081526000928352604080842090915290825290205481565b6103e66104c0366004614ba1565b610cd4565b6103fb6104d3366004614fbe565b6101006020526000908152604090205481565b6103fb6104f4366004614d56565b610d05565b61046e610507366004614fbe565b610d9b565b6103e661051a366004614ba1565b610e6c565b6103bb61052d366004614fbe565b600090815261010760205260409020546001600160a01b031690565b61046e610557366004614fbe565b610e87565b6103e661056a366004614d81565b610f58565b6103fb61057d366004614fbe565b6113ed565b61033f610590366004614fbe565b60fe6020526000908152604090205460ff1681565b6103e66105b3366004614b69565b61148e565b6103bb6105c6366004614fbe565b611524565b6103e66105d9366004614fbe565b61159b565b6103fb6105ec366004614d56565b611bff565b6103e66105ff366004614ea8565b611ea5565b6103fb610612366004614b31565b612059565b6103e66120e0565b6103bb61062d366004614e16565b612146565b6103fb610640366004614fee565b612178565b6103fb610653366004614fbe565b6000908152610118602052604090205490565b60c9546001600160a01b03166103bb565b61039b612203565b6103e661068d366004614c5d565b612212565b6103fb6106a0366004615012565b60009182526101166020908152604080842092845291905290205490565b6103fb6106cc366004614fbe565b6000908152610108602052604090205490565b6103e66106ed366004614d29565b612268565b6103e6610700366004614d56565b612277565b6103e6610713366004614fbe565b6122e3565b61039b610726366004614b31565b612dd9565b6103e6610739366004614e48565b612ef8565b6103e661074c366004614be1565b6130f9565b61046e61075f366004614fbe565b61312b565b61039b610772366004614fbe565b6131fc565b6103e6610785366004615033565b6132d4565b61079d610798366004614fbe565b61335a565b60405161034b91906150f9565b61033f6107b8366004614fbe565b60ff602081905260009182526040909120541681565b61033f6107dc366004614b69565b6001600160a01b039182166000908152606a6020908152604080832093909416825291909152205460ff1690565b6103fb610818366004614fbe565b6000908152610109602052604090205490565b6103fb610839366004614fbe565b600090815260fd602052604090205490565b6103e6610859366004614b31565b6135ae565b6103fb61086c366004614d81565b613679565b6103bb61087f366004614fbe565b610101602052600090815260409020546001600160a01b031681565b60006001600160e01b0319821663780e9d6360e01b14806108c057506108c082613a0e565b92915050565b6060606580546108d59061551b565b80601f01602080910402602001604051908101604052809291908181526020018280546109019061551b565b801561094e5780601f106109235761010080835404028352916020019161094e565b820191906000526020600020905b81548152906001019060200180831161093157829003601f168201915b5050505050905090565b600061096382613a5e565b6109c95760405162461bcd60e51b815260206004820152602c60248201527f4552433732313a20617070726f76656420717565727920666f72206e6f6e657860448201526b34b9ba32b73a103a37b5b2b760a11b60648201526084015b60405180910390fd5b506000908152606960205260409020546001600160a01b031690565b60006109f082611524565b9050806001600160a01b0316836001600160a01b03161415610a5e5760405162461bcd60e51b815260206004820152602160248201527f4552433732313a20617070726f76616c20746f2063757272656e74206f776e656044820152603960f91b60648201526084016109c0565b336001600160a01b0382161480610a7a5750610a7a81336107dc565b610aec5760405162461bcd60e51b815260206004820152603860248201527f4552433732313a20617070726f76652063616c6c6572206973206e6f74206f7760448201527f6e6572206e6f7220617070726f76656420666f7220616c6c000000000000000060648201526084016109c0565b610af68383613a7b565b505050565b6001600160a01b0381166000908152610104602052604081205460ff16610b2157600091505b6000805b8451811015610b7e57610b6086868381518110610b5257634e487b7160e01b600052603260045260246000fd5b602002602001015186613679565b610b6a9083615454565b915080610b7681615550565b915050610b25565b50949350505050565b6000610b936001613ae9565b90508015610bab576000805461ff0019166101001790555b610bb5838361148e565b8015610af6576000805461ff0019169055604051600181527f7f26b83ff96e1f2b6a682f133852f6798a09c465da95921460cefb38474024989060200160405180910390a1505050565b6000818015801590610c96575060fb60009054906101000a90046001600160a01b03166001600160a01b03166326fdfcb36040518163ffffffff1660e01b815260040160206040518083038186803b158015610c5a57600080fd5b505afa158015610c6e573d6000803e3d6000fd5b505050506040513d601f19601f82011682018060405250810190610c929190614fd6565b8111155b610cb25760405162461bcd60e51b81526004016109c0906152f4565b600083815261011060205260409020546001600160401b031691505b50919050565b610cde3382613b76565b610cfa5760405162461bcd60e51b81526004016109c0906152a3565b610af6838383613c60565b6000610d1083612059565b8210610d725760405162461bcd60e51b815260206004820152602b60248201527f455243373231456e756d657261626c653a206f776e657220696e646578206f7560448201526a74206f6620626f756e647360a81b60648201526084016109c0565b506001600160a01b03919091166000908152609760209081526040808320938352929052205490565b6000818015801590610e32575060fb60009054906101000a90046001600160a01b03166001600160a01b03166326fdfcb36040518163ffffffff1660e01b815260040160206040518083038186803b158015610df657600080fd5b505afa158015610e0a573d6000803e3d6000fd5b505050506040513d601f19601f82011682018060405250810190610e2e9190614fd6565b8111155b610e4e5760405162461bcd60e51b81526004016109c0906152f4565b5050600090815261010e60205260409020546001600160401b031690565b610af6838383604051806020016040528060008152506130f9565b6000818015801590610f1e575060fb60009054906101000a90046001600160a01b03166001600160a01b03166326fdfcb36040518163ffffffff1660e01b815260040160206040518083038186803b158015610ee257600080fd5b505afa158015610ef6573d6000803e3d6000fd5b505050506040513d601f19601f82011682018060405250810190610f1a9190614fd6565b8111155b610f3a5760405162461bcd60e51b81526004016109c0906152f4565b5050600090815261011160205260409020546001600160401b031690565b6001600160a01b03811660009081526101046020526040902054339060ff16610f8057600091505b6000610f8d858585613679565b60fb54604051632e76c56d60e21b8152600481018790529192506000916001600160a01b039091169063b9db15b49060240160006040518083038186803b158015610fd757600080fd5b505afa158015610feb573d6000803e3d6000fd5b505050506040513d6000823e601f3d908101601f191682016040526110139190810190614eec565b90508060e0015161105f5760405162461bcd60e51b815260206004820152601660248201527550726f64756374206973206e6f742062757961626c6560501b60448201526064016109c0565b6040516323b872dd60e01b81526001600160a01b038481166004830152306024830152604482018490528716906323b872dd90606401602060405180830381600087803b1580156110af57600080fd5b505af11580156110c3573d6000803e3d6000fd5b505050506040513d601f19601f820116820180604052508101906110e79190614dc2565b6111285760405162461bcd60e51b8152602060048201526012602482015271151c985b9cd858dd1a5bdb8819985a5b195960721b60448201526064016109c0565b600085815261010d602090815260408083206001600160a01b038a1684529091528120805484929061115b908490615454565b9091555050609954600090611171906001615454565b600081815261010b6020908152604080832080546001600160a01b0319166001600160a01b038d16179055610100825280832087905560fd82528083208a905560fe8252808320805460ff19908116600190811790925560ff8452828520805490911690558a845261010e9092528220805493945090929091906111ff9084906001600160401b031661546c565b82546101009290920a6001600160401b0381810219909316918316021790915583516001600160a01b0316600090815261011260205260408120805460019450909261124d9185911661546c565b92506101000a8154816001600160401b0302191690836001600160401b0316021790555060006001600160a01b0316856001600160a01b031614611353576000818152610107602052604080822080546001600160a01b0319166001600160a01b0389161790556080840151908401516064916112cf9160ff909116906154a2565b6112d9919061548e565b6001600160a01b038716600090815261010a60205260409020549091506064906113069060ff16836154a2565b611310919061548e565b61131a90826154c1565b60008381526101096020526040908190209190915583015161133d9082906154c1565b6000838152610108602052604090205550611366565b6000818152610108602052604090208390555b6113708482613e07565b60008681526101186020526040902054156113d15760008681526101166020908152604080832083805282528083205480845261010c8352818420546101019093529220546113ce916001600160a01b03908116918a911684613e21565b50505b8160c00151156113e4576113e4816122e3565b50505050505050565b60006113f860995490565b821061145b5760405162461bcd60e51b815260206004820152602c60248201527f455243373231456e756d657261626c653a20676c6f62616c20696e646578206f60448201526b7574206f6620626f756e647360a01b60648201526084016109c0565b6099828154811061147c57634e487b7160e01b600052603260045260246000fd5b90600052602060002001549050919050565b600061149a6001613ae9565b905080156114b2576000805461ff0019166101001790555b60fb80546001600160a01b038086166001600160a01b03199283161790925560fc8054928516929091169190911790556040805180820182526008815267283932a7b93232b960c11b6020808301919091528251808401909352600383526250524560e81b90830152610bb5916141e0565b6000818152606760205260408120546001600160a01b0316806108c05760405162461bcd60e51b815260206004820152602960248201527f4552433732313a206f776e657220717565727920666f72206e6f6e657869737460448201526832b73a103a37b5b2b760b91b60648201526084016109c0565b600081815260fd602052604081205482919060fb54604051632e76c56d60e21b8152600481018390529192506000916001600160a01b039091169063b9db15b49060240160006040518083038186803b1580156115f757600080fd5b505afa15801561160b573d6000803e3d6000fd5b505050506040513d6000823e601f3d908101601f191682016040526116339190810190614eec565b90508060c001516116825760405162461bcd60e51b815260206004820152601960248201527850726f64756374206973206e6f742052656465656d61626c6560381b60448201526064016109c0565b83338061168e83611524565b6001600160a01b0316146116b45760405162461bcd60e51b81526004016109c090615258565b6116bd86613a5e565b6116fe5760405162461bcd60e51b81526020600482015260126024820152714e465420646f65736e27742065786973742160701b60448201526064016109c0565b600086815260fe602052604090205460ff166117955760405162461bcd60e51b815260206004820152604a60248201527f54686973204e4654206973206e6f7420726566756e6461626c652c206974206d60448201527f6179206861766520616c7265616479206265656e20726566756e646564206f726064820152692072656465656d65642160b01b608482015260a4016109c0565b600086815260fd602052604081205460fb54604051632e76c56d60e21b8152600481018390529192506000916001600160a01b039091169063b9db15b49060240160006040518083038186803b1580156117ee57600080fd5b505afa158015611802573d6000803e3d6000fd5b505050506040513d6000823e601f3d908101601f1916820160405261182a9190810190614eec565b60fb54604051631a4fc34360e31b8152600481018590529192506001600160a01b03169063d27e1a189060240160206040518083038186803b15801561186f57600080fd5b505afa158015611883573d6000803e3d6000fd5b505050506040513d601f19601f820116820180604052508101906118a79190614dc2565b6118ff5760405162461bcd60e51b815260206004820152602360248201527f546869732070726f64756374206973206e6f7420726566756e6461626c65207960448201526265742160e81b60648201526084016109c0565b600088815261010b60209081526040808320546101009092529182902054915163095ea7b360e01b815233600482015260248101929092526001600160a01b03169063095ea7b390604401602060405180830381600087803b15801561196457600080fd5b505af1158015611978573d6000803e3d6000fd5b505050506040513d601f19601f8201168201806040525081019061199c9190614dc2565b6119f75760405162461bcd60e51b815260206004820152602660248201527f417070726f76616c20666f7220667574757265207769746864726177616c206660448201526561696c65642160d01b60648201526084016109c0565b600088815261010b60209081526040808320546101009092529182902054915163a9059cbb60e01b815233600482015260248101929092526001600160a01b03169063a9059cbb90604401602060405180830381600087803b158015611a5c57600080fd5b505af1158015611a70573d6000803e3d6000fd5b505050506040513d601f19601f82011682018060405250810190611a949190614dc2565b611ae05760405162461bcd60e51b815260206004820152601760248201527f526566756e64207472616e73666572206661696c65642100000000000000000060448201526064016109c0565b600088815260fe60209081526040808320805460ff191690558483526101109091528120805460019290611b1e9084906001600160401b031661546c565b82546101009290920a6001600160401b0381810219909316918316021790915582516001600160a01b03166000908152610114602052604081208054600194509092611b6c9185911661546c565b82546001600160401b039182166101009390930a928302919092021990911617905550600088815260ff60208190526040909120541615611bf557600088815261010c602090815260408083205461010190925290912054611bdd916001600160a01b03908116918591168b613e21565b50600088815260ff60205260409020805460ff191690555b5050505050505050565b60fb54604051632e76c56d60e21b81526004810183905260009182916001600160a01b039091169063b9db15b49060240160006040518083038186803b158015611c4857600080fd5b505afa158015611c5c573d6000803e3d6000fd5b505050506040513d6000823e601f3d908101601f19168201604052611c849190810190614eec565b60fb54815160405163095fea6160e41b81526001600160a01b039182166004820152878216602482015292935016906395fea6109060440160206040518083038186803b158015611cd457600080fd5b505afa158015611ce8573d6000803e3d6000fd5b505050506040513d601f19601f82011682018060405250810190611d0c9190614dc2565b611d585760405162461bcd60e51b815260206004820152601b60248201527f43757272656e6379206973206e6f742061636365707461626c6521000000000060448201526064016109c0565b60fb54815160405163a10a0adf60e01b81526001600160a01b039182166004820152868216602482015291169063a10a0adf9060440160206040518083038186803b158015611da657600080fd5b505afa158015611dba573d6000803e3d6000fd5b505050506040513d601f19601f82011682018060405250810190611dde9190614dc2565b611e245760405162461bcd60e51b815260206004820152601760248201527643757272656e6379206973206e6f74206163746976652160481b60448201526064016109c0565b6000805b6099548111611e9957600081815260fd602052604090205485148015611e5e5750600081815260ff602081905260409091205416155b8015611e785750600081815260fe602052604090205460ff165b15611e875792506108c0915050565b80611e9181615550565b915050611e28565b50600095945050505050565b336000908152610104602052604090205460ff1615611f065760405162461bcd60e51b815260206004820152601d60248201527f596f752061726520616c726561647920616e20616666696c696174652100000060448201526064016109c0565b6000611f1183612146565b6001600160a01b031614611f675760405162461bcd60e51b815260206004820152601a60248201527f5468697320636f646520697320616c72656164792074616b656e00000000000060448201526064016109c0565b60008160ff16118015611f7d575060648160ff16105b611f995760405162461bcd60e51b81526004016109c090615376565b3361010583604051611fab919061507b565b90815260405190819003602001902080546001600160a01b03929092166001600160a01b0319909216919091179055816101066000611fe73390565b6001600160a01b03166001600160a01b03168152602001908152602001600020908051906020019061201a9291906149ba565b5033600090815261010460209081526040808320805460ff1990811660011790915561010a909252909120805460ff9093169290911691909117905550565b60006001600160a01b0382166120c45760405162461bcd60e51b815260206004820152602a60248201527f4552433732313a2062616c616e636520717565727920666f7220746865207a65604482015269726f206164647265737360b01b60648201526084016109c0565b506001600160a01b031660009081526068602052604090205490565b60c9546001600160a01b0316331461213a5760405162461bcd60e51b815260206004820181905260248201527f4f776e61626c653a2063616c6c6572206973206e6f7420746865206f776e657260448201526064016109c0565b6121446000614211565b565b600061010582604051612159919061507b565b908152604051908190036020019020546001600160a01b031692915050565b60405163a9059cbb60e01b8152336004820152602481018390526000906001600160a01b0383169063a9059cbb90604401602060405180830381600087803b1580156121c357600080fd5b505af11580156121d7573d6000803e3d6000fd5b505050506040513d601f19601f820116820180604052508101906121fb9190614dc2565b509192915050565b6060606680546108d59061551b565b60005b8251811015612262576122508484838151811061224257634e487b7160e01b600052603260045260246000fd5b602002602001015184610f58565b8061225a81615550565b915050612215565b50505050565b612273338383614263565b5050565b33600061228684848484613e21565b9050806122625760405162461bcd60e51b815260206004820152602560248201527f4e6f20617661696c61626c65205072656f726465727320666f756e6420746f2060448201526466756e642160d81b60648201526084016109c0565b600081815260fd602052604081205482919060fb54604051632e76c56d60e21b8152600481018390529192506000916001600160a01b039091169063b9db15b49060240160006040518083038186803b15801561233f57600080fd5b505afa158015612353573d6000803e3d6000fd5b505050506040513d6000823e601f3d908101601f1916820160405261237b9190810190614eec565b90508060c001516123ca5760405162461bcd60e51b815260206004820152601960248201527850726f64756374206973206e6f742052656465656d61626c6560381b60448201526064016109c0565b8333806123d683611524565b6001600160a01b0316146123fc5760405162461bcd60e51b81526004016109c090615258565b61240586613a5e565b6124465760405162461bcd60e51b81526020600482015260126024820152714e465420646f65736e27742065786973742160701b60448201526064016109c0565b600086815260fd602052604081205460fb54604051632e76c56d60e21b8152600481018390529192506000916001600160a01b039091169063b9db15b49060240160006040518083038186803b15801561249f57600080fd5b505afa1580156124b3573d6000803e3d6000fd5b505050506040513d6000823e601f3d908101601f191682016040526124db9190810190614eec565b600089815260fe602052604090205490915060ff166125755760405162461bcd60e51b815260206004820152604a60248201527f54686973204e4654206973206e6f742072656465656d61626c652c206974206d60448201527f6179206861766520616c7265616479206265656e2072656465656d6564206f7260648201526920726566756e6465642160b01b608482015260a4016109c0565b6000888152610100602090815260408083205485845261010d835281842061010b8452828520546001600160a01b031685529092529091205410156126315760405162461bcd60e51b815260206004820152604660248201527f5468697320636f6e747261637420646f6573206e6f742068617665206120737560448201527f6666696369656e742062616c616e636520746f20617070726f766520746865206064820152651c185e5bdd5d60d21b608482015260a4016109c0565b600088815260fe60209081526040808320805460ff1916905584835261010f909152812080546001929061266f9084906001600160401b031661546c565b82546101009290920a6001600160401b0381810219909316918316021790915582516001600160a01b038116600090815261011360205260408120805492945060019390926126c09185911661546c565b92506101000a8154816001600160401b0302191690836001600160401b03160217905550600061010960008b81526020019081526020016000205411156128ba576000898152610107602081815260408084205461010b8352818520549383528151636eb1769f60e11b81523060048201526001600160a01b039182166024820181905292519295949091169263dd62ed3e92604480840193829003018186803b15801561276d57600080fd5b505afa158015612781573d6000803e3d6000fd5b505050506040513d601f19601f820116820180604052508101906127a59190614fd6565b60008c815261010960205260409020549091506127c29082615454565b60008c815261010b60205260409081902054905163095ea7b360e01b81526001600160a01b0385811660048301526024820184905292935091169063095ea7b390604401602060405180830381600087803b15801561282057600080fd5b505af1158015612834573d6000803e3d6000fd5b505050506040513d601f19601f820116820180604052508101906128589190614dc2565b6128b75760405162461bcd60e51b815260206004820152602a60248201527f417070726f76616c20666f7220416666696c6961746520746f207769746864726044820152696177206661696c65642160b01b60648201526084016109c0565b50505b600089815260ff602081905260408220541615612c01576129206040518061012001604052806000815260200160008152602001600081526020016000815260200160008152602001600081526020016000815260200160008152602001600081525090565b60008b815261010c602090815260408083205461010190925291829020549151636eb1769f60e11b81523060048201526001600160a01b03928316602482015291169063dd62ed3e9060440160206040518083038186803b15801561298457600080fd5b505afa158015612998573d6000803e3d6000fd5b505050506040513d601f19601f820116820180604052508101906129bc9190614fd6565b815260008b81526101026020908152604080832054610119909252909120549092506129e890426154c1565b602082018190526129fd90620151809061556b565b60408201819052602082018051612a159083906154c1565b9052506020810151612a2b90620151809061548e565b606082015260008b81526101036020526040902054606490612a519061ffff16846154a2565b612a5b919061548e565b60808201819052612a6f9061016d9061556b565b60a08201819052608082018051612a879083906154c1565b9052506080810151612a9c9061016d9061548e565b60c082018190526060820151612ab1916154a2565b60e08201819052612ac29083615454565b60008c815261010860205260409020546101008301819052909250821115612aed5780610100015191505b8181600001818151612aff9190615454565b90525060008b815261010c602090815260408083205461010190925291829020548351925163095ea7b360e01b81526001600160a01b0391821660048201526024810193909352169063095ea7b390604401602060405180830381600087803b158015612b6b57600080fd5b505af1158015612b7f573d6000803e3d6000fd5b505050506040513d601f19601f82011682018060405250810190612ba39190614dc2565b612bff5760405162461bcd60e51b815260206004820152602760248201527f417070726f76616c20666f722046756e64657220746f207769746864726177206044820152666661696c65642160c81b60648201526084016109c0565b505b60008a81526101086020526040812054612c1c9083906154c1565b1115612dcd5760008a815261010b6020526040808220549051636eb1769f60e11b81523060048201526001600160a01b0385811660248301529091169063dd62ed3e9060440160206040518083038186803b158015612c7a57600080fd5b505afa158015612c8e573d6000803e3d6000fd5b505050506040513d601f19601f82011682018060405250810190612cb29190614fd6565b60008c81526101086020526040902054909150612cd09083906154c1565b612cda9082615454565b60008c815261010b60205260409081902054905163095ea7b360e01b81526001600160a01b0386811660048301526024820184905292935091169063095ea7b390604401602060405180830381600087803b158015612d3857600080fd5b505af1158015612d4c573d6000803e3d6000fd5b505050506040513d601f19601f82011682018060405250810190612d709190614dc2565b612dcb5760405162461bcd60e51b815260206004820152602660248201527f417070726f76616c20666f722053746f726520746f207769746864726177206660448201526561696c65642160d01b60648201526084016109c0565b505b50505050505050505050565b6001600160a01b0381166000908152610104602052604090205460609060ff16612e4f5760405162461bcd60e51b815260206004820152602160248201527f546869732061646472657373206973206e6f7420616e20416666696c696174656044820152602160f81b60648201526084016109c0565b6001600160a01b0382166000908152610106602052604090208054612e739061551b565b80601f0160208091040260200160405190810160405280929190818152602001828054612e9f9061551b565b8015612eec5780601f10612ec157610100808354040283529160200191612eec565b820191906000526020600020905b815481529060010190602001808311612ecf57829003601f168201915b50505050509050919050565b336000908152610104602052604090205460ff16612f285760405162461bcd60e51b81526004016109c0906151a2565b336001600160a01b031661010583604051612f43919061507b565b908152604051908190036020019020546001600160a01b031614612fcf5760405162461bcd60e51b815260206004820152603d60248201527f596f75206d7573742070726f7669646520796f75722063757272656e7420636f60448201527f64652c20616e6420796f752064657369726564206e657720636f64652100000060648201526084016109c0565b6000612fda82612146565b6001600160a01b0316146130305760405162461bcd60e51b815260206004820152601a60248201527f5468697320636f646520697320616c72656164792074616b656e00000000000060448201526064016109c0565b600061010583604051613043919061507b565b90815260405190819003602001902080546001600160a01b03929092166001600160a01b03199092169190911790556130793390565b6101058260405161308a919061507b565b90815260405190819003602001902080546001600160a01b03929092166001600160a01b03199092169190911790558061010660006130c63390565b6001600160a01b03166001600160a01b031681526020019081526020016000209080519060200190610af69291906149ba565b6131033383613b76565b61311f5760405162461bcd60e51b81526004016109c0906152a3565b61226284848484614332565b60008180158015906131c2575060fb60009054906101000a90046001600160a01b03166001600160a01b03166326fdfcb36040518163ffffffff1660e01b815260040160206040518083038186803b15801561318657600080fd5b505afa15801561319a573d6000803e3d6000fd5b505050506040513d601f19601f820116820180604052508101906131be9190614fd6565b8111155b6131de5760405162461bcd60e51b81526004016109c0906152f4565b5050600090815261010f60205260409020546001600160401b031690565b606061320782613a5e565b61326b5760405162461bcd60e51b815260206004820152602f60248201527f4552433732314d657461646174613a2055524920717565727920666f72206e6f60448201526e3732bc34b9ba32b73a103a37b5b2b760891b60648201526084016109c0565b600061328260408051602081019091526000815290565b905060008151116132a257604051806020016040528060008152506132cd565b806132ac84614365565b6040516020016132bd929190615097565b6040516020818303038152906040525b9392505050565b336000908152610104602052604090205460ff166133045760405162461bcd60e51b81526004016109c0906151a2565b60008160ff1611801561331a575060648160ff16105b6133365760405162461bcd60e51b81526004016109c090615376565b33600090815261010a60205260409020805460ff191660ff92909216919091179055565b6060600060fb60009054906101000a90046001600160a01b03166001600160a01b0316634bbf7e306040518163ffffffff1660e01b815260040160206040518083038186803b1580156133ac57600080fd5b505afa1580156133c0573d6000803e3d6000fd5b505050506040513d601f19601f820116820180604052508101906133e49190614fd6565b6001600160401b0381111561340957634e487b7160e01b600052604160045260246000fd5b604051908082528060200260200182016040528015613432578160200160208202803683370190505b50905060005b60fb60009054906101000a90046001600160a01b03166001600160a01b0316634bbf7e306040518163ffffffff1660e01b815260040160206040518083038186803b15801561348657600080fd5b505afa15801561349a573d6000803e3d6000fd5b505050506040513d601f19601f820116820180604052508101906134be9190614fd6565b8110156135a75760fb546040516301a0cc8360e41b8152600481018390526000916001600160a01b031690631a0cc8309060240160206040518083038186803b15801561350a57600080fd5b505afa15801561351e573d6000803e3d6000fd5b505050506040513d601f19601f820116820180604052508101906135429190614b4d565b600086815261010d602090815260408083206001600160a01b038516845290915290205490915083838151811061358957634e487b7160e01b600052603260045260246000fd5b6020908102919091010152508061359f81615550565b915050613438565b5092915050565b60c9546001600160a01b031633146136085760405162461bcd60e51b815260206004820181905260248201527f4f776e61626c653a2063616c6c6572206973206e6f7420746865206f776e657260448201526064016109c0565b6001600160a01b03811661366d5760405162461bcd60e51b815260206004820152602660248201527f4f776e61626c653a206e6577206f776e657220697320746865207a65726f206160448201526564647265737360d01b60648201526084016109c0565b61367681614211565b50565b6000828015801590613710575060fb60009054906101000a90046001600160a01b03166001600160a01b03166326fdfcb36040518163ffffffff1660e01b815260040160206040518083038186803b1580156136d457600080fd5b505afa1580156136e8573d6000803e3d6000fd5b505050506040513d601f19601f8201168201806040525081019061370c9190614fd6565b8111155b61372c5760405162461bcd60e51b81526004016109c0906152f4565b6001600160a01b0383166000908152610104602052604090205460ff1661375257600092505b60fb54604051632ffdba8560e11b8152600481018690526001600160a01b03878116602483015290911690635ffb750a9060440160206040518083038186803b15801561379e57600080fd5b505afa1580156137b2573d6000803e3d6000fd5b505050506040513d601f19601f820116820180604052508101906137d69190614dc2565b6138375760405162461bcd60e51b815260206004820152602c60248201527f43757272656e6379206973206e6f742061636365707461626c6520666f72207460448201526b6869732070726f647563742160a01b60648201526084016109c0565b60fb54604051632e76c56d60e21b8152600481018690526000916001600160a01b03169063b9db15b49060240160006040518083038186803b15801561387c57600080fd5b505afa158015613890573d6000803e3d6000fd5b505050506040513d6000823e601f3d908101601f191682016040526138b89190810190614eec565b60fb54815160405163a10a0adf60e01b81526001600160a01b0391821660048201528982166024820152929350169063a10a0adf9060440160206040518083038186803b15801561390857600080fd5b505afa15801561391c573d6000803e3d6000fd5b505050506040513d601f19601f820116820180604052508101906139409190614dc2565b6139865760405162461bcd60e51b815260206004820152601760248201527643757272656e6379206973206e6f74206163746976652160481b60448201526064016109c0565b60408101516001600160a01b03851615613a045760006064836080015160ff16836139b191906154a2565b6139bb919061548e565b6001600160a01b038716600090815261010a6020526040812054919250906064906139e99060ff16846154a2565b6139f3919061548e565b90506139ff81846154c1565b925050505b9695505050505050565b60006001600160e01b031982166380ac58cd60e01b1480613a3f57506001600160e01b03198216635b5e139f60e01b145b806108c057506301ffc9a760e01b6001600160e01b03198316146108c0565b6000908152606760205260409020546001600160a01b0316151590565b600081815260696020526040902080546001600160a01b0319166001600160a01b0384169081179091558190613ab082611524565b6001600160a01b03167f8c5be1e5ebec7d5bd14f71427d1e84f3dd0314c0f7b2291e5b200ac8c7c3b92560405160405180910390a45050565b60008054610100900460ff1615613b30578160ff166001148015613b0c5750303b155b613b285760405162461bcd60e51b81526004016109c09061520a565b506000919050565b60005460ff808416911610613b575760405162461bcd60e51b81526004016109c09061520a565b506000805460ff191660ff92909216919091179055600190565b919050565b6000613b8182613a5e565b613be25760405162461bcd60e51b815260206004820152602c60248201527f4552433732313a206f70657261746f7220717565727920666f72206e6f6e657860448201526b34b9ba32b73a103a37b5b2b760a11b60648201526084016109c0565b6000613bed83611524565b9050806001600160a01b0316846001600160a01b03161480613c3457506001600160a01b038082166000908152606a602090815260408083209388168352929052205460ff165b80613c585750836001600160a01b0316613c4d84610958565b6001600160a01b0316145b949350505050565b826001600160a01b0316613c7382611524565b6001600160a01b031614613cd75760405162461bcd60e51b815260206004820152602560248201527f4552433732313a207472616e736665722066726f6d20696e636f72726563742060448201526437bbb732b960d91b60648201526084016109c0565b6001600160a01b038216613d395760405162461bcd60e51b8152602060048201526024808201527f4552433732313a207472616e7366657220746f20746865207a65726f206164646044820152637265737360e01b60648201526084016109c0565b613d4483838361447e565b613d4f600082613a7b565b6001600160a01b0383166000908152606860205260408120805460019290613d789084906154c1565b90915550506001600160a01b0382166000908152606860205260408120805460019290613da6908490615454565b909155505060008181526067602052604080822080546001600160a01b0319166001600160a01b0386811691821790925591518493918716917fddf252ad1be2c89b69c2b068fc378daa952ba7f163c4a11628f55a4df523b3ef91a4505050565b612273828260405180602001604052806000815250614536565b60fb54604051632e76c56d60e21b81526004810185905260009182916001600160a01b039091169063b9db15b49060240160006040518083038186803b158015613e6a57600080fd5b505afa158015613e7e573d6000803e3d6000fd5b505050506040513d6000823e601f3d908101601f19168201604052613ea69190810190614eec565b90506000613eb48787611bff565b905083613fe45780613ecb57600092505050613c58565b60608201516040516323b872dd60e01b81526001600160a01b0387811660048301523060248301526044820192909252908816906323b872dd90606401602060405180830381600087803b158015613f2257600080fd5b505af1158015613f36573d6000803e3d6000fd5b505050506040513d601f19601f82011682018060405250810190613f5a9190614dc2565b613f9b5760405162461bcd60e51b8152602060048201526012602482015271151c985b9cd858dd1a5bdb8819985a5b195960721b60448201526064016109c0565b60608201516000828152610102602090815260408083209390935560a08501516101038252838320805461ffff191661ffff90921691909117905561011990522042905561417b565b80614082576000848152610117602052604090205460ff1661407757600084815261011760209081526040808320805460ff19166001179055888352610118909152812080549161403483615550565b909155505060008681526101186020908152604080832054610116909252822090918691906140646001856154c1565b8152602081019190915260400160002055505b600092505050613c58565b6000848152610102602090815260408083205484845281842055868352610103825280832054848452818420805461ffff191661ffff9092169190911790558683526101198252808320548484528184205586835261011790915290205460ff161561417b5760008681526101186020526040812080549161410383615504565b909155505060008681526101186020526040812054905b81811015614178576000888152610116602052604081209061413d836001615454565b815260208082019290925260409081016000908120548b8252610116845282822085835290935220558061417081615550565b91505061411a565b50505b600090815260ff60209081526040808320805460ff19166001908117909155610101835281842080546001600160a01b03808b166001600160a01b03199283161790925561010c909452919093208054918a1691909216179055915050949350505050565b600054610100900460ff166142075760405162461bcd60e51b81526004016109c09061532b565b6122738282614569565b60c980546001600160a01b038381166001600160a01b0319831681179093556040519116919082907f8be0079c531659141344cd1fd0a4f28419497f9722a3daafe3b4186f6b6457e090600090a35050565b816001600160a01b0316836001600160a01b031614156142c55760405162461bcd60e51b815260206004820152601960248201527f4552433732313a20617070726f766520746f2063616c6c65720000000000000060448201526064016109c0565b6001600160a01b038381166000818152606a6020908152604080832094871680845294825291829020805460ff191686151590811790915591519182527f17307eab39ab6107e8899845ad3d59bd9653f200f220920489ca2b5937696c31910160405180910390a3505050565b61433d848484613c60565b614349848484846145b7565b6122625760405162461bcd60e51b81526004016109c090615150565b6060816143895750506040805180820190915260018152600360fc1b602082015290565b8160005b81156143b3578061439d81615550565b91506143ac9050600a8361548e565b915061438d565b6000816001600160401b038111156143db57634e487b7160e01b600052604160045260246000fd5b6040519080825280601f01601f191660200182016040528015614405576020820181803683370190505b5090505b8415613c585761441a6001836154c1565b9150614427600a8661556b565b614432906030615454565b60f81b81838151811061445557634e487b7160e01b600052603260045260246000fd5b60200101906001600160f81b031916908160001a905350614477600a8661548e565b9450614409565b6001600160a01b0383166144d9576144d481609980546000838152609a60205260408120829055600182018355919091527f72a152ddfb8e864297c917af52ea6c1c68aead0fee1a62673fcc7e0c94979d000155565b6144fc565b816001600160a01b0316836001600160a01b0316146144fc576144fc83826146c1565b6001600160a01b03821661451357610af68161475e565b826001600160a01b0316826001600160a01b031614610af657610af68282614837565b614540838361487b565b61454d60008484846145b7565b610af65760405162461bcd60e51b81526004016109c090615150565b600054610100900460ff166145905760405162461bcd60e51b81526004016109c09061532b565b81516145a39060659060208501906149ba565b508051610af69060669060208401906149ba565b60006001600160a01b0384163b156146b957604051630a85bd0160e11b81526001600160a01b0385169063150b7a02906145fb9033908990889088906004016150c6565b602060405180830381600087803b15801561461557600080fd5b505af1925050508015614645575060408051601f3d908101601f1916820190925261464291810190614dfa565b60015b61469f573d808015614673576040519150601f19603f3d011682016040523d82523d6000602084013e614678565b606091505b5080516146975760405162461bcd60e51b81526004016109c090615150565b805181602001fd5b6001600160e01b031916630a85bd0160e11b149050613c58565b506001613c58565b600060016146ce84612059565b6146d891906154c1565b60008381526098602052604090205490915080821461472b576001600160a01b03841660009081526097602090815260408083208584528252808320548484528184208190558352609890915290208190555b5060009182526098602090815260408084208490556001600160a01b039094168352609781528383209183525290812055565b609954600090614770906001906154c1565b6000838152609a6020526040812054609980549394509092849081106147a657634e487b7160e01b600052603260045260246000fd5b9060005260206000200154905080609983815481106147d557634e487b7160e01b600052603260045260246000fd5b6000918252602080832090910192909255828152609a9091526040808220849055858252812055609980548061481b57634e487b7160e01b600052603160045260246000fd5b6001900381819060005260206000200160009055905550505050565b600061484283612059565b6001600160a01b039093166000908152609760209081526040808320868452825280832085905593825260989052919091209190915550565b6001600160a01b0382166148d15760405162461bcd60e51b815260206004820181905260248201527f4552433732313a206d696e7420746f20746865207a65726f206164647265737360448201526064016109c0565b6148da81613a5e565b156149275760405162461bcd60e51b815260206004820152601c60248201527f4552433732313a20746f6b656e20616c7265616479206d696e7465640000000060448201526064016109c0565b6149336000838361447e565b6001600160a01b038216600090815260686020526040812080546001929061495c908490615454565b909155505060008181526067602052604080822080546001600160a01b0319166001600160a01b03861690811790915590518392907fddf252ad1be2c89b69c2b068fc378daa952ba7f163c4a11628f55a4df523b3ef908290a45050565b8280546149c69061551b565b90600052602060002090601f0160209004810192826149e85760008555614a2e565b82601f10614a0157805160ff1916838001178555614a2e565b82800160010185558215614a2e579182015b82811115614a2e578251825591602001919060010190614a13565b50614a3a929150614a3e565b5090565b5b80821115614a3a5760008155600101614a3f565b6000614a66614a618461542d565b6153fd565b9050828152838383011115614a7a57600080fd5b828260208301376000602084830101529392505050565b8035613b71816155c1565b8051613b71816155c1565b8051613b71816155d6565b600082601f830112614ac2578081fd5b6132cd83833560208501614a53565b600082601f830112614ae1578081fd5b8151614aef614a618261542d565b818152846020838601011115614b03578283fd5b613c588260208301602087016154d8565b805161ffff81168114613b7157600080fd5b8051613b71816155fa565b600060208284031215614b42578081fd5b81356132cd816155c1565b600060208284031215614b5e578081fd5b81516132cd816155c1565b60008060408385031215614b7b578081fd5b8235614b86816155c1565b91506020830135614b96816155c1565b809150509250929050565b600080600060608486031215614bb5578081fd5b8335614bc0816155c1565b92506020840135614bd0816155c1565b929592945050506040919091013590565b60008060008060808587031215614bf6578081fd5b8435614c01816155c1565b93506020850135614c11816155c1565b92506040850135915060608501356001600160401b03811115614c32578182fd5b8501601f81018713614c42578182fd5b614c5187823560208401614a53565b91505092959194509250565b600080600060608486031215614c71578081fd5b8335614c7c816155c1565b92506020848101356001600160401b0380821115614c98578384fd5b818701915087601f830112614cab578384fd5b813581811115614cbd57614cbd6155ab565b8060051b9150614cce8483016153fd565b8181528481019084860184860187018c1015614ce8578788fd5b8795505b83861015614d0a578035835260019590950194918601918601614cec565b50809750505050505050614d2060408501614a91565b90509250925092565b60008060408385031215614d3b578182fd5b8235614d46816155c1565b91506020830135614b96816155d6565b60008060408385031215614d68578182fd5b8235614d73816155c1565b946020939093013593505050565b600080600060608486031215614d95578081fd5b8335614da0816155c1565b9250602084013591506040840135614db7816155c1565b809150509250925092565b600060208284031215614dd3578081fd5b81516132cd816155d6565b600060208284031215614def578081fd5b81356132cd816155e4565b600060208284031215614e0b578081fd5b81516132cd816155e4565b600060208284031215614e27578081fd5b81356001600160401b03811115614e3c578182fd5b613c5884828501614ab2565b60008060408385031215614e5a578182fd5b82356001600160401b0380821115614e70578384fd5b614e7c86838701614ab2565b93506020850135915080821115614e91578283fd5b50614e9e85828601614ab2565b9150509250929050565b60008060408385031215614eba578182fd5b82356001600160401b03811115614ecf578283fd5b614edb85828601614ab2565b9250506020830135614b96816155fa565b600060208284031215614efd578081fd5b81516001600160401b0380821115614f13578283fd5b908301906101008286031215614f27578283fd5b614f2f6153d4565b614f3883614a9c565b8152602083015182811115614f4b578485fd5b614f5787828601614ad1565b6020830152506040830151604082015260608301516060820152614f7d60808401614b26565b6080820152614f8e60a08401614b14565b60a0820152614f9f60c08401614aa7565b60c0820152614fb060e08401614aa7565b60e082015295945050505050565b600060208284031215614fcf578081fd5b5035919050565b600060208284031215614fe7578081fd5b5051919050565b60008060408385031215615000578182fd5b823591506020830135614b96816155c1565b60008060408385031215615024578182fd5b50508035926020909101359150565b600060208284031215615044578081fd5b81356132cd816155fa565b600081518084526150678160208601602086016154d8565b601f01601f19169290920160200192915050565b6000825161508d8184602087016154d8565b9190910192915050565b600083516150a98184602088016154d8565b8351908301906150bd8183602088016154d8565b01949350505050565b6001600160a01b0385811682528416602082015260408101839052608060608201819052600090613a049083018461504f565b6020808252825182820181905260009190848201906040850190845b8181101561513157835183529284019291840191600101615115565b50909695505050505050565b6020815260006132cd602083018461504f565b60208082526032908201527f4552433732313a207472616e7366657220746f206e6f6e20455243373231526560408201527131b2b4bb32b91034b6b83632b6b2b73a32b960711b606082015260800190565b60208082526042908201527f596f75206e65656420746f20726567697374657220617320616e20416666696c60408201527f69617465206265666f72652063616c6c696e6720746869732066756e6374696f6060820152616e2160f01b608082015260a00190565b6020808252602e908201527f496e697469616c697a61626c653a20636f6e747261637420697320616c72656160408201526d191e481a5b9a5d1a585b1a5e995960921b606082015260800190565b6020808252602b908201527f4f6e6c7920746865204e46542773206f776e65722063616e2063616c6c20746860408201526a34b990333ab731ba34b7b760a91b606082015260800190565b60208082526031908201527f4552433732313a207472616e736665722063616c6c6572206973206e6f74206f6040820152701ddb995c881b9bdc88185c1c1c9bdd9959607a1b606082015260800190565b60208082526017908201527f50726f6475637420646f6573206e6f7420657869737421000000000000000000604082015260600190565b6020808252602b908201527f496e697469616c697a61626c653a20636f6e7472616374206973206e6f74206960408201526a6e697469616c697a696e6760a81b606082015260800190565b602080825260409082018190527f5468652070657263656e7461676520796f752073686172652077697468206375908201527f746f6d657273206d757374206265206265747765656e203020616e6420313030606082015260800190565b60405161010081016001600160401b03811182821017156153f7576153f76155ab565b60405290565b604051601f8201601f191681016001600160401b0381118282101715615425576154256155ab565b604052919050565b60006001600160401b03821115615446576154466155ab565b50601f01601f191660200190565b600082198211156154675761546761557f565b500190565b60006001600160401b038083168185168083038211156150bd576150bd61557f565b60008261549d5761549d615595565b500490565b60008160001904831182151516156154bc576154bc61557f565b500290565b6000828210156154d3576154d361557f565b500390565b60005b838110156154f35781810151838201526020016154db565b838111156122625750506000910152565b6000816155135761551361557f565b506000190190565b600181811c9082168061552f57607f821691505b60208210811415610cce57634e487b7160e01b600052602260045260246000fd5b60006000198214156155645761556461557f565b5060010190565b60008261557a5761557a615595565b500690565b634e487b7160e01b600052601160045260246000fd5b634e487b7160e01b600052601260045260246000fd5b634e487b7160e01b600052604160045260246000fd5b6001600160a01b038116811461367657600080fd5b801515811461367657600080fd5b6001600160e01b03198116811461367657600080fd5b60ff8116811461367657600080fdfea2646970667358221220ca79f7c23642ef8ac306e61366a8f096eec0238a017668a46425825094ec164464736f6c63430008040033",
  "immutableReferences": {},
  "source": "// contracts/Box.sol\n// SPDX-License-Identifier: MIT\npragma solidity ^0.8.4;\n\nimport \"@openzeppelin/contracts-upgradeable/token/ERC721/extensions/ERC721EnumerableUpgradeable.sol\";\nimport \"@openzeppelin/contracts/token/ERC20/IERC20.sol\";\nimport \"@openzeppelin/contracts-upgradeable/access/OwnableUpgradeable.sol\";\n// import \"./ProductFactory.sol\";\n\n//Note: Any contract that wants to receive a newly minted NFT will need to support safeTransfers. See: \"@openzeppelin/contracts-upgradeable/token/ERC721/ERC721ReceiverUpgradeable.sol\"\ninterface IProduct {\n\nstruct Product {\n        // Address of the seller (usually the store) offering the product.\n        address seller;\n        // Name of the specific Product.\n        string sku;\n        // Retail Price of the product. Seller should be able to update this for sales and stuff.\n        uint256 retailPrice;\n        // Wholesale Price of the product. Stakers can stake this amount to fund the production of a single product.\n        uint256 wholesalePrice;\n        // Percentage to be shared with Affiliates.\n        uint8 affiliatePrecentage;\n        // Rate of APY for funders\n        uint16 funderRate;\n        // Index of the product\n        // uint256 index;\n        // Redeemable Status\n        bool redeemable;\n        // Buyable status\n        bool buyable;\n    }\n\n    function getProductCounter() external view returns(uint256);\n\n    function getProduct(uint id) external view returns(Product memory);\n\n    function isCurrencyActive(address store, address currency) external view returns(bool);\n\n    function isCurrencyAcceptable(address store, address currency) external view returns(bool);\n\n    function getCurrenciesLength() external view returns(uint256);\n\n    function getAcceptableCurrencyByIndex(uint256 index) external view returns(address);\n\n    function isCurrencyAcceptableForProduct(uint256 productID, address currency) external view returns(bool);\n\n    function isProductRefundable(uint productID) external view returns(bool);\n\n}\n\ncontract PreorderNFT is ERC721EnumerableUpgradeable, OwnableUpgradeable {\n\n    address productAddress;\n\n    // The default token to be accepted as a currency.\n    IERC20 private platformToken;\n    \n    // event PreorderRedeemed(uint256 nftId);\n    // event PreorderRefunded(uint256 nftId);\n\n    // Mapping from NFT Token ID to Product Item ID\n    mapping (uint => uint) private NFTtoProduct;\n    // Mapping from NFT Token ID to its Redeemable status\n    mapping (uint => bool) public isNFTUseable;\n    // Mapping from NFT Token ID to its Funded status\n    mapping (uint => bool) public isNFTFunded;\n    // Mapping from NFT Token ID to the amount paid for the NFT when it was minted\n    // TODO: Might need to aslo map in here the address of the currency used to pay\n    mapping (uint => uint) public NFTPricePaid;\n    // Mapping from NFT Token ID to the address that funded it\n    mapping (uint => address) public NFTfunder;\n    // Mapping from the NFT Token ID to the amount the Funder paid to fund it\n    mapping (uint => uint) private funderAmountPaid;\n    // Mappin from the NFT Token Id to the APY earned by the funder\n    mapping (uint => uint16) private funderRate;\n    // Mapping from a wallet address to a boolean, indicating if a wallet address is an affiliate\n    mapping (address => bool) private isAffiliate;\n    // Mapping from the Affiliates discount code to their wallet address\n    mapping (string => address) private codeToAffiliate;\n    // Mapping from the Affiliates discount code to their wallet address\n    mapping (address => string) private affiliateToCode;\n    // Mapping from NFT Token ID to the affiliate's wallet address\n    mapping (uint => address) private NFTaffiliate;\n    // Mapping from the NFT Token ID to the amount due to the Store\n    mapping (uint => uint) private NFTstoreAmountDue;\n    // Mapping from the NFT Token ID to the amount due to the Affiliate\n    mapping (uint => uint) private NFTaffiliateAmountDue;\n    // Mapping from the Affiliate's wallet address to the percentage they share with the customer.\n    // Note: We store this as an integer and convert to a percentage for the math. ie. a value of 20 will be 20% or .2 \n    mapping (address => uint8) private affiliateSharedPercentage;\n    // Mapping from the NFT Token ID to the address of the currency used to buy it\n    mapping (uint => address) private boughtWith;\n    // Mapping from the NFT Token ID to the address of the currency used to fund it\n    mapping (uint => address) private fundedWith;\n    // Mapping from Product ID to the currencies balances for that product\n    mapping (uint => mapping (address => uint)) public productBalances;\n    // Mapping from the Product ID to the number of units sold\n    mapping (uint => uint64) internal unitsSold;\n    // Mapping from the Product ID to the number of units redeemed by the customer\n    mapping (uint => uint64) internal unitsRedeemed;\n    // Mapping from the Product ID to the number of units refunded to the customer\n    mapping (uint => uint64) internal unitsRefunded;\n    // Mapping from the Product ID to the number of units shipped to and received by the customer\n    mapping (uint => uint64) internal unitsReceived;\n    // Mapping from the Store's wallet address to the number of units sold\n    mapping (address => uint64) internal storeUnitsSold;\n    // Mapping from the Store's wallet address to the number of units redeemed by the customer\n    mapping (address => uint64) internal storeUnitsRedeemed;\n    // Mapping from the Store's wallet address to the number of units refunded to the customer\n    mapping (address => uint64) internal storeUnitsRefunded;\n    // Mapping from the Store's wallet address to the number of units shipped to and received by the customer\n    mapping (address => uint64) internal storeUnitsReceived;\n    // Mapping from Product ID to a list of orphaned Funders\n    // mapping (uint => mapping (uint => address)) internal orphanedFunderAddress;\n    // Mapping from ProductID to index to currency the orphaned funder originally funded with\n    mapping (uint => mapping (uint => uint)) internal orphanedFunderNFTid;\n    // Mapping from NFT Token ID to if boolean flag reprenting if it was orphaned or not\n    mapping (uint => bool) internal NFTwasOrphaned;\n    // Mapping from Product ID to the length of that Product's orphaned Funders list\n    mapping (uint => uint) internal orphanedFundersCount;\n    // Mapping from NFT Token ID to the number of seconds since the Unix time origin as a uint\n    mapping (uint => uint) internal fundedTimestamp;\n\n    struct FunderPayout {\n        // Funders withdrawal allowance\n        uint funderAllowance;\n        // This is the number of seconds since the Funder funded the product\n        uint secondsSinceFunding;\n        // The remainder is the number seconds left over after converting from seconds to days\n        uint daysSinceFundingRemainder;\n        // The number of full days since the Funder funded the product\n        uint daysSinceFunding;\n        // The amount the funder would be paid if 1 full year had past since the funded the product\n        uint annualYield;\n        // The remainder left when dividing annualYield by 365 to get the daily yield\n        // Note: Loss of up to max 364 wei should be negligable for the Funder\n        uint dailyYieldRemainder;\n        // The amount the funder accumulates each day since they funded the product\n        uint dailyYield;\n        // The total yield the Funder has earned so far\n        uint payoutYield;\n        // The max amount that the Funder's amount due can be\n        uint maxAmountDue;\n    }\n\n     // Modifier to check token allowance\n    // modifier checkAllowance(uint _amount) {\n    //     require(currencyToken.allowance(msg.sender, address(this)) >= _amount, \"Error not enough allowance\");\n    //     _;\n    // }\n\n    modifier productExists(uint _productId) {\n        require(_productId != 0 && _productId <= IProduct(productAddress).getProductCounter(), \"Product does not exist!\");\n        _;\n    }\n\n    // Preorders are only redeemable when true\n    modifier ifRedeemable(uint _id) {\n        uint _productId = getProductByNFT(_id);\n        IProduct.Product memory _product = IProduct(productAddress).getProduct(_productId);\n        require(_product.redeemable, \"Product is not Redeemable\");\n        _;\n    }\n\n    // Only the NFT's owner can call this\n    modifier onlyNFTowner(uint _id, address _owner) {\n        require(ownerOf(_id) == _owner, \"Only the NFT's owner can call this function\");\n        _;\n    }\n\n    modifier onlySeller(uint _productId, address _seller) {\n        IProduct.Product memory _product = IProduct(productAddress).getProduct(_productId);\n        require(_product.seller == _seller, \"Only the Store selling this product can call this function!\");\n        _;\n    }\n\n    // modifier currencyCheck(address _currency) {\n    //     require(IProduct.isCurrencyActive(_product.seller, _currency), \"Currency is not active!\");\n    //     require(IProduct.isCurrencyAcceptableForProduct(productId, _currency), \"Currency is not acceptable for this product!\");\n    //     _;\n    // }\n\n    function __PreorderNFT_init(address _productAddress, address _currency) initializer public {\n        __PreorderNFT_init_unchained(_productAddress, _currency);\n    }\n\n    // Pretty sure I don't need this init function, its only needed in the proxy contract\n    /**\n     * @dev Initialzes the contract.\n     * @param _productAddress The default currency for which to trade for the item.\n     */\n    function __PreorderNFT_init_unchained(address _productAddress, address _currency) initializer public {\n\n        // currency passed as param is used as default currency token and added to the acceptableCurrencies mapping\n        productAddress = _productAddress;\n        platformToken = IERC20(_currency);\n        __ERC721_init(\"PreOrder\", \"PRE\");\n    }\n\n    // function getProductCount() public view returns (uint256) {\n    //     return productCounter;\n    // }\n\n    //  Note: Just call tokenOfOwnerByIndex(owner, index) for each number less than the balanceOf(owner)\n    // function getNFTsByOwner(address owner) public view returns(uint256[] memory) {\n    //     require(balanceOf(owner) > 0, \"Caller does not own any of our NFTs!\");\n    //     uint256[] memory tokenIds = new uint256[](balanceOf(owner));\n    //     // uint256[] memory tokenIds = new uint256[](ownedAmount + 1);\n    //     // j will be the index for the array\n    //     uint256 j = 0;\n    //     for (uint256 i = 1; i <= totalSupply(); i++) {\n    //         // i will be used as the NFT Token ID\n    //         if (ownerOf(i) == owner) {\n    //             tokenIds[j] = i;\n    //             j++;\n    //         }\n    //     }\n    //     return tokenIds;\n    // }\n\n    // You can send in the user's address and the product SKU they want to redeem an NFT for.\n    // We loop through all thue user's owned NFTs and see if any match that products SKU\n    \n    //  Note: This can all be checked client side\n    // function checkNFTOwnershipBySku(address owner, string memory sku) public view returns(uint256) {\n    //     uint256 productId = getProductIdBySKU(sku);\n    //     require(productId > 0 && productId <= productCounter, \"Product with this SKU does not exist!\");\n    //     uint256[] memory list = getNFTsByOwner(owner);\n    //     for (uint256 i = 0; i < list.length; i++) {\n    //         // TODO: This will return the first match, though the owner may own multiple NFT's for the same Product ID\n    //         if (keccak256(abi.encodePacked(products[NFTtoProduct[list[i]]].sku)) == keccak256(abi.encodePacked(products[productId].sku))) {\n    //             return list[i];\n    //         }\n    //     }\n    //     return 0;\n    // }\n\n    // Checks if an NFT with this ID exixsts already\n    // function preorderExists(uint id) public view returns(bool) {\n    //     if (_exists(id)) {\n    //         return true;\n    //     }\n    //     return false;\n    // }\n\n    function getQuote(address currency, uint productId, address affiliate) public view productExists(productId) returns(uint) {\n        if (!isAffiliate[affiliate]) {\n            affiliate = address(0);\n        }\n        // Require this product actually exists\n        // require(productId <= productCounter, \"Product does not exist, ID out of bounds\");\n        // Require currency is acceptable and active\n        require(IProduct(productAddress).isCurrencyAcceptableForProduct(productId, currency), \"Currency is not acceptable for this product!\");\n        IProduct.Product memory _product = IProduct(productAddress).getProduct(productId);\n        require(IProduct(productAddress).isCurrencyActive(_product.seller, currency), \"Currency is not active!\");\n        // require(isCurrencyAcceptable(product.seller, currency), \"Currency is not acceptable!\");\n        // require(productCurrencies[productId][currency], \"Currency is not acceptable for this product!\");\n        uint amountDue = _product.retailPrice;\n        if (affiliate != address(0)) {\n            uint affiliateShare = (amountDue * _product.affiliatePrecentage) / 100;\n            uint customerDiscount = (affiliateShare * affiliateSharedPercentage[affiliate]) / 100;\n            amountDue -= customerDiscount;\n        }\n        return amountDue;\n    }\n\n    function quoteCart(address currency, uint[] memory productIds, address affiliate) public view returns(uint) {\n        if (!isAffiliate[affiliate]) {\n            affiliate = address(0);\n        }\n        uint total = 0;\n        for (uint i = 0; i < productIds.length; i++) {\n            total += getQuote(currency, productIds[i], affiliate);\n        }\n        return total;\n    }\n\n    /**\n     * @dev Caller gives this contract the amount of currency token required to pay for this product. \n     * @dev A new redeemable NFT is then minted for the caller\n     * @param currency The currency that will be used to buy the NFT.\n     * @param productId The product the NFT will represent.\n     */ \n    //  NOTE: The front end needs to approve the transfer for whatever currency is going to be used before preordering\n    function purchasePreorder(address currency, uint productId, address affiliate) public {\n        address to = msg.sender;\n        if (!isAffiliate[affiliate]) {\n            affiliate = address(0);\n        }\n        uint amountDue = getQuote(currency, productId, affiliate);\n        IProduct.Product memory _product = IProduct(productAddress).getProduct(productId);\n        // Require the product is buyable\n        require(_product.buyable, \"Product is not buyable\");\n        require(IERC20(currency).transferFrom(to, address(this), amountDue), \"Transaction failed\");\n        // Add the price in the paid currency to the product's balance for that currency\n        // TODO: Need to set a common denominator function for all currencies that looks up the currencies current value through maybe Uniswap quotes\n        productBalances[productId][currency] += amountDue;\n        // NOTE: NFT with Token ID 0 will never be assigned (if NFT ID is 0, NFT doesn't exist)\n        uint _id = totalSupply() + 1;\n        boughtWith[_id] = currency;\n        NFTPricePaid[_id] = amountDue;\n        NFTtoProduct[_id] = productId;\n        isNFTUseable[_id] = true;\n        isNFTFunded[_id] = false;\n        unitsSold[productId] += 1;\n        storeUnitsSold[_product.seller] += 1;\n        if (affiliate != address(0)) {\n            NFTaffiliate[_id] = affiliate;\n            uint affiliateTotal = (_product.retailPrice * _product.affiliatePrecentage) / 100;\n            NFTaffiliateAmountDue[_id] = affiliateTotal - ((affiliateTotal * affiliateSharedPercentage[affiliate]) / 100);\n            NFTstoreAmountDue[_id] = (_product.retailPrice - affiliateTotal);\n        } else {\n            NFTstoreAmountDue[_id] = amountDue;\n        }\n        _safeMint(to, _id);\n        if (getOrphanedFundersCount(productId) > 0) {\n            uint _orphanedNFTid = getOrphanedFunderNFTidByIndex(productId, 0);\n            _fundPreorder(fundedWith[_orphanedNFTid], productId, NFTfunder[_orphanedNFTid], _orphanedNFTid);\n        }\n        // If this prodcut is instantlly redeemable, redeem it automatically\n        if (_product.redeemable) {\n            redeemPreorder(_id);\n        }\n    }\n\n    /**\n     * @dev Caller gives this contract the amount of currency token required to pay for this product. \n     * @dev A new redeemable NFT is then minted for the caller\n     * @param currency The currency that will be used to buy the NFT.\n     * @param productIds The product the NFT will represent.\n     * @param affiliate The affiliate used (address(0) if no affiliate)\n     */ \n    //  NOTE: The front end needs to approve the transfer for whatever currency is going to be used before preordering\n    function checkoutCart(address currency, uint[] memory productIds, address affiliate) external {\n        for (uint i = 0; i < productIds.length; i++) {\n            purchasePreorder(currency, productIds[i], affiliate);\n        }\n    }\n\n    /**\n     * @dev Redeems the NFT for the product it represents\n     * @param NFTid The NFT to redeem.\n     */ \n    function redeemPreorder(uint NFTid) public ifRedeemable(NFTid) onlyNFTowner(NFTid, msg.sender) {\n        // Require that the NFT with Token ID NFTid actually exists\n        require(_exists(NFTid), \"NFT doesn't exist!\");\n        // Require that msg.sender is the owner of the NFT with Token ID NFTid\n        // require(ownerOf(NFTid) == msg.sender, \"Only the NFT's owner can redeem it for a product\");\n        uint _productId = getProductByNFT(NFTid);\n        IProduct.Product memory _product = IProduct(productAddress).getProduct(_productId);\n        // Require that the NFT is redeemable\n        require(isNFTUseable[NFTid], \"This NFT is not redeemable, it may have already been redeemed or refunded!\");\n        // Require that this contract has a balance for this product in a currency to pay to the store\n        require(productBalances[_productId][boughtWith[_productId]] >= NFTPricePaid[NFTid], \"This contract does not have a sufficient balance to approve the payout\");\n        // Set redeemable status to false so it cannot be redeemed or refunded again\n        isNFTUseable[NFTid] = false;\n        unitsRedeemed[_productId] += 1;\n        address storeAddress = _product.seller;\n        storeUnitsRedeemed[storeAddress] += 1;\n\n        if (NFTaffiliateAmountDue[NFTid] > 0) {\n            address affiliateAddress = getNFTaffiliate(NFTid);\n            // Approved amount for Affiliate to withdraw is increased here\n            uint affiliateAllowance = IERC20(boughtWith[NFTid]).allowance(address(this), NFTaffiliate[NFTid]);\n            affiliateAllowance += NFTaffiliateAmountDue[NFTid];\n            require(IERC20(boughtWith[NFTid]).approve(affiliateAddress, affiliateAllowance), \"Approval for Affiliate to withdraw failed!\");\n            // IERC20(boughtWith[NFTid]).increaseAllowance(_product.seller, storeAmountDue);\n            // IERC20(boughtWith[NFTid]).increaseAllowance(affiliateAddress, affiliateAmountDue);\n        }\n\n        uint funderAmountDue = 0;\n        // If this product was funded, pay the Funder his share\n        if (isNFTFunded[NFTid]) {\n            FunderPayout memory _payout;\n            _payout.funderAllowance = IERC20(fundedWith[NFTid]).allowance(address(this), NFTfunder[NFTid]);\n            // This is the amount the Funder initially funded this product with\n            funderAmountDue = funderAmountPaid[NFTid];\n            _payout.secondsSinceFunding = block.timestamp - fundedTimestamp[NFTid];\n            _payout.daysSinceFundingRemainder = _payout.secondsSinceFunding % 1 days;\n            // We get rid of the remainder here so we can cleanly convert seconds to days\n            _payout.secondsSinceFunding -= _payout.daysSinceFundingRemainder;\n            // The number of full days since the Funder funded the product\n            _payout.daysSinceFunding = _payout.secondsSinceFunding / 1 days;\n            // The amount the funder would be paid if 1 full year had past since the funded the product\n            _payout.annualYield = (funderAmountDue * funderRate[NFTid]) / 100;\n            _payout.dailyYieldRemainder = _payout.annualYield % 365;\n            // We get rid of the remainder here so we can cleanly convert annual yield to daily yield\n            _payout.annualYield -= _payout.dailyYieldRemainder;\n            _payout.dailyYield = _payout.annualYield / 365;\n            _payout.payoutYield = _payout.dailyYield * _payout.daysSinceFunding;\n            // The Funder's amount due is the amount they initially funded with + the yield earned so far\n            funderAmountDue += _payout.payoutYield;\n            _payout.maxAmountDue = NFTstoreAmountDue[NFTid];\n            // If the Funder's amount due is greater tha nthe max amount due, set it to equal the max amount due\n            if (funderAmountDue > _payout.maxAmountDue) funderAmountDue = _payout.maxAmountDue;\n            // Add the Funder's amount due to their withdrawable allowance\n            _payout.funderAllowance += funderAmountDue;\n            // Approve the new allowance\n            require(IERC20(fundedWith[NFTid]).approve(NFTfunder[NFTid], _payout.funderAllowance), \"Approval for Funder to withdraw failed!\");\n        }\n\n        // Approved amount for Store to withdraw is increased here\n        // TODO: Adding funder will break this\n        // If Store is due an amount greater than 0, add that amount to their allowance to withdraw\n        if ((NFTstoreAmountDue[NFTid] - funderAmountDue) > 0) {\n            uint storeAllowance = IERC20(boughtWith[NFTid]).allowance(address(this), storeAddress);\n            storeAllowance += (NFTstoreAmountDue[NFTid] - funderAmountDue);\n            require(IERC20(boughtWith[NFTid]).approve(storeAddress, storeAllowance), \"Approval for Store to withdraw failed!\");\n        }\n        // require(currencyToken.approve(affiliateAddress, affiliateAllowance), \"Approval for future withdrawal failed!\");\n        // require(currencyToken.allowance(address(this), affiliateAddress) >= affiliateAmountDue, \"Actual allowance is less than our amount due value!\");\n        // require(IERC20(acceptableCurrencies[0]).approve(storeAddress, newApprovalAmount), \"Approval for future withdrawal failed!\");\n        // require(IERC20(acceptableCurrencies[0]).allowance(address(this), storeAddress) >= newApprovalAmount, \"Actual allowance is less than our allowance value!\");\n\n        // require(currencyToken.approve(storeAddress, storeAllowance), \"Approval for future withdrawal failed!\");\n        // require(currencyToken.allowance(address(this), storeAddress) >= storeAllowance, \"Actual allowance is less than our allowance value!\");\n        // IERC20(acceptableCurrencies[0]).transferFrom(address(this), storeAddress, currencyAllowance[acceptableCurrencies[0]] + NFTPricePaid[NFTid]);\n        \n        // emit PreorderRedeemed(NFTid);\n\n        // This emits the NFT ID, the store will need to listen for this event\n        // Then the store should look up the product ID by its NFT ID\n        // Then the store should look up the product and check it's SKU\n        // Finally, the store should ship out the real life product matching that sku\n    }\n\n    /**\n     * @dev Approves the entire balance for a Product in each acceptableCurrency to be withdrawn by msg.sender\n     * @param NFTid The NFT to refund.\n     */ \n    function refundPreorder(uint NFTid) external ifRedeemable(NFTid) onlyNFTowner(NFTid, msg.sender) {\n        // Require that the NFT with Token ID NFTid actually exists\n        require(_exists(NFTid), \"NFT doesn't exist!\");\n        // Require that msg.sender is the owner of the NFT with Token ID NFTid\n        // require(ownerOf(NFTid) == msg.sender, \"Only the NFT's owner can refund it\");\n        // Require that the NFT is redeemable\n        require(isNFTUseable[NFTid], \"This NFT is not refundable, it may have already been refunded or redeemed!\");\n        // Get the product\n        uint _productId = getProductByNFT(NFTid);\n        IProduct.Product memory _product = IProduct(productAddress).getProduct(_productId);\n        // Require that the Product's non-refundable period has passed\n        require(IProduct(productAddress).isProductRefundable(_productId), \"This product is not refundable yet!\");\n        // Approve the amount to be transfered to the customer\n        require(IERC20(boughtWith[NFTid]).approve(msg.sender, NFTPricePaid[NFTid]), \"Approval for future withdrawal failed!\");\n        // Send the amount the original customer paid to the current owner of the NFT\n        require(IERC20(boughtWith[NFTid]).transfer(msg.sender, NFTPricePaid[NFTid]), \"Refund transfer failed!\");\n        // Set useable status to false so it cannot be redeemed or refunded again\n        isNFTUseable[NFTid] = false;\n        unitsRefunded[_productId] += 1;\n        storeUnitsRefunded[_product.seller] += 1;\n\n        // If this order has a funder, try to reassign the funder\n        if (isNFTFunded[NFTid]) {\n            _fundPreorder(fundedWith[NFTid], _productId, NFTfunder[NFTid], NFTid);\n            isNFTFunded[NFTid] = false;\n        }\n\n        // TODO: Maybe we should burn the NFT after it is refunded? It's kinda useless now.\n        // emit PreorderRefunded(NFTid);\n    }\n\n    function getUnfundedNFT(address currency, uint productId) public view returns(uint) {\n        IProduct.Product memory _product = IProduct(productAddress).getProduct(productId);\n         // Require currency is acceptable and active\n        require(IProduct(productAddress).isCurrencyAcceptable(_product.seller, currency), \"Currency is not acceptable!\");\n        require(IProduct(productAddress).isCurrencyActive(_product.seller, currency), \"Currency is not active!\");\n        uint _NFTid = 0;\n        for (uint i; i <= totalSupply(); i++) {\n            if (getProductByNFT(i) == productId && !isNFTFunded[i] && isNFTUseable[i]) {\n                _NFTid = i;\n                return _NFTid;\n            }\n        }\n        return 0;\n    }\n\n    function _fundPreorder(address currency, uint productId, address funder, uint previouslyFundedNFTid) internal returns(bool) {\n\n        // TODO: Need to check if product is Fundable\n\n        IProduct.Product memory _product = IProduct(productAddress).getProduct(productId);\n        uint _NFTid = getUnfundedNFT(currency, productId);\n        // If this is a new funder...\n        if (previouslyFundedNFTid == 0) {\n            // If no fundable order was found return false\n            if (_NFTid == 0){\n                return false;\n            }\n            // Otherwise assign the funder to an order\n            // Require a succesful transfer of the currency from the user to this contract\n            require(IERC20(currency).transferFrom(funder, address(this), _product.wholesalePrice), \"Transaction failed\");\n            funderAmountPaid[_NFTid] = _product.wholesalePrice;\n            funderRate[_NFTid] = _product.funderRate;\n            fundedTimestamp[_NFTid] = uint256(block.timestamp);\n        // Else if the funder was funding a different order, but that order was just refunded...\n        } else {\n            // If no fundable order was found...\n            if (_NFTid == 0) {\n                // If this funder was not orphaned before add this funder to the orphaned funders list and increment the counter\n                if (!NFTwasOrphaned[previouslyFundedNFTid]) {\n                    NFTwasOrphaned[previouslyFundedNFTid] = true;\n                    orphanedFundersCount[productId]++;\n                    uint256 index = getOrphanedFundersCount(productId);\n                    orphanedFunderNFTid[productId][index - 1] = previouslyFundedNFTid;\n                }\n                return false;\n            }\n            // Otherwise assign the funder to a new order\n            funderAmountPaid[_NFTid] = funderAmountPaid[previouslyFundedNFTid];\n            funderRate[_NFTid] = funderRate[previouslyFundedNFTid];\n            fundedTimestamp[_NFTid] = fundedTimestamp[previouslyFundedNFTid];\n            // If this funder was orphaned before decrement counter and re-index entire list....\n            if (NFTwasOrphaned[previouslyFundedNFTid]) {\n                orphanedFundersCount[productId]--;\n                uint orphanedLength = getOrphanedFundersCount(productId);\n                for (uint i = 0; i < orphanedLength; i++) {\n                    orphanedFunderNFTid[productId][i] = orphanedFunderNFTid[productId][i + 1];\n                }\n            }\n        }\n        // Change the funded status to true\n        isNFTFunded[_NFTid] = true;\n        // Record what address funded this NFT\n        NFTfunder[_NFTid] = funder;\n        fundedWith[_NFTid] = currency;\n        return true;\n    }\n\n    function fundPreorder(address currency, uint productId) external {\n        // NOTE: Potential funder should call getUnfundedNFT first to make sure one is available to fund\n        address funder = msg.sender;\n        bool _funded = _fundPreorder(currency, productId, funder, 0);\n        // If we couldn't find a Preorder to fund, add funder to\n        require(_funded, \"No available Preorders found to fund!\");\n    }\n\n    // TODO: Need to make this only callable by the owner or an admin\n    /**\n     * @dev Approves the entire balance for a Product in each acceptableCurrency to be withdrawn by msg.sender\n     * @param _productId The Product with the balances to send.\n     */ \n    // function withdrawAllProductCurrenciesBalance(uint _productId) onlySeller(_productId, msg.sender) external {\n    //     // For each currency the store has ever accepted, send the entire balance related to this Product ID to the msg.sender\n    //     for (uint i = 0; i < getCurrenciesLength(); i++) {\n    //         // Only transfer if the balance is greater than 0\n    //         if (productBalances[_productId][getAcceptableCurrencyByIndex(i)] < 0) {\n    //             // Approve the amount to be sent to the msg.sender\n    //             address _currency = getAcceptableCurrencyByIndex(i);\n    //             IERC20(_currency).approve(msg.sender, productBalances[_productId][getAcceptableCurrencyByIndex(i)]);\n    //             // TODO: Might need to verify that the amount is allowed for this currency before we try transferFrom\n    //             // IERC20(_currency).transferFrom(address(this), msg.sender, productBalances[_productId][getAcceptableCurrencyByIndex(i)]);\n    //             // TODO: I think msg.sender needs to listen for an event to know that the transfer is approved for them\n    //         }\n    //     }\n    // }\n\n    // TODO: Need to make this only callable by the owner or an admin\n    /**\n     * @dev Approves the entire balance for a Product in each acceptableCurrency to be withdrawn by msg.sender\n     * @param amount The amount to approve.\n     * @param currency The currency to withdraw the balance of.\n     */ \n    function withdrawSpecificCurrencyBalance(uint amount, address currency) external returns(uint256) {\n        // TODO: Might need to verify that the amount is allowed for this currency before we try transferFrom\n        IERC20(currency).transfer(msg.sender, amount);\n        return amount;\n    }\n\n    function affiliateRegistration(string memory affiliateCode, uint8 percentage) public {\n        require(!isAffiliate[_msgSender()], \"You are already an affiliate!\");\n        require(getAffiliateByCode(affiliateCode) == address(0), \"This code is already taken\");\n        require(percentage > 0 && percentage < 100, \"The percentage you share with cutomers must be between 0 and 100\");\n        codeToAffiliate[affiliateCode] = _msgSender();\n        affiliateToCode[_msgSender()] = affiliateCode;\n        isAffiliate[_msgSender()] = true;\n        affiliateSharedPercentage[_msgSender()] = percentage;\n    }\n\n    function getAffiliateCode(address affiliate) public view returns(string memory) {\n        require(isAffiliate[affiliate], \"This address is not an Affiliate!\");\n        return affiliateToCode[affiliate];\n    }\n\n    function getAffiliateByCode(string memory affiliateCode) public view returns(address) {\n        // require(codeToAffiliate[affiliateCode] != address(0), \"No Affiliate exists with this code!\");\n        return codeToAffiliate[affiliateCode];\n    }\n\n    function getAffiliateSharedPercentage(address affiliate) public view returns(uint8) {\n        // require(isAffiliate[msg.sender], \"This address is not an Affiliate!\");\n        return affiliateSharedPercentage[affiliate];\n    }\n\n    function changeAffiliateCode(string memory oldCode, string memory newCode) public {\n        require(isAffiliate[_msgSender()], \"You need to register as an Affiliate before calling this function!\");\n        require(codeToAffiliate[oldCode] == _msgSender(), \"You must provide your current code, and you desired new code!\");\n        require(getAffiliateByCode(newCode) == address(0), \"This code is already taken\");\n        codeToAffiliate[oldCode] = address(0);\n        codeToAffiliate[newCode] = _msgSender();\n        affiliateToCode[_msgSender()] = newCode;\n    }\n\n    function changeAffiliateSharedPercentage(uint8 percentage) public {\n        require(isAffiliate[_msgSender()], \"You need to register as an Affiliate before calling this function!\");\n        require(percentage > 0 && percentage < 100, \"The percentage you share with cutomers must be between 0 and 100\");\n        affiliateSharedPercentage[_msgSender()] = percentage;\n    }\n    \n    function getProductByNFT(uint NFTid) public view returns(uint) {\n        return NFTtoProduct[NFTid];\n    }\n\n    function getNFTaffiliate(uint NFTid) public view returns(address) {\n        // require(NFTaffiliate[NFTid] != address(0), \"Affiliate is the zero address!\");\n        return NFTaffiliate[NFTid];\n    }\n\n    function getNFTaffiliateAmountDue(uint NFTid) public view returns(uint256) {\n        return NFTaffiliateAmountDue[NFTid];\n    }\n\n    function getNFTstoreAmountDue(uint NFTid) public view returns(uint256) {\n        return NFTstoreAmountDue[NFTid];\n    }\n\n    function getUnitsSold(uint productID) public view productExists(productID) returns(uint64) {\n        // require(productID <= productCounter, \"Product ID is out of bounds\");\n        return unitsSold[productID];\n    }\n    \n    function getUnitsRedeemed(uint productID) public view productExists(productID) returns(uint64) {\n        // require(productID <= productCounter, \"Product ID is out of bounds\");\n        return unitsRedeemed[productID];\n    }\n\n    function getUnitsRefunded(uint productID) public view productExists(productID) returns(uint64) {\n        // require(productID <= productCounter, \"Product ID is out of bounds\");\n        return unitsRefunded[productID];\n    }\n\n    function getUnitsReceived(uint productID) public view productExists(productID) returns(uint64) {\n        // require(productID <= productCounter, \"Product ID is out of bounds\");\n        return unitsReceived[productID];\n    }\n\n    function getProductCurrencyBalance(uint productID, address currency) public view returns(uint256) {\n        return productBalances[productID][currency];\n    }\n\n    function getOrphanedFundersCount(uint256 productID) public view returns(uint256) {\n        return orphanedFundersCount[productID];\n    }\n\n    function getOrphanedFunderNFTidByIndex(uint256 productID, uint256 index) public view returns(uint) {\n        return orphanedFunderNFTid[productID][index];\n    }\n\n    /**\n     * @dev Returns an array of amounts. Note that item[i] in the array will corrospond to acceptableCurrencies[i]\n     * @param _productID The Product to get the current balances from.\n     */ \n    function getProductBalances(uint _productID) public view returns(uint[] memory) {\n        uint256[] memory balances = new uint256[](IProduct(productAddress).getCurrenciesLength());\n        for (uint256 i = 0; i < IProduct(productAddress).getCurrenciesLength(); i++) {\n            address _currency = IProduct(productAddress).getAcceptableCurrencyByIndex(i);\n            balances[i] = getProductCurrencyBalance(_productID, _currency);\n        }\n        // Note: The index of each balance will match the index of the currency in the acceptableCurrencies array\n        // So the user can look up that currencies address\n        return balances;\n    }\n\n}",
  "sourcePath": "/Users/torbjoranderson/Documents/TorbjorDefi/develpoment/crypto-commerce-hud-1.0/src/truffle/contracts/PreorderNFT.sol",
  "compiler": {
    "name": "solc",
    "version": "0.8.4+commit.c7e474f2.Emscripten.clang"
  },
  "schemaVersion": "3.4.7",
  "updatedAt": "2022-09-21T02:52:08.812Z",
  "devdoc": {
    "kind": "dev",
    "methods": {
      "__PreorderNFT_init_unchained(address,address)": {
        "details": "Initialzes the contract.",
        "params": {
          "_productAddress": "The default currency for which to trade for the item."
        }
      },
      "approve(address,uint256)": {
        "details": "See {IERC721-approve}."
      },
      "balanceOf(address)": {
        "details": "See {IERC721-balanceOf}."
      },
      "checkoutCart(address,uint256[],address)": {
        "details": "Caller gives this contract the amount of currency token required to pay for this product. A new redeemable NFT is then minted for the caller",
        "params": {
          "affiliate": "The affiliate used (address(0) if no affiliate)",
          "currency": "The currency that will be used to buy the NFT.",
          "productIds": "The product the NFT will represent."
        }
      },
      "getApproved(uint256)": {
        "details": "See {IERC721-getApproved}."
      },
      "getProductBalances(uint256)": {
        "details": "Returns an array of amounts. Note that item[i] in the array will corrospond to acceptableCurrencies[i]",
        "params": {
          "_productID": "The Product to get the current balances from."
        }
      },
      "isApprovedForAll(address,address)": {
        "details": "See {IERC721-isApprovedForAll}."
      },
      "name()": {
        "details": "See {IERC721Metadata-name}."
      },
      "owner()": {
        "details": "Returns the address of the current owner."
      },
      "ownerOf(uint256)": {
        "details": "See {IERC721-ownerOf}."
      },
      "purchasePreorder(address,uint256,address)": {
        "details": "Caller gives this contract the amount of currency token required to pay for this product. A new redeemable NFT is then minted for the caller",
        "params": {
          "currency": "The currency that will be used to buy the NFT.",
          "productId": "The product the NFT will represent."
        }
      },
      "redeemPreorder(uint256)": {
        "details": "Redeems the NFT for the product it represents",
        "params": {
          "NFTid": "The NFT to redeem."
        }
      },
      "refundPreorder(uint256)": {
        "details": "Approves the entire balance for a Product in each acceptableCurrency to be withdrawn by msg.sender",
        "params": {
          "NFTid": "The NFT to refund."
        }
      },
      "renounceOwnership()": {
        "details": "Leaves the contract without owner. It will not be possible to call `onlyOwner` functions anymore. Can only be called by the current owner. NOTE: Renouncing ownership will leave the contract without an owner, thereby removing any functionality that is only available to the owner."
      },
      "safeTransferFrom(address,address,uint256)": {
        "details": "See {IERC721-safeTransferFrom}."
      },
      "safeTransferFrom(address,address,uint256,bytes)": {
        "details": "See {IERC721-safeTransferFrom}."
      },
      "setApprovalForAll(address,bool)": {
        "details": "See {IERC721-setApprovalForAll}."
      },
      "supportsInterface(bytes4)": {
        "details": "See {IERC165-supportsInterface}."
      },
      "symbol()": {
        "details": "See {IERC721Metadata-symbol}."
      },
      "tokenByIndex(uint256)": {
        "details": "See {IERC721Enumerable-tokenByIndex}."
      },
      "tokenOfOwnerByIndex(address,uint256)": {
        "details": "See {IERC721Enumerable-tokenOfOwnerByIndex}."
      },
      "tokenURI(uint256)": {
        "details": "See {IERC721Metadata-tokenURI}."
      },
      "totalSupply()": {
        "details": "See {IERC721Enumerable-totalSupply}."
      },
      "transferFrom(address,address,uint256)": {
        "details": "See {IERC721-transferFrom}."
      },
      "transferOwnership(address)": {
        "details": "Transfers ownership of the contract to a new account (`newOwner`). Can only be called by the current owner."
      },
      "withdrawSpecificCurrencyBalance(uint256,address)": {
        "details": "Approves the entire balance for a Product in each acceptableCurrency to be withdrawn by msg.sender",
        "params": {
          "amount": "The amount to approve.",
          "currency": "The currency to withdraw the balance of."
        }
      }
    },
    "version": 1
  },
  "userdoc": {
    "kind": "user",
    "methods": {},
    "version": 1
  }
}