{
  "contractName": "ProductFactory",
  "abi": [
    {
      "anonymous": false,
      "inputs": [
        {
          "indexed": false,
          "internalType": "uint8",
          "name": "version",
          "type": "uint8"
        }
      ],
      "name": "Initialized",
      "type": "event"
    },
    {
      "anonymous": false,
      "inputs": [
        {
          "indexed": true,
          "internalType": "address",
          "name": "previousOwner",
          "type": "address"
        },
        {
          "indexed": true,
          "internalType": "address",
          "name": "newOwner",
          "type": "address"
        }
      ],
      "name": "OwnershipTransferred",
      "type": "event"
    },
    {
      "inputs": [],
      "name": "owner",
      "outputs": [
        {
          "internalType": "address",
          "name": "",
          "type": "address"
        }
      ],
      "stateMutability": "view",
      "type": "function"
    },
    {
      "inputs": [
        {
          "internalType": "uint256",
          "name": "",
          "type": "uint256"
        }
      ],
      "name": "products",
      "outputs": [
        {
          "internalType": "address",
          "name": "seller",
          "type": "address"
        },
        {
          "internalType": "string",
          "name": "sku",
          "type": "string"
        },
        {
          "internalType": "uint256",
          "name": "retailPrice",
          "type": "uint256"
        },
        {
          "internalType": "uint256",
          "name": "wholesalePrice",
          "type": "uint256"
        },
        {
          "internalType": "uint8",
          "name": "affiliatePercentage",
          "type": "uint8"
        },
        {
          "internalType": "uint16",
          "name": "funderRate",
          "type": "uint16"
        },
        {
          "internalType": "bool",
          "name": "redeemable",
          "type": "bool"
        },
        {
          "internalType": "bool",
          "name": "buyable",
          "type": "bool"
        }
      ],
      "stateMutability": "view",
      "type": "function"
    },
    {
      "inputs": [],
      "name": "renounceOwnership",
      "outputs": [],
      "stateMutability": "nonpayable",
      "type": "function"
    },
    {
      "inputs": [
        {
          "internalType": "address",
          "name": "newOwner",
          "type": "address"
        }
      ],
      "name": "transferOwnership",
      "outputs": [],
      "stateMutability": "nonpayable",
      "type": "function"
    },
    {
      "inputs": [],
      "name": "getProductCounter",
      "outputs": [
        {
          "internalType": "uint256",
          "name": "",
          "type": "uint256"
        }
      ],
      "stateMutability": "view",
      "type": "function"
    }
  ],
  "bytecode": "0x608060405234801561001057600080fd5b506104a0806100206000396000f3fe608060405234801561001057600080fd5b50600436106100575760003560e01c806326fdfcb31461005c578063715018a6146100725780637acc0b201461007c5780638da5cb5b146100a3578063f2fde38b146100be575b600080fd5b6066546040519081526020015b60405180910390f35b61007a6100d1565b005b61008f61008a36600461036d565b61013c565b604051610069989796959493929190610385565b6033546040516001600160a01b039091168152602001610069565b61007a6100cc36600461033f565b610222565b6033546001600160a01b031633146101305760405162461bcd60e51b815260206004820181905260248201527f4f776e61626c653a2063616c6c6572206973206e6f7420746865206f776e657260448201526064015b60405180910390fd5b61013a60006102ed565b565b606560205260009081526040902080546001820180546001600160a01b0390921692916101689061042f565b80601f01602080910402602001604051908101604052809291908181526020018280546101949061042f565b80156101e15780601f106101b6576101008083540402835291602001916101e1565b820191906000526020600020905b8154815290600101906020018083116101c457829003601f168201915b50505050600283015460038401546004909401549293909290915060ff80821691610100810461ffff16916301000000820481169164010000000090041688565b6033546001600160a01b0316331461027c5760405162461bcd60e51b815260206004820181905260248201527f4f776e61626c653a2063616c6c6572206973206e6f7420746865206f776e65726044820152606401610127565b6001600160a01b0381166102e15760405162461bcd60e51b815260206004820152602660248201527f4f776e61626c653a206e6577206f776e657220697320746865207a65726f206160448201526564647265737360d01b6064820152608401610127565b6102ea816102ed565b50565b603380546001600160a01b038381166001600160a01b0319831681179093556040519116919082907f8be0079c531659141344cd1fd0a4f28419497f9722a3daafe3b4186f6b6457e090600090a35050565b600060208284031215610350578081fd5b81356001600160a01b0381168114610366578182fd5b9392505050565b60006020828403121561037e578081fd5b5035919050565b6001600160a01b0389168152610100602080830182905289519183018290526000918291905b808310156103ca578b83018201518584016101200152918101916103ab565b808311156103dc578361012082870101525b604085018b9052606085018a905260ff89166080860152601f01601f1916840161012001925061040a915050565b61ffff9490941660a082015291151560c0830152151560e09091015295945050505050565b600181811c9082168061044357607f821691505b6020821081141561046457634e487b7160e01b600052602260045260246000fd5b5091905056fea264697066735822122000ad09d72d56b6d1a735e36cac189eaee8d8ecda474ba51da7c7171392fecf0a64736f6c63430008040033",
  "immutableReferences": {},
  "source": "// contracts/Box.sol\n// SPDX-License-Identifier: MIT\npragma solidity ^0.8.4;\n\n// import \"@openzeppelin/contracts-upgradeable/token/ERC721/extensions/ERC721EnumerableUpgradeable.sol\";\n// import \"@openzeppelin/contracts/token/ERC20/IERC20.sol\";\nimport \"@openzeppelin/contracts-upgradeable/access/OwnableUpgradeable.sol\";\n\n//Note: Any contract that wants to receive a newly minted NFT will need to support safeTransfers. See: \"@openzeppelin/contracts-upgradeable/token/ERC721/ERC721ReceiverUpgradeable.sol\"\n \ncontract ProductFactory is OwnableUpgradeable {\n\n    struct Product {\n        // Address of the seller (usually the store) offering the product.\n        address seller;\n        // Name of the specific Product.\n        string sku;\n        // Retail Price of the product. Seller should be able to update this for sales and stuff.\n        uint256 retailPrice;\n        // Wholesale Price of the product. Stakers can stake this amount to fund the production of a single product.\n        uint256 wholesalePrice;\n        // Percentage to be shared with Affiliates.\n        uint8 affiliatePercentage;\n        // Rate of APY for funders\n        uint16 funderRate;\n        // Index of the product\n        // uint256 index;\n        // Redeemable Status\n        bool redeemable;\n        // Buyable status\n        bool buyable;\n    }\n\n    // Mapping from Product ID to the Product.\n    mapping (uint => Product) public products;\n\n    // The total amount of products that have been minted\n    uint256 private productCounter;\n\n     // Preorders are only redeemable when true\n    modifier onlySeller(uint _productId, address _seller) {\n        Product memory product = products[_productId];\n        require(product.seller == _seller, \"Only the Store selling this product can call this function!\");\n        _;\n    }\n\n    modifier productExists(uint _productId) {\n        require(_productId != 0 && _productId <= getProductCounter(), \"Product does not exist!\");\n        _;\n    }\n\n    function __ProductFactory_init() initializer internal {\n        __ProductFactory_init_unchained();\n    }\n\n    // Pretty sure I don't need this init function, its only needed in the proxy contract\n    /**\n     * @dev Initialzes the contract.\n     */\n    function __ProductFactory_init_unchained() initializer internal {\n        productCounter = 0;\n        __Ownable_init();\n    }\n\n    function incrementProductcounter() internal returns(bool) {\n        uint256 newCounter = getProductCounter();\n        newCounter++;\n        productCounter = newCounter;\n        return true;\n    }\n\n    function getProductCounter() public view returns(uint256) {\n        return productCounter;\n    }\n\n}",
  "sourcePath": "/Users/torbjoranderson/Documents/TorbjorDefi/develpoment/crypto-commerce-hud-1.0/src/truffle/contracts/ProductFactory.sol",
  "compiler": {
    "name": "solc",
    "version": "0.8.4+commit.c7e474f2.Emscripten.clang"
  },
  "schemaVersion": "3.4.7",
  "updatedAt": "2022-09-21T02:52:08.851Z",
  "devdoc": {
    "kind": "dev",
    "methods": {
      "owner()": {
        "details": "Returns the address of the current owner."
      },
      "renounceOwnership()": {
        "details": "Leaves the contract without owner. It will not be possible to call `onlyOwner` functions anymore. Can only be called by the current owner. NOTE: Renouncing ownership will leave the contract without an owner, thereby removing any functionality that is only available to the owner."
      },
      "transferOwnership(address)": {
        "details": "Transfers ownership of the contract to a new account (`newOwner`). Can only be called by the current owner."
      }
    },
    "version": 1
  },
  "userdoc": {
    "kind": "user",
    "methods": {},
    "version": 1
  }
}