{
  "contractName": "ProductPostable",
  "abi": [
    {
      "anonymous": false,
      "inputs": [
        {
          "indexed": false,
          "internalType": "uint8",
          "name": "version",
          "type": "uint8"
        }
      ],
      "name": "Initialized",
      "type": "event"
    },
    {
      "anonymous": false,
      "inputs": [
        {
          "indexed": true,
          "internalType": "address",
          "name": "previousOwner",
          "type": "address"
        },
        {
          "indexed": true,
          "internalType": "address",
          "name": "newOwner",
          "type": "address"
        }
      ],
      "name": "OwnershipTransferred",
      "type": "event"
    },
    {
      "anonymous": false,
      "inputs": [
        {
          "indexed": false,
          "internalType": "uint256",
          "name": "productId",
          "type": "uint256"
        }
      ],
      "name": "ProductStatusChange",
      "type": "event"
    },
    {
      "inputs": [
        {
          "internalType": "uint256",
          "name": "",
          "type": "uint256"
        }
      ],
      "name": "acceptableCurrencies",
      "outputs": [
        {
          "internalType": "address",
          "name": "",
          "type": "address"
        }
      ],
      "stateMutability": "view",
      "type": "function"
    },
    {
      "inputs": [
        {
          "internalType": "address",
          "name": "",
          "type": "address"
        },
        {
          "internalType": "address",
          "name": "",
          "type": "address"
        }
      ],
      "name": "acceptableCurrency",
      "outputs": [
        {
          "internalType": "bool",
          "name": "",
          "type": "bool"
        }
      ],
      "stateMutability": "view",
      "type": "function"
    },
    {
      "inputs": [
        {
          "internalType": "address",
          "name": "",
          "type": "address"
        },
        {
          "internalType": "address",
          "name": "",
          "type": "address"
        }
      ],
      "name": "activeCurrency",
      "outputs": [
        {
          "internalType": "bool",
          "name": "",
          "type": "bool"
        }
      ],
      "stateMutability": "view",
      "type": "function"
    },
    {
      "inputs": [],
      "name": "getProductCounter",
      "outputs": [
        {
          "internalType": "uint256",
          "name": "",
          "type": "uint256"
        }
      ],
      "stateMutability": "view",
      "type": "function"
    },
    {
      "inputs": [],
      "name": "owner",
      "outputs": [
        {
          "internalType": "address",
          "name": "",
          "type": "address"
        }
      ],
      "stateMutability": "view",
      "type": "function"
    },
    {
      "inputs": [
        {
          "internalType": "uint256",
          "name": "",
          "type": "uint256"
        },
        {
          "internalType": "address",
          "name": "",
          "type": "address"
        }
      ],
      "name": "productCurrencies",
      "outputs": [
        {
          "internalType": "bool",
          "name": "",
          "type": "bool"
        }
      ],
      "stateMutability": "view",
      "type": "function"
    },
    {
      "inputs": [
        {
          "internalType": "uint256",
          "name": "",
          "type": "uint256"
        }
      ],
      "name": "products",
      "outputs": [
        {
          "internalType": "address",
          "name": "seller",
          "type": "address"
        },
        {
          "internalType": "string",
          "name": "sku",
          "type": "string"
        },
        {
          "internalType": "uint256",
          "name": "retailPrice",
          "type": "uint256"
        },
        {
          "internalType": "uint256",
          "name": "wholesalePrice",
          "type": "uint256"
        },
        {
          "internalType": "uint8",
          "name": "affiliatePercentage",
          "type": "uint8"
        },
        {
          "internalType": "uint16",
          "name": "funderRate",
          "type": "uint16"
        },
        {
          "internalType": "bool",
          "name": "redeemable",
          "type": "bool"
        },
        {
          "internalType": "bool",
          "name": "buyable",
          "type": "bool"
        }
      ],
      "stateMutability": "view",
      "type": "function"
    },
    {
      "inputs": [],
      "name": "renounceOwnership",
      "outputs": [],
      "stateMutability": "nonpayable",
      "type": "function"
    },
    {
      "inputs": [
        {
          "internalType": "address",
          "name": "newOwner",
          "type": "address"
        }
      ],
      "name": "transferOwnership",
      "outputs": [],
      "stateMutability": "nonpayable",
      "type": "function"
    },
    {
      "inputs": [
        {
          "internalType": "address",
          "name": "store",
          "type": "address"
        }
      ],
      "name": "getStoreProductCount",
      "outputs": [
        {
          "internalType": "uint256",
          "name": "",
          "type": "uint256"
        }
      ],
      "stateMutability": "view",
      "type": "function"
    },
    {
      "inputs": [
        {
          "internalType": "address",
          "name": "store",
          "type": "address"
        },
        {
          "internalType": "uint256",
          "name": "index",
          "type": "uint256"
        }
      ],
      "name": "getStoreProduct",
      "outputs": [
        {
          "components": [
            {
              "internalType": "address",
              "name": "seller",
              "type": "address"
            },
            {
              "internalType": "string",
              "name": "sku",
              "type": "string"
            },
            {
              "internalType": "uint256",
              "name": "retailPrice",
              "type": "uint256"
            },
            {
              "internalType": "uint256",
              "name": "wholesalePrice",
              "type": "uint256"
            },
            {
              "internalType": "uint8",
              "name": "affiliatePercentage",
              "type": "uint8"
            },
            {
              "internalType": "uint16",
              "name": "funderRate",
              "type": "uint16"
            },
            {
              "internalType": "bool",
              "name": "redeemable",
              "type": "bool"
            },
            {
              "internalType": "bool",
              "name": "buyable",
              "type": "bool"
            }
          ],
          "internalType": "struct ProductFactory.Product",
          "name": "",
          "type": "tuple"
        }
      ],
      "stateMutability": "view",
      "type": "function"
    },
    {
      "inputs": [
        {
          "internalType": "address",
          "name": "store",
          "type": "address"
        },
        {
          "internalType": "string",
          "name": "_sku",
          "type": "string"
        }
      ],
      "name": "getProductIdBySKU",
      "outputs": [
        {
          "internalType": "uint256",
          "name": "",
          "type": "uint256"
        }
      ],
      "stateMutability": "view",
      "type": "function"
    },
    {
      "inputs": [
        {
          "internalType": "string",
          "name": "_sku",
          "type": "string"
        },
        {
          "internalType": "uint256",
          "name": "_wholesalePrice",
          "type": "uint256"
        },
        {
          "internalType": "uint256",
          "name": "_retailPrice",
          "type": "uint256"
        },
        {
          "internalType": "uint8",
          "name": "_affiliatePercentage",
          "type": "uint8"
        },
        {
          "internalType": "uint16",
          "name": "_funderRate",
          "type": "uint16"
        },
        {
          "internalType": "uint32",
          "name": "_refundablePeriod",
          "type": "uint32"
        },
        {
          "internalType": "bool",
          "name": "redeemable",
          "type": "bool"
        },
        {
          "internalType": "bool",
          "name": "buyable",
          "type": "bool"
        }
      ],
      "name": "postProduct",
      "outputs": [],
      "stateMutability": "nonpayable",
      "type": "function"
    },
    {
      "inputs": [
        {
          "internalType": "uint256",
          "name": "productId",
          "type": "uint256"
        },
        {
          "internalType": "uint256",
          "name": "wholesalePrice",
          "type": "uint256"
        },
        {
          "internalType": "uint256",
          "name": "retailPrice",
          "type": "uint256"
        },
        {
          "internalType": "uint8",
          "name": "affiliatePercentage",
          "type": "uint8"
        },
        {
          "internalType": "uint16",
          "name": "funderRate",
          "type": "uint16"
        },
        {
          "internalType": "bool",
          "name": "redeemable",
          "type": "bool"
        },
        {
          "internalType": "bool",
          "name": "buyable",
          "type": "bool"
        }
      ],
      "name": "updateProduct",
      "outputs": [],
      "stateMutability": "nonpayable",
      "type": "function"
    },
    {
      "inputs": [
        {
          "internalType": "uint256",
          "name": "productId",
          "type": "uint256"
        },
        {
          "internalType": "address",
          "name": "currency",
          "type": "address"
        }
      ],
      "name": "addCurrencyToProduct",
      "outputs": [],
      "stateMutability": "nonpayable",
      "type": "function"
    },
    {
      "inputs": [
        {
          "internalType": "address",
          "name": "_store",
          "type": "address"
        },
        {
          "internalType": "address",
          "name": "_currency",
          "type": "address"
        }
      ],
      "name": "isCurrencyAcceptable",
      "outputs": [
        {
          "internalType": "bool",
          "name": "",
          "type": "bool"
        }
      ],
      "stateMutability": "view",
      "type": "function"
    },
    {
      "inputs": [
        {
          "internalType": "address",
          "name": "_currency",
          "type": "address"
        }
      ],
      "name": "addAcceptableCurrency",
      "outputs": [],
      "stateMutability": "nonpayable",
      "type": "function"
    },
    {
      "inputs": [
        {
          "internalType": "uint256",
          "name": "_productId",
          "type": "uint256"
        },
        {
          "internalType": "address",
          "name": "_currency",
          "type": "address"
        }
      ],
      "name": "removeCurrencyFromProduct",
      "outputs": [],
      "stateMutability": "nonpayable",
      "type": "function"
    },
    {
      "inputs": [
        {
          "internalType": "address",
          "name": "_currency",
          "type": "address"
        }
      ],
      "name": "activateCurrency",
      "outputs": [],
      "stateMutability": "nonpayable",
      "type": "function"
    },
    {
      "inputs": [
        {
          "internalType": "address",
          "name": "_currency",
          "type": "address"
        }
      ],
      "name": "deactivateCurrency",
      "outputs": [],
      "stateMutability": "nonpayable",
      "type": "function"
    },
    {
      "inputs": [
        {
          "internalType": "address",
          "name": "_store",
          "type": "address"
        },
        {
          "internalType": "address",
          "name": "_currency",
          "type": "address"
        }
      ],
      "name": "isCurrencyActive",
      "outputs": [
        {
          "internalType": "bool",
          "name": "",
          "type": "bool"
        }
      ],
      "stateMutability": "view",
      "type": "function"
    },
    {
      "inputs": [
        {
          "internalType": "uint256",
          "name": "_id",
          "type": "uint256"
        }
      ],
      "name": "getProduct",
      "outputs": [
        {
          "components": [
            {
              "internalType": "address",
              "name": "seller",
              "type": "address"
            },
            {
              "internalType": "string",
              "name": "sku",
              "type": "string"
            },
            {
              "internalType": "uint256",
              "name": "retailPrice",
              "type": "uint256"
            },
            {
              "internalType": "uint256",
              "name": "wholesalePrice",
              "type": "uint256"
            },
            {
              "internalType": "uint8",
              "name": "affiliatePercentage",
              "type": "uint8"
            },
            {
              "internalType": "uint16",
              "name": "funderRate",
              "type": "uint16"
            },
            {
              "internalType": "bool",
              "name": "redeemable",
              "type": "bool"
            },
            {
              "internalType": "bool",
              "name": "buyable",
              "type": "bool"
            }
          ],
          "internalType": "struct ProductFactory.Product",
          "name": "_product",
          "type": "tuple"
        }
      ],
      "stateMutability": "view",
      "type": "function"
    },
    {
      "inputs": [
        {
          "internalType": "uint256[]",
          "name": "_ids",
          "type": "uint256[]"
        }
      ],
      "name": "getProducts",
      "outputs": [
        {
          "components": [
            {
              "internalType": "address",
              "name": "seller",
              "type": "address"
            },
            {
              "internalType": "string",
              "name": "sku",
              "type": "string"
            },
            {
              "internalType": "uint256",
              "name": "retailPrice",
              "type": "uint256"
            },
            {
              "internalType": "uint256",
              "name": "wholesalePrice",
              "type": "uint256"
            },
            {
              "internalType": "uint8",
              "name": "affiliatePercentage",
              "type": "uint8"
            },
            {
              "internalType": "uint16",
              "name": "funderRate",
              "type": "uint16"
            },
            {
              "internalType": "bool",
              "name": "redeemable",
              "type": "bool"
            },
            {
              "internalType": "bool",
              "name": "buyable",
              "type": "bool"
            }
          ],
          "internalType": "struct ProductFactory.Product[]",
          "name": "",
          "type": "tuple[]"
        }
      ],
      "stateMutability": "view",
      "type": "function"
    },
    {
      "inputs": [
        {
          "internalType": "uint256",
          "name": "_productId",
          "type": "uint256"
        }
      ],
      "name": "getProductCurrencies",
      "outputs": [
        {
          "internalType": "address[]",
          "name": "",
          "type": "address[]"
        }
      ],
      "stateMutability": "view",
      "type": "function"
    },
    {
      "inputs": [
        {
          "internalType": "uint256",
          "name": "_productId",
          "type": "uint256"
        },
        {
          "internalType": "address",
          "name": "_currency",
          "type": "address"
        }
      ],
      "name": "isCurrencyAcceptableForProduct",
      "outputs": [
        {
          "internalType": "bool",
          "name": "",
          "type": "bool"
        }
      ],
      "stateMutability": "view",
      "type": "function"
    },
    {
      "inputs": [
        {
          "internalType": "uint256",
          "name": "productID",
          "type": "uint256"
        }
      ],
      "name": "isProductRefundable",
      "outputs": [
        {
          "internalType": "bool",
          "name": "",
          "type": "bool"
        }
      ],
      "stateMutability": "view",
      "type": "function"
    },
    {
      "inputs": [
        {
          "internalType": "address",
          "name": "store",
          "type": "address"
        }
      ],
      "name": "getStoreCurrencyCount",
      "outputs": [
        {
          "internalType": "uint256",
          "name": "",
          "type": "uint256"
        }
      ],
      "stateMutability": "view",
      "type": "function"
    },
    {
      "inputs": [
        {
          "internalType": "address",
          "name": "_store",
          "type": "address"
        },
        {
          "internalType": "uint256",
          "name": "_index",
          "type": "uint256"
        }
      ],
      "name": "getStoreCurrencyByIndex",
      "outputs": [
        {
          "internalType": "address",
          "name": "",
          "type": "address"
        }
      ],
      "stateMutability": "view",
      "type": "function"
    },
    {
      "inputs": [],
      "name": "getCurrencies",
      "outputs": [
        {
          "internalType": "address[]",
          "name": "",
          "type": "address[]"
        }
      ],
      "stateMutability": "view",
      "type": "function"
    }
  ],
  "bytecode": "0x608060405234801561001057600080fd5b506126cf806100206000396000f3fe608060405234801561001057600080fd5b50600436106101cf5760003560e01c80637c19723711610104578063bd5d8008116100a2578063d755bb3711610071578063d755bb371461048f578063dd77345e146104bd578063eca82492146104d0578063f2fde38b146104e357600080fd5b8063bd5d800814610443578063c54fc00414610456578063d172d79b14610469578063d27e1a181461047c57600080fd5b80639a6cb9e9116100de5780639a6cb9e91461039d578063a10a0adf146103cb578063a7262ba214610407578063b9db15b41461043057600080fd5b80637c197237146103665780638da5cb5b1461037957806395fea6101461038a57600080fd5b8063543d1ba111610171578063704723e21161014b578063704723e214610311578063715018a6146103245780637a1024721461032c5780637acc0b201461033f57600080fd5b8063543d1ba1146102c05780635ffb750a146102e957806361c661de146102fc57600080fd5b80630c62a8aa116101ad5780630c62a8aa1461023d5780631d3d93d41461027b578063217b635e1461028e57806326fdfcb3146102ae57600080fd5b8063081c73f7146101d45780630ab7d150146101e95780630bbc442314610212575b600080fd5b6101e76101e2366004611fcd565b6104f6565b005b6101fc6101f7366004612065565b610503565b604051610209919061255f565b60405180910390f35b6102256102203660046121e2565b610640565b6040516001600160a01b039091168152602001610209565b61026b61024b366004611fe7565b606b60209081526000928352604080842090915290825290205460ff1681565b6040519015158152602001610209565b6101e7610289366004611fcd565b61066a565b6102a161029c36600461208e565b6106ca565b604051610209919061240d565b6066545b604051908152602001610209565b6102b26102ce366004611fcd565b6001600160a01b03166000908152606c602052604090205490565b61026b6102f73660046121fa565b6107b9565b6103046107f1565b60405161020991906123c0565b61030461031f3660046121e2565b610853565b6101e7610b57565b61022561033a366004612065565b610bbd565b61035261034d3660046121e2565b610c46565b60405161020998979695949392919061235d565b6101e76103743660046121fa565b610d2b565b6033546001600160a01b0316610225565b61026b610398366004611fe7565b610ea1565b61026b6103ab3660046121fa565b606960209081526000928352604080842090915290825290205460ff1681565b61026b6103d9366004611fe7565b6001600160a01b039182166000908152606e6020908152604080832093909416825291909152205460ff1690565b6102b2610415366004611fcd565b6001600160a01b031660009081526068602052604090205490565b6101fc61043e3660046121e2565b610ecf565b6101e7610451366004612136565b610fee565b6101e7610464366004611fcd565b6113ed565b6101e761047736600461221c565b611441565b61026b61048a3660046121e2565b6117f6565b61026b61049d366004611fe7565b606e60209081526000928352604080842090915290825290205460ff1681565b6101e76104cb3660046121fa565b61181b565b6102b26104de366004612019565b611b13565b6101e76104f1366004611fcd565b611be5565b6105008133611cad565b50565b61050b611e35565b6001600160a01b038084166000908152606a602090815260408083208684528252808320548084526065835281842082516101008101909352805490951682526001850180549195929384019161056190612617565b80601f016020809104026020016040519081016040528092919081815260200182805461058d90612617565b80156105da5780601f106105af576101008083540402835291602001916105da565b820191906000526020600020905b8154815290600101906020018083116105bd57829003601f168201915b5050509183525050600282015460208201526003820154604082015260049091015460ff808216606084015261ffff6101008304166080840152630100000082048116151560a0840152600160201b90910416151560c090910152925050505b92915050565b6070818154811061065057600080fd5b6000918252602090912001546001600160a01b0316905081565b6106743382610ea1565b6106995760405162461bcd60e51b81526004016106909061250d565b60405180910390fd5b336000908152606e602090815260408083206001600160a01b0394909416835292905220805460ff19166001179055565b60606000825167ffffffffffffffff8111156106f657634e487b7160e01b600052604160045260246000fd5b60405190808252806020026020018201604052801561072f57816020015b61071c611e35565b8152602001906001900390816107145790505b50905060005b83518110156107b257600061077085838151811061076357634e487b7160e01b600052603260045260246000fd5b6020026020010151610ecf565b90508083838151811061079357634e487b7160e01b600052603260045260246000fd5b60200260200101819052505080806107aa90612652565b915050610735565b5092915050565b60008281526069602090815260408083206001600160a01b0385168452909152812054819060ff16156107ea575060015b9392505050565b6060607080548060200260200160405190810160405280929190818152602001828054801561084957602002820191906000526020600020905b81546001600160a01b0316815260019091019060200180831161082b575b5050505050905090565b60008181526065602090815260408083208151610100810190925280546001600160a01b03168252600181018054606095948401919061089290612617565b80601f01602080910402602001604051908101604052809291908181526020018280546108be90612617565b801561090b5780601f106108e05761010080835404028352916020019161090b565b820191906000526020600020905b8154815290600101906020018083116108ee57829003601f168201915b5050509183525050600282015460208201526003820154604082015260049091015460ff808216606084015261ffff6101008304166080840152630100000082048116151560a0840152600160201b90910416151560c09091015290506000805b82516001600160a01b03166000908152606c60205260409020548111610a0057825161099c906103d98184610bbd565b156109ee57600085815260696020526040812084519091906109be9084610bbd565b6001600160a01b0316815260208101919091526040016000205460ff16156109ee57816109ea81612652565b9250505b806109f881612652565b91505061096c565b5060008167ffffffffffffffff811115610a2a57634e487b7160e01b600052604160045260246000fd5b604051908082528060200260200182016040528015610a53578160200160208202803683370190505b5090506000805b838111610b4c578451610a71906103d98184610bbd565b15610b3a5760008781526069602052604081208651909190610a939084610bbd565b6001600160a01b0316815260208101919091526040016000205460ff1615610b3a5760708181548110610ad657634e487b7160e01b600052603260045260246000fd5b9060005260206000200160009054906101000a90046001600160a01b0316838381518110610b1457634e487b7160e01b600052603260045260246000fd5b6001600160a01b039092166020928302919091019091015281610b3681612652565b9250505b80610b4481612652565b915050610a5a565b509095945050505050565b6033546001600160a01b03163314610bb15760405162461bcd60e51b815260206004820181905260248201527f4f776e61626c653a2063616c6c6572206973206e6f7420746865206f776e65726044820152606401610690565b610bbb6000611dbf565b565b6001600160a01b0382166000908152606c60205260408120548210610c1d5760405162461bcd60e51b8152602060048201526016602482015275496e646578206973206f7574206f6620626f756e647360501b6044820152606401610690565b506001600160a01b039182166000908152606d6020908152604080832093835292905220541690565b606560205260009081526040902080546001820180546001600160a01b039092169291610c7290612617565b80601f0160208091040260200160405190810160405280929190818152602001828054610c9e90612617565b8015610ceb5780601f10610cc057610100808354040283529160200191610ceb565b820191906000526020600020905b815481529060010190602001808311610cce57829003601f168201915b50505050600283015460038401546004909401549293909290915060ff80821691610100810461ffff169163010000008204811691600160201b90041688565b60008281526065602090815260408083208151610100810190925280546001600160a01b03168252600181018054879533959094939290840191610d6e90612617565b80601f0160208091040260200160405190810160405280929190818152602001828054610d9a90612617565b8015610de75780601f10610dbc57610100808354040283529160200191610de7565b820191906000526020600020905b815481529060010190602001808311610dca57829003601f168201915b5050509183525050600282015460208201526003820154604082015260049091015460ff8082166060840152610100820461ffff166080840152630100000082048116151560a0840152600160201b90910416151560c09091015280519091506001600160a01b03838116911614610e715760405162461bcd60e51b81526004016106909061246e565b50505060009182526069602090815260408084206001600160a01b0390931684529190529020805460ff19169055565b6001600160a01b039182166000908152606b6020908152604080832093909416825291909152205460ff1690565b610ed7611e35565b6000828152606560209081526040918290208251610100810190935280546001600160a01b031683526001810180549192840191610f1490612617565b80601f0160208091040260200160405190810160405280929190818152602001828054610f4090612617565b8015610f8d5780601f10610f6257610100808354040283529160200191610f8d565b820191906000526020600020905b815481529060010190602001808311610f7057829003601f168201915b5050509183525050600282015460208201526003820154604082015260049091015460ff808216606084015261ffff6101008304166080840152630100000082048116151560a0840152600160201b90910416151560c09091015292915050565b61271087101561104a5760405162461bcd60e51b815260206004820152602160248201527f57686f6c7365616c652070726963652069732062656c6f77206d696e696d756d6044820152602160f81b6064820152608401610690565b61271086101561109c5760405162461bcd60e51b815260206004820152601e60248201527f52657461696c2070726963652069732062656c6f77206d696e696d756d2100006044820152606401610690565b8686116111065760405162461bcd60e51b815260206004820152603260248201527f52657461696c207072696365206d7573742062652067726561746572207468616044820152716e2057686f6c6573616c652070726963652160701b6064820152608401610690565b6111103389611b13565b1561116b5760405162461bcd60e51b815260206004820152602560248201527f50726f647563742077697468207468697320534b5520616c7265616479206578604482015264697374732160d81b6064820152608401610690565b60648560ff161061118e5760405162461bcd60e51b8152600401610690906124cb565b611196611e35565b33815260208101899052606081018890526040810187905260ff8616608082015261ffff851660a082015282151560c082015281151560e08201526111d9611e11565b5080606560006111e860665490565b8152602080820192909252604001600020825181546001600160a01b0319166001600160a01b03909116178155828201518051919261122f92600185019290910190611e7a565b50604082015160028201556060820151600382015560808201516004909101805460a084015160c085015160e0909501511515600160201b0264ff00000000199515156301000000029590951664ffff0000001961ffff9092166101000262ffffff1990931660ff90951694909417919091171691909117919091179055606b60006112b83390565b6001600160a01b03908116825260208083019390935260409182016000908120606f549092168152925290205460ff1661130257606f54611302906001600160a01b031633611cad565b61131f61130e60665490565b606f546001600160a01b031661181b565b61132c8462093a806125bb565b61133c9063ffffffff16426125a3565b6067600061134960665490565b815260208082019290925260409081016000908120939093553383526068909152812080546001929061137d9084906125a3565b9091555050606654336000908152606a60209081526040808320606883528184205484529091529020557fc0a2dd4e6e15ffb73d268319140fb74a56d44d60337aefee0db2e3568930b22c6113d160665490565b60405190815260200160405180910390a1505050505050505050565b6113f73382610ea1565b6114135760405162461bcd60e51b81526004016106909061250d565b336000908152606e602090815260408083206001600160a01b0394909416835292905220805460ff19169055565b86801580159061145357506066548111155b61149f5760405162461bcd60e51b815260206004820152601760248201527f50726f6475637420646f6573206e6f74206578697374210000000000000000006044820152606401610690565b60648560ff16106114c25760405162461bcd60e51b8152600401610690906124cb565b6103e88461ffff16106115175760405162461bcd60e51b815260206004820152601860248201527f46756e64657220415059206f7574206f6620626f756e647300000000000000006044820152606401610690565b85871061157d5760405162461bcd60e51b815260206004820152602e60248201527f57686f6c6573616c65207072696365206d757374206265206c6573732074686160448201526d6e2052657461696c20707269636560901b6064820152608401610690565b60008881526065602090815260408083208151610100810190925280546001600160a01b0316825260018101805492939192918401916115bc90612617565b80601f01602080910402602001604051908101604052809291908181526020018280546115e890612617565b80156116355780601f1061160a57610100808354040283529160200191611635565b820191906000526020600020905b81548152906001019060200180831161161857829003601f168201915b5050509183525050600282015460208201526003820154604082015260049091015460ff80821660608085019190915261ffff6101008404166080850152630100000083048216151560a0850152600160201b90920416151560c09092019190915281015190915088146116ab57606081018890525b868160400151146116be57604081018790525b8560ff16816080015160ff16146116d95760ff861660808201525b8461ffff168160a0015161ffff16146116f75761ffff851660a08201525b8315158160c0015115151461170f5783151560c08201525b8215158160e001511515146117275782151560e08201525b6000898152606560209081526040909120825181546001600160a01b0319166001600160a01b03909116178155828201518051849361176d926001850192910190611e7a565b50604082015160028201556060820151600382015560808201516004909101805460a084015160c085015160e0909501511515600160201b0264ff00000000199515156301000000029590951664ffff0000001961ffff9092166101000262ffffff1990931660ff90951694909417919091171691909117919091179055505050505050505050565b600081815260676020526040812054421061181357506001919050565b506000919050565b60008281526065602090815260408083208151610100810190925280546001600160a01b0316825260018101805487953395909493929084019161185e90612617565b80601f016020809104026020016040519081016040528092919081815260200182805461188a90612617565b80156118d75780601f106118ac576101008083540402835291602001916118d7565b820191906000526020600020905b8154815290600101906020018083116118ba57829003601f168201915b5050509183525050600282015460208201526003820154604082015260049091015460ff8082166060840152610100820461ffff166080840152630100000082048116151560a0840152600160201b90910416151560c09091015280519091506001600160a01b038381169116146119615760405162461bcd60e51b81526004016106909061246e565b60008581526065602090815260408083208151610100810190925280546001600160a01b0316825260018101805492939192918401916119a090612617565b80601f01602080910402602001604051908101604052809291908181526020018280546119cc90612617565b8015611a195780601f106119ee57610100808354040283529160200191611a19565b820191906000526020600020905b8154815290600101906020018083116119fc57829003601f168201915b5050509183525050600282015460208201526003820154604082015260049091015460ff808216606084015261ffff6101008304166080840152630100000082048116151560a0840152600160201b90910416151560c0909101528051909150611a839086610ea1565b611adf5760405162461bcd60e51b815260206004820152602760248201527f43757272656e6379206973206e6f7420616363657074656420627920746869736044820152662053746f72652160c81b6064820152608401610690565b5050506000928352506069602090815260408084206001600160a01b0390931684529190529020805460ff19166001179055565b6001600160a01b038216600090815260686020526040812054611b385750600061063a565b60005b6001600160a01b0384166000908152606860205260409020548111611bdb576000611b668583610503565b905083604051602001611b799190612341565b604051602081830303815290604052805190602001208160200151604051602001611ba49190612341565b604051602081830303815290604052805190602001201415611bc85750905061063a565b5080611bd381612652565b915050611b3b565b5060009392505050565b6033546001600160a01b03163314611c3f5760405162461bcd60e51b815260206004820181905260248201527f4f776e61626c653a2063616c6c6572206973206e6f7420746865206f776e65726044820152606401610690565b6001600160a01b038116611ca45760405162461bcd60e51b815260206004820152602660248201527f4f776e61626c653a206e6577206f776e657220697320746865207a65726f206160448201526564647265737360d01b6064820152608401610690565b61050081611dbf565b611cb78183610ea1565b15611d105760405162461bcd60e51b8152602060048201526024808201527f5468697320637572726e65637920697320616c72656164792061636365707461604482015263626c652160e01b6064820152608401610690565b6001600160a01b038181166000818152606e602090815260408083209487168084529482528083208054600160ff199182168117909255858552606b8452828520968552958352818420805490961617909455918152606c909152205480611d7781612652565b6001600160a01b039384166000908152606c60209081526040808320849055606d82528083209383529290522080546001600160a01b03191694909316939093179091555050565b603380546001600160a01b038381166001600160a01b0319831681179093556040519116919082907f8be0079c531659141344cd1fd0a4f28419497f9722a3daafe3b4186f6b6457e090600090a35050565b600080611e1d60665490565b905080611e2981612652565b60665550600192915050565b604080516101008101825260008082526060602083018190529282018190529181018290526080810182905260a0810182905260c0810182905260e081019190915290565b828054611e8690612617565b90600052602060002090601f016020900481019282611ea85760008555611eee565b82601f10611ec157805160ff1916838001178555611eee565b82800160010185558215611eee579182015b82811115611eee578251825591602001919060010190611ed3565b50611efa929150611efe565b5090565b5b80821115611efa5760008155600101611eff565b80356001600160a01b0381168114611f2a57600080fd5b919050565b80358015158114611f2a57600080fd5b600082601f830112611f4f578081fd5b813567ffffffffffffffff811115611f6957611f69612683565b611f7c601f8201601f1916602001612572565b818152846020838601011115611f90578283fd5b816020850160208301379081016020019190915292915050565b803561ffff81168114611f2a57600080fd5b803560ff81168114611f2a57600080fd5b600060208284031215611fde578081fd5b6107ea82611f13565b60008060408385031215611ff9578081fd5b61200283611f13565b915061201060208401611f13565b90509250929050565b6000806040838503121561202b578182fd5b61203483611f13565b9150602083013567ffffffffffffffff81111561204f578182fd5b61205b85828601611f3f565b9150509250929050565b60008060408385031215612077578182fd5b61208083611f13565b946020939093013593505050565b600060208083850312156120a0578182fd5b823567ffffffffffffffff808211156120b7578384fd5b818501915085601f8301126120ca578384fd5b8135818111156120dc576120dc612683565b8060051b91506120ed848301612572565b8181528481019084860184860187018a1015612107578788fd5b8795505b8386101561212957803583526001959095019491860191860161210b565b5098975050505050505050565b600080600080600080600080610100898b031215612152578384fd5b883567ffffffffffffffff811115612168578485fd5b6121748b828c01611f3f565b985050602089013596506040890135955061219160608a01611fbc565b945061219f60808a01611faa565b935060a089013563ffffffff811681146121b7578384fd5b92506121c560c08a01611f2f565b91506121d360e08a01611f2f565b90509295985092959890939650565b6000602082840312156121f3578081fd5b5035919050565b6000806040838503121561220c578182fd5b8235915061201060208401611f13565b600080600080600080600060e0888a031215612236578283fd5b87359650602088013595506040880135945061225460608901611fbc565b935061226260808901611faa565b925061227060a08901611f2f565b915061227e60c08901611f2f565b905092959891949750929550565b600081518084526122a48160208601602086016125e7565b601f01601f19169290920160200192915050565b600061010060018060a01b03835116845260208301518160208601526122e08286018261228c565b915050604083015160408501526060830151606085015260ff608084015116608085015261ffff60a08401511660a085015260c083015161232560c086018215159052565b5060e083015161233960e086018215159052565b509392505050565b600082516123538184602087016125e7565b9190910192915050565b6001600160a01b0389168152610100602082018190526000906123828382018b61228c565b60408401999099525050606081019590955260ff93909316608085015261ffff9190911660a0840152151560c0830152151560e09091015292915050565b6020808252825182820181905260009190848201906040850190845b818110156124015783516001600160a01b0316835292840192918401916001016123dc565b50909695505050505050565b6000602080830181845280855180835260408601915060408160051b8701019250838701855b8281101561246157603f1988860301845261244f8583516122b8565b94509285019290850190600101612433565b5092979650505050505050565b6020808252603b908201527f4f6e6c79207468652053746f72652073656c6c696e6720746869732070726f6460408201527f7563742063616e2063616c6c20746869732066756e6374696f6e210000000000606082015260800190565b60208082526022908201527f416666696c696174652050657263656e74616765206f7574206f6620626f756e604082015261647360f01b606082015260800190565b60208082526032908201527f43757272656e6379206973206e6f7420696e207468652061636365707461626c6040820152716543757272656e636965732061727261792160701b606082015260800190565b6020815260006107ea60208301846122b8565b604051601f8201601f1916810167ffffffffffffffff8111828210171561259b5761259b612683565b604052919050565b600082198211156125b6576125b661266d565b500190565b600063ffffffff808316818516818304811182151516156125de576125de61266d565b02949350505050565b60005b838110156126025781810151838201526020016125ea565b83811115612611576000848401525b50505050565b600181811c9082168061262b57607f821691505b6020821081141561264c57634e487b7160e01b600052602260045260246000fd5b50919050565b60006000198214156126665761266661266d565b5060010190565b634e487b7160e01b600052601160045260246000fd5b634e487b7160e01b600052604160045260246000fdfea264697066735822122074a1b4dfa1fbc09e6ef45b11a07473d3cd1d538cc2b9beaef862074d3f2d51d164736f6c63430008040033",
  "immutableReferences": {},
  "source": "// contracts/Box.sol\n// SPDX-License-Identifier: MIT\npragma solidity ^0.8.4;\n\nimport \"./ProductFactory.sol\";\nimport \"@openzeppelin/contracts/token/ERC20/IERC20.sol\";\n \ncontract ProductPostable is ProductFactory {\n\n\n    event ProductStatusChange(uint256 productId);\n\n    // Mapping from Product ID to the time when customers can no longer purchase a preorderNFT\n    // mapping (uint => uint) public ProductBuyableDate;\n    // Mapping from Product ID to the time when customers can either redeem or refund their NFTs\n    mapping (uint => uint) ProductRefundableDate;\n    // Mapping from address of a store to the number of products they have listed\n    mapping (address => uint) storeProductCounter;\n    // Mapping from Product ID to mapping from currency address to acceptable boolean\n    mapping (uint => mapping (address => bool)) public productCurrencies;\n    // Mapping from Store address to list of Store's product IDs\n    mapping(address => mapping(uint256 => uint256)) private _storeProducts;\n    // Mapping from Store address to Currency address to return if a currency has ever been acceptable for a specific Store or not\n    mapping (address => mapping (address => bool)) public acceptableCurrency;\n    // Mapping from a Store's address to the number of currencies it accepts\n    mapping (address => uint256) private storeCurrencyCount;\n    // Mapping from a Store's address to mapping from an index number to currency address\n    mapping (address => mapping (uint256 => address)) private indexedStoreCurrency;\n    // Mapping from Store address to Currency address to return if a currency is globally active for a specific Store or not\n    mapping (address => mapping (address => bool)) public activeCurrency;\n\n    // The default token to be accepted as a currency.\n    IERC20 private platformToken;\n    // Array of the acceptable currencies\n    address[] public acceptableCurrencies;\n\n    function __ProductPostable_init(address _currency) initializer internal {\n        __ProductPostable_init_unchained(_currency);\n    }\n\n    // Pretty sure I don't need this init function, its only needed in the proxy contract\n    /**\n     * @dev Initialzes the contract.\n     * @param _currency The default currency for which to trade for the item.\n     */\n    function __ProductPostable_init_unchained(address _currency) initializer internal {\n        // currency passed as param is used as default currency token and added to the acceptableCurrencies mapping\n        platformToken = IERC20(_currency);\n        // acceptableCurrencies[0] will be the default currency that is acceptable for all products by default\n        acceptableCurrencies.push(_currency);\n        __ProductFactory_init();\n    }\n\n    /**\n     * @dev Returns an array of all products listed by a specific Store\n     */\n    //  Note: The client should get all the stores product ID's then call getProducts\n     function getStoreProductCount(address store) public view returns(uint) {\n        return storeProductCounter[store];\n     }\n\n     function getStoreProduct(address store, uint256 index) public view returns(Product memory) {\n        uint _productID = _storeProducts[store][index];\n        Product memory _product = products[_productID];\n        return _product;\n     }\n\n    /**\n     * @dev Gets the Product ID to corresponds to the provided SKU.\n     * @param _sku The SKU tp match to a prduct ID.\n     */\n    function getProductIdBySKU(address store, string memory _sku) public view returns(uint256) {\n        if (getStoreProductCount(store) == 0) {\n            return 0;\n        }\n        for (uint256 i = 0; i <= getStoreProductCount(store); i++) {\n            Product memory ref = getStoreProduct(store, i);\n            if (keccak256(abi.encodePacked(ref.sku)) == keccak256(abi.encodePacked(_sku))) {\n                return i;\n            }\n        }\n        return 0;\n    }\n\n     /**\n     * @dev Posts a new type of product. \n     * @param _sku The name for the item to trade.\n     * @param _wholesalePrice The wholesale price value.\n     * @param _retailPrice The retail price value.\n     * @param _affiliatePercentage The affiliate percentage.\n     * @param _funderRate APY promised to funders\n     * @param _refundablePeriod The redeemable period, in weeks.\n     * @param redeemable Redeemable status flag\n     * @param buyable Buyable status flag\n     */\n    // TODO: Only the store owner should be able to post a product.\n    function postProduct(string memory _sku, uint256 _wholesalePrice, uint256 _retailPrice, uint8 _affiliatePercentage, uint16 _funderRate, uint32 _refundablePeriod, bool redeemable, bool buyable) external {\n        // Require that the wholesale and retail prices are above minimums, so we can divide out the affiliate and customers cuts\n        require(_wholesalePrice >= 10000, \"Wholseale price is below minimum!\");\n        require(_retailPrice >= 10000, \"Retail price is below minimum!\");\n        require(_retailPrice > _wholesalePrice, \"Retail price must be greater than Wholesale price!\");\n        // Require that the SKU is unique\n        require(getProductIdBySKU(_msgSender(), _sku) == 0, \"Product with this SKU already exists!\");\n        // TODO: Define more specifc bounds for the affiliate percentage\n        require(_affiliatePercentage < 100, \"Affiliate Percentage out of bounds\");\n        Product memory newProduct;\n        newProduct.seller = msg.sender;\n        newProduct.sku =  _sku;\n        // TODO: I think 18 is what the decimals() function in erc20 returns usually, but not sure about _price * 10 ** 18\n        // Note: This should probably be _retailPrice * currencyToken.decimals\n        newProduct.wholesalePrice = _wholesalePrice;\n        // Note: This should probably be _retailPrice * currencyToken.decimals\n        newProduct.retailPrice = _retailPrice;\n        // This integer will be converted to a percentage to be shared with affiliates\n        newProduct.affiliatePercentage = _affiliatePercentage;\n        // This integer will be the APY percentage earned by funders\n        newProduct.funderRate = _funderRate;\n        // TODO: These next two booleans may need to be set as params passed in by the user instead of defaulting to true\n        newProduct.redeemable = redeemable;\n        newProduct.buyable = buyable;\n        // Using productCounter in an attempt to auto increment ID's\n        incrementProductcounter();\n        // NOTE: productId 0 will never be assigned, it's reserved as an empty product (if product ID is 0, product doesn't exist)\n        products[getProductCounter()] = newProduct;\n        // Note: We set the default currency as accpetable. \n\n        if (!acceptableCurrency[_msgSender()][address(platformToken)]) _addAcceptableCurrency(address(platformToken), _msgSender());\n        addCurrencyToProduct(getProductCounter(), address(platformToken));\n        // Set this balance of the default currency for this product to 0\n        // productBalances[productCounter][address(platformToken)] = 0;\n        // Set the buyable expiration date to be _buyablePeriod from now in milliseconds\n        // ProductBuyableDate[getProductCounter()] = uint32(block.timestamp + _buyablePeriod);\n        // Set the redeemable date to be _redeemablePeriod from now in milliseconds\n        ProductRefundableDate[getProductCounter()] = uint256(block.timestamp + (_refundablePeriod * 1 weeks));\n        // If this is the Store's first product, make the storeProductCounter 1, else increment the Store's product counter by 1\n        // if (storeProductCounter[msg.sender] < 1) {\n        //     storeProductCounter[msg.sender] = 1;\n        // } else {\n            // Note: I have a feeling this won't work for the first product\n            storeProductCounter[msg.sender] += 1;\n        // }\n        // _storeProducts[msg.sender][0] will never exist\n        _storeProducts[msg.sender][storeProductCounter[msg.sender]] = getProductCounter();\n        // _storeProductIndexByProductID[getProductCounter()] = storeProductCounter[msg.sender];\n        emit ProductStatusChange(getProductCounter());\n    }\n\n    // TODO: Make this function only callable by the owner (or an admin with permissions)\n    // NOTE: I don't think we ever want to change the seller attribute of a product\n    /**\n     * @dev Updates an existing product.\n     * @param productId The Product to update.\n     * @param wholesalePrice The updated wholesale price value.\n     * @param retailPrice The updated retail price value.\n     * @param affiliatePercentage The updated  affiliate percentage.\n     * @param funderRate The aPY promised to the funder\n     * @param redeemable The updated redeemable value.\n     * @param buyable The updated buyable value.\n     */\n    function updateProduct(\n        uint256 productId, \n        uint256 wholesalePrice, \n        uint256 retailPrice, \n        uint8 affiliatePercentage,\n        uint16 funderRate,\n        bool redeemable, \n        bool buyable\n        ) external productExists(productId) {\n        // require(_productId > 0 && _productId <= productCounter, \"Product ID is out of bounds!\");\n        // TODO: Define more specifc bounds for the affiliate percentage\n        require(affiliatePercentage < 100, \"Affiliate Percentage out of bounds\");\n        require(funderRate < 1000, \"Funder APY out of bounds\");\n        require(wholesalePrice < retailPrice, \"Wholesale price must be less than Retail price\");\n        // Initialize a copy of the existing product with ID _productId\n        Product memory updatedProduct = products[productId];\n        // Change the copy's values to the provided params\n        if (updatedProduct.wholesalePrice != wholesalePrice) updatedProduct.wholesalePrice = wholesalePrice;\n        if (updatedProduct.retailPrice != retailPrice) updatedProduct.retailPrice = retailPrice;\n        if (updatedProduct.affiliatePercentage != affiliatePercentage) updatedProduct.affiliatePercentage = affiliatePercentage;\n        if (updatedProduct.funderRate != funderRate) updatedProduct.funderRate = funderRate;\n        if (updatedProduct.redeemable != redeemable) updatedProduct.redeemable = redeemable;\n        if (updatedProduct.buyable != buyable) updatedProduct.buyable = buyable;\n        // Assign the _productId to the new edited Product\n        products[productId] = updatedProduct;\n    }\n\n    // TODO: Need to make this only callable by the owner or an admin\n    /**\n     * @dev Adds a currency to be accepted for a Product. \n     * @param productId The Product to add the currency to.\n     * @param currency The currency address to add.\n     */\n    function addCurrencyToProduct(uint256 productId, address currency) public onlySeller(productId, msg.sender) {\n        Product memory _product = products[productId];\n        // Require that the currency is in the acceptableCurrencies array\n        require(isCurrencyAcceptable(_product.seller, currency), \"Currency is not accepted by this Store!\");\n        productCurrencies[productId][currency] = true;\n    }\n\n    /**\n     * @dev Returns if a currency is accepted by this store or not. \n     * @param _currency The currency address to check.\n     */\n    function isCurrencyAcceptable(address _store, address _currency) public view returns(bool) {\n        return acceptableCurrency[_store][_currency];\n    }\n\n    // TODO: Need to make this only callable by the owner or an admin\n    /**\n     * @dev Adds a currency to be accepted by the store. \n     * @param _currency The currency address to add.\n     */\n    function addAcceptableCurrency(address _currency) public {\n        _addAcceptableCurrency(_currency, msg.sender);\n    }\n\n    function _addAcceptableCurrency(address _currency, address _store) internal {\n        // Ensure the currency is not already in the acceptable currencies array\n        require(!isCurrencyAcceptable(_store, _currency), \"This currnecy is already acceptable!\");\n        // Make the currency active by default\n        activeCurrency[_store][_currency] = true;\n        acceptableCurrency[_store][_currency] = true;\n        uint256 currencyCount = getStoreCurrencyCount(_store);\n        currencyCount++;\n        storeCurrencyCount[_store] = currencyCount;\n        // Indexed Store currency at position 0 will never exist\n        indexedStoreCurrency[_store][currencyCount] = _currency;\n        // acceptableCurrencies.push(_currency);\n    }\n\n    // TODO: Need to make this only callable by the owner or an admin\n    /**\n     * @dev Removes a currency from being accepted for a Product. \n     * @param _productId The Product to remove the currency from.\n     * @param _currency The currency address to remove.\n     */\n    function removeCurrencyFromProduct(uint256 _productId, address _currency) public onlySeller(_productId, msg.sender) {\n        productCurrencies[_productId][_currency] = false;\n    }\n\n    // TODO: Need to make this only callable by the owner or an admin\n    /**\n     * @dev Makes a currency in the accceptableCurrencies array active. \n     * @param _currency The currency address to activate.\n     */ \n    function activateCurrency(address _currency) public {\n        require(isCurrencyAcceptable(msg.sender, _currency), \"Currency is not in the acceptableCurrencies array!\");\n        activeCurrency[msg.sender][_currency] = true;\n    }\n\n    // TODO: Need to make this only callable by the owner or an admin \n    /**\n     * @dev Makes a currency in the accceptableCurrencies array inactive. \n     * @param _currency The currency address to deactivate.\n     */ \n    function deactivateCurrency(address _currency) public {\n        require(isCurrencyAcceptable(msg.sender, _currency), \"Currency is not in the acceptableCurrencies array!\");\n        activeCurrency[msg.sender][_currency] = false;\n    }\n\n    function isCurrencyActive(address _store, address _currency) public view returns(bool) {\n        return activeCurrency[_store][_currency];\n    }\n\n    /**\n     * @dev Retuns a specific product\n     * @param _id The ID of the product to return\n     */\n     function getProduct(uint _id) public view returns(Product memory _product) {\n        return products[_id];\n     }\n\n     /**\n     * @dev Retuns a list of products\n     * @param _ids The ID of the products to return\n     */\n     function getProducts(uint[] memory _ids) public view returns(Product[] memory) {\n        Product[] memory out = new Product[](_ids.length);\n        for (uint i = 0; i < _ids.length; i++) {\n            Product memory _product = getProduct(_ids[i]);\n            out[i] = _product;\n        }\n        return out;\n     }\n\n    /**\n     * @dev Returns an array of acceptable currency's addresses for the Product. \n     * @param _productId The Product ID to get acceptableCurrencies for.\n     */ \n    function getProductCurrencies(uint256 _productId) public view returns(address[] memory) {\n        Product memory _product = products[_productId];\n        uint productCurrenciesLength = 0;\n        for (uint256 i = 0; i <= getStoreCurrencyCount(_product.seller); i++) {\n            if (isCurrencyActive(_product.seller, getStoreCurrencyByIndex(_product.seller, i))) {\n                // productCurrenciesLength++;\n                if (productCurrencies[_productId][getStoreCurrencyByIndex(_product.seller, i)]) {\n                    productCurrenciesLength++;\n                }\n            }\n        }\n        address[] memory currencies = new address[](productCurrenciesLength);\n        uint256 j = 0;\n        for (uint256 i = 0; i <= productCurrenciesLength; i++) {\n            if (isCurrencyActive(_product.seller, getStoreCurrencyByIndex(_product.seller, i))) {\n                if (productCurrencies[_productId][getStoreCurrencyByIndex(_product.seller, i)]) {\n                    currencies[j] = acceptableCurrencies[i];\n                    j++;\n                }\n            }\n        }\n        return currencies;\n    }\n\n    function isCurrencyAcceptableForProduct(uint256 _productId, address _currency) public view returns(bool) {\n        bool _acceptable = false;\n        if (productCurrencies[_productId][_currency]) {\n            _acceptable = true;\n        }\n        return _acceptable;\n    }\n\n    function isProductRefundable(uint productID) public view returns(bool) {\n        if (block.timestamp >= ProductRefundableDate[productID]) {\n            return true;\n        }\n        return false;\n    }\n\n    function getStoreCurrencyCount(address store) public view returns(uint256) {\n        return storeCurrencyCount[store];\n     }\n\n     /**\n     * @dev Retuns the address at acceptableCurrencies[_index].\n     * @param _index The index of the address in the array.\n     */\n    function getStoreCurrencyByIndex(address _store, uint256 _index) public view returns(address) {\n        require(_index < getStoreCurrencyCount(_store), \"Index is out of bounds\");\n        return indexedStoreCurrency[_store][_index];\n    }\n\n    /**\n     * @dev Returns a copy of the acceptableCurrencies array. \n     */ \n    function getCurrencies() public view returns(address[] memory) {\n        // address[] memory currencies = new address[](acceptableCurrencies.length);\n        // currencies = acceptableCurrencies;\n        // return currencies;\n        return acceptableCurrencies;\n    }\n\n}",
  "sourcePath": "/Users/torbjoranderson/Documents/TorbjorDefi/develpoment/crypto-commerce-hud-1.0/src/truffle/contracts/ProductPostable.sol",
  "compiler": {
    "name": "solc",
    "version": "0.8.4+commit.c7e474f2.Emscripten.clang"
  },
  "schemaVersion": "3.4.7",
  "updatedAt": "2022-09-21T02:52:08.871Z",
  "devdoc": {
    "kind": "dev",
    "methods": {
      "activateCurrency(address)": {
        "details": "Makes a currency in the accceptableCurrencies array active. ",
        "params": {
          "_currency": "The currency address to activate."
        }
      },
      "addAcceptableCurrency(address)": {
        "details": "Adds a currency to be accepted by the store. ",
        "params": {
          "_currency": "The currency address to add."
        }
      },
      "addCurrencyToProduct(uint256,address)": {
        "details": "Adds a currency to be accepted for a Product. ",
        "params": {
          "currency": "The currency address to add.",
          "productId": "The Product to add the currency to."
        }
      },
      "deactivateCurrency(address)": {
        "details": "Makes a currency in the accceptableCurrencies array inactive. ",
        "params": {
          "_currency": "The currency address to deactivate."
        }
      },
      "getCurrencies()": {
        "details": "Returns a copy of the acceptableCurrencies array. "
      },
      "getProduct(uint256)": {
        "details": "Retuns a specific product",
        "params": {
          "_id": "The ID of the product to return"
        }
      },
      "getProductCurrencies(uint256)": {
        "details": "Returns an array of acceptable currency's addresses for the Product. ",
        "params": {
          "_productId": "The Product ID to get acceptableCurrencies for."
        }
      },
      "getProductIdBySKU(address,string)": {
        "details": "Gets the Product ID to corresponds to the provided SKU.",
        "params": {
          "_sku": "The SKU tp match to a prduct ID."
        }
      },
      "getProducts(uint256[])": {
        "details": "Retuns a list of products",
        "params": {
          "_ids": "The ID of the products to return"
        }
      },
      "getStoreCurrencyByIndex(address,uint256)": {
        "details": "Retuns the address at acceptableCurrencies[_index].",
        "params": {
          "_index": "The index of the address in the array."
        }
      },
      "getStoreProductCount(address)": {
        "details": "Returns an array of all products listed by a specific Store"
      },
      "isCurrencyAcceptable(address,address)": {
        "details": "Returns if a currency is accepted by this store or not. ",
        "params": {
          "_currency": "The currency address to check."
        }
      },
      "owner()": {
        "details": "Returns the address of the current owner."
      },
      "postProduct(string,uint256,uint256,uint8,uint16,uint32,bool,bool)": {
        "details": "Posts a new type of product. ",
        "params": {
          "_affiliatePercentage": "The affiliate percentage.",
          "_funderRate": "APY promised to funders",
          "_refundablePeriod": "The redeemable period, in weeks.",
          "_retailPrice": "The retail price value.",
          "_sku": "The name for the item to trade.",
          "_wholesalePrice": "The wholesale price value.",
          "buyable": "Buyable status flag",
          "redeemable": "Redeemable status flag"
        }
      },
      "removeCurrencyFromProduct(uint256,address)": {
        "details": "Removes a currency from being accepted for a Product. ",
        "params": {
          "_currency": "The currency address to remove.",
          "_productId": "The Product to remove the currency from."
        }
      },
      "renounceOwnership()": {
        "details": "Leaves the contract without owner. It will not be possible to call `onlyOwner` functions anymore. Can only be called by the current owner. NOTE: Renouncing ownership will leave the contract without an owner, thereby removing any functionality that is only available to the owner."
      },
      "transferOwnership(address)": {
        "details": "Transfers ownership of the contract to a new account (`newOwner`). Can only be called by the current owner."
      },
      "updateProduct(uint256,uint256,uint256,uint8,uint16,bool,bool)": {
        "details": "Updates an existing product.",
        "params": {
          "affiliatePercentage": "The updated  affiliate percentage.",
          "buyable": "The updated buyable value.",
          "funderRate": "The aPY promised to the funder",
          "productId": "The Product to update.",
          "redeemable": "The updated redeemable value.",
          "retailPrice": "The updated retail price value.",
          "wholesalePrice": "The updated wholesale price value."
        }
      }
    },
    "version": 1
  },
  "userdoc": {
    "kind": "user",
    "methods": {},
    "version": 1
  }
}