{
  "contractName": "ProductFactoryProxy",
  "abi": [
    {
      "anonymous": false,
      "inputs": [
        {
          "indexed": false,
          "internalType": "uint8",
          "name": "version",
          "type": "uint8"
        }
      ],
      "name": "Initialized",
      "type": "event"
    },
    {
      "anonymous": false,
      "inputs": [
        {
          "indexed": true,
          "internalType": "address",
          "name": "previousOwner",
          "type": "address"
        },
        {
          "indexed": true,
          "internalType": "address",
          "name": "newOwner",
          "type": "address"
        }
      ],
      "name": "OwnershipTransferred",
      "type": "event"
    },
    {
      "anonymous": false,
      "inputs": [
        {
          "indexed": false,
          "internalType": "uint256",
          "name": "productId",
          "type": "uint256"
        }
      ],
      "name": "ProductStatusChange",
      "type": "event"
    },
    {
      "inputs": [
        {
          "internalType": "uint256",
          "name": "",
          "type": "uint256"
        }
      ],
      "name": "acceptableCurrencies",
      "outputs": [
        {
          "internalType": "address",
          "name": "",
          "type": "address"
        }
      ],
      "stateMutability": "view",
      "type": "function"
    },
    {
      "inputs": [
        {
          "internalType": "address",
          "name": "",
          "type": "address"
        },
        {
          "internalType": "address",
          "name": "",
          "type": "address"
        }
      ],
      "name": "acceptableCurrency",
      "outputs": [
        {
          "internalType": "bool",
          "name": "",
          "type": "bool"
        }
      ],
      "stateMutability": "view",
      "type": "function"
    },
    {
      "inputs": [
        {
          "internalType": "address",
          "name": "_currency",
          "type": "address"
        }
      ],
      "name": "activateCurrency",
      "outputs": [],
      "stateMutability": "nonpayable",
      "type": "function"
    },
    {
      "inputs": [
        {
          "internalType": "address",
          "name": "",
          "type": "address"
        },
        {
          "internalType": "address",
          "name": "",
          "type": "address"
        }
      ],
      "name": "activeCurrency",
      "outputs": [
        {
          "internalType": "bool",
          "name": "",
          "type": "bool"
        }
      ],
      "stateMutability": "view",
      "type": "function"
    },
    {
      "inputs": [
        {
          "internalType": "address",
          "name": "_currency",
          "type": "address"
        }
      ],
      "name": "addAcceptableCurrency",
      "outputs": [],
      "stateMutability": "nonpayable",
      "type": "function"
    },
    {
      "inputs": [
        {
          "internalType": "uint256",
          "name": "productId",
          "type": "uint256"
        },
        {
          "internalType": "address",
          "name": "currency",
          "type": "address"
        }
      ],
      "name": "addCurrencyToProduct",
      "outputs": [],
      "stateMutability": "nonpayable",
      "type": "function"
    },
    {
      "inputs": [
        {
          "internalType": "address",
          "name": "_currency",
          "type": "address"
        }
      ],
      "name": "deactivateCurrency",
      "outputs": [],
      "stateMutability": "nonpayable",
      "type": "function"
    },
    {
      "inputs": [],
      "name": "getCurrencies",
      "outputs": [
        {
          "internalType": "address[]",
          "name": "",
          "type": "address[]"
        }
      ],
      "stateMutability": "view",
      "type": "function"
    },
    {
      "inputs": [
        {
          "internalType": "uint256",
          "name": "_id",
          "type": "uint256"
        }
      ],
      "name": "getProduct",
      "outputs": [
        {
          "components": [
            {
              "internalType": "address",
              "name": "seller",
              "type": "address"
            },
            {
              "internalType": "string",
              "name": "sku",
              "type": "string"
            },
            {
              "internalType": "uint256",
              "name": "retailPrice",
              "type": "uint256"
            },
            {
              "internalType": "uint256",
              "name": "wholesalePrice",
              "type": "uint256"
            },
            {
              "internalType": "uint8",
              "name": "affiliatePercentage",
              "type": "uint8"
            },
            {
              "internalType": "uint16",
              "name": "funderRate",
              "type": "uint16"
            },
            {
              "internalType": "bool",
              "name": "redeemable",
              "type": "bool"
            },
            {
              "internalType": "bool",
              "name": "buyable",
              "type": "bool"
            }
          ],
          "internalType": "struct ProductFactory.Product",
          "name": "_product",
          "type": "tuple"
        }
      ],
      "stateMutability": "view",
      "type": "function"
    },
    {
      "inputs": [],
      "name": "getProductCounter",
      "outputs": [
        {
          "internalType": "uint256",
          "name": "",
          "type": "uint256"
        }
      ],
      "stateMutability": "view",
      "type": "function"
    },
    {
      "inputs": [
        {
          "internalType": "uint256",
          "name": "_productId",
          "type": "uint256"
        }
      ],
      "name": "getProductCurrencies",
      "outputs": [
        {
          "internalType": "address[]",
          "name": "",
          "type": "address[]"
        }
      ],
      "stateMutability": "view",
      "type": "function"
    },
    {
      "inputs": [
        {
          "internalType": "address",
          "name": "store",
          "type": "address"
        },
        {
          "internalType": "string",
          "name": "_sku",
          "type": "string"
        }
      ],
      "name": "getProductIdBySKU",
      "outputs": [
        {
          "internalType": "uint256",
          "name": "",
          "type": "uint256"
        }
      ],
      "stateMutability": "view",
      "type": "function"
    },
    {
      "inputs": [
        {
          "internalType": "uint256[]",
          "name": "_ids",
          "type": "uint256[]"
        }
      ],
      "name": "getProducts",
      "outputs": [
        {
          "components": [
            {
              "internalType": "address",
              "name": "seller",
              "type": "address"
            },
            {
              "internalType": "string",
              "name": "sku",
              "type": "string"
            },
            {
              "internalType": "uint256",
              "name": "retailPrice",
              "type": "uint256"
            },
            {
              "internalType": "uint256",
              "name": "wholesalePrice",
              "type": "uint256"
            },
            {
              "internalType": "uint8",
              "name": "affiliatePercentage",
              "type": "uint8"
            },
            {
              "internalType": "uint16",
              "name": "funderRate",
              "type": "uint16"
            },
            {
              "internalType": "bool",
              "name": "redeemable",
              "type": "bool"
            },
            {
              "internalType": "bool",
              "name": "buyable",
              "type": "bool"
            }
          ],
          "internalType": "struct ProductFactory.Product[]",
          "name": "",
          "type": "tuple[]"
        }
      ],
      "stateMutability": "view",
      "type": "function"
    },
    {
      "inputs": [
        {
          "internalType": "address",
          "name": "_store",
          "type": "address"
        },
        {
          "internalType": "uint256",
          "name": "_index",
          "type": "uint256"
        }
      ],
      "name": "getStoreCurrencyByIndex",
      "outputs": [
        {
          "internalType": "address",
          "name": "",
          "type": "address"
        }
      ],
      "stateMutability": "view",
      "type": "function"
    },
    {
      "inputs": [
        {
          "internalType": "address",
          "name": "store",
          "type": "address"
        }
      ],
      "name": "getStoreCurrencyCount",
      "outputs": [
        {
          "internalType": "uint256",
          "name": "",
          "type": "uint256"
        }
      ],
      "stateMutability": "view",
      "type": "function"
    },
    {
      "inputs": [
        {
          "internalType": "address",
          "name": "store",
          "type": "address"
        },
        {
          "internalType": "uint256",
          "name": "index",
          "type": "uint256"
        }
      ],
      "name": "getStoreProduct",
      "outputs": [
        {
          "components": [
            {
              "internalType": "address",
              "name": "seller",
              "type": "address"
            },
            {
              "internalType": "string",
              "name": "sku",
              "type": "string"
            },
            {
              "internalType": "uint256",
              "name": "retailPrice",
              "type": "uint256"
            },
            {
              "internalType": "uint256",
              "name": "wholesalePrice",
              "type": "uint256"
            },
            {
              "internalType": "uint8",
              "name": "affiliatePercentage",
              "type": "uint8"
            },
            {
              "internalType": "uint16",
              "name": "funderRate",
              "type": "uint16"
            },
            {
              "internalType": "bool",
              "name": "redeemable",
              "type": "bool"
            },
            {
              "internalType": "bool",
              "name": "buyable",
              "type": "bool"
            }
          ],
          "internalType": "struct ProductFactory.Product",
          "name": "",
          "type": "tuple"
        }
      ],
      "stateMutability": "view",
      "type": "function"
    },
    {
      "inputs": [
        {
          "internalType": "address",
          "name": "store",
          "type": "address"
        }
      ],
      "name": "getStoreProductCount",
      "outputs": [
        {
          "internalType": "uint256",
          "name": "",
          "type": "uint256"
        }
      ],
      "stateMutability": "view",
      "type": "function"
    },
    {
      "inputs": [
        {
          "internalType": "address",
          "name": "_store",
          "type": "address"
        },
        {
          "internalType": "address",
          "name": "_currency",
          "type": "address"
        }
      ],
      "name": "isCurrencyAcceptable",
      "outputs": [
        {
          "internalType": "bool",
          "name": "",
          "type": "bool"
        }
      ],
      "stateMutability": "view",
      "type": "function"
    },
    {
      "inputs": [
        {
          "internalType": "uint256",
          "name": "_productId",
          "type": "uint256"
        },
        {
          "internalType": "address",
          "name": "_currency",
          "type": "address"
        }
      ],
      "name": "isCurrencyAcceptableForProduct",
      "outputs": [
        {
          "internalType": "bool",
          "name": "",
          "type": "bool"
        }
      ],
      "stateMutability": "view",
      "type": "function"
    },
    {
      "inputs": [
        {
          "internalType": "address",
          "name": "_store",
          "type": "address"
        },
        {
          "internalType": "address",
          "name": "_currency",
          "type": "address"
        }
      ],
      "name": "isCurrencyActive",
      "outputs": [
        {
          "internalType": "bool",
          "name": "",
          "type": "bool"
        }
      ],
      "stateMutability": "view",
      "type": "function"
    },
    {
      "inputs": [
        {
          "internalType": "uint256",
          "name": "productID",
          "type": "uint256"
        }
      ],
      "name": "isProductRefundable",
      "outputs": [
        {
          "internalType": "bool",
          "name": "",
          "type": "bool"
        }
      ],
      "stateMutability": "view",
      "type": "function"
    },
    {
      "inputs": [],
      "name": "owner",
      "outputs": [
        {
          "internalType": "address",
          "name": "",
          "type": "address"
        }
      ],
      "stateMutability": "view",
      "type": "function"
    },
    {
      "inputs": [
        {
          "internalType": "string",
          "name": "_sku",
          "type": "string"
        },
        {
          "internalType": "uint256",
          "name": "_wholesalePrice",
          "type": "uint256"
        },
        {
          "internalType": "uint256",
          "name": "_retailPrice",
          "type": "uint256"
        },
        {
          "internalType": "uint8",
          "name": "_affiliatePercentage",
          "type": "uint8"
        },
        {
          "internalType": "uint16",
          "name": "_funderRate",
          "type": "uint16"
        },
        {
          "internalType": "uint32",
          "name": "_refundablePeriod",
          "type": "uint32"
        },
        {
          "internalType": "bool",
          "name": "redeemable",
          "type": "bool"
        },
        {
          "internalType": "bool",
          "name": "buyable",
          "type": "bool"
        }
      ],
      "name": "postProduct",
      "outputs": [],
      "stateMutability": "nonpayable",
      "type": "function"
    },
    {
      "inputs": [
        {
          "internalType": "uint256",
          "name": "",
          "type": "uint256"
        },
        {
          "internalType": "address",
          "name": "",
          "type": "address"
        }
      ],
      "name": "productCurrencies",
      "outputs": [
        {
          "internalType": "bool",
          "name": "",
          "type": "bool"
        }
      ],
      "stateMutability": "view",
      "type": "function"
    },
    {
      "inputs": [
        {
          "internalType": "uint256",
          "name": "",
          "type": "uint256"
        }
      ],
      "name": "products",
      "outputs": [
        {
          "internalType": "address",
          "name": "seller",
          "type": "address"
        },
        {
          "internalType": "string",
          "name": "sku",
          "type": "string"
        },
        {
          "internalType": "uint256",
          "name": "retailPrice",
          "type": "uint256"
        },
        {
          "internalType": "uint256",
          "name": "wholesalePrice",
          "type": "uint256"
        },
        {
          "internalType": "uint8",
          "name": "affiliatePercentage",
          "type": "uint8"
        },
        {
          "internalType": "uint16",
          "name": "funderRate",
          "type": "uint16"
        },
        {
          "internalType": "bool",
          "name": "redeemable",
          "type": "bool"
        },
        {
          "internalType": "bool",
          "name": "buyable",
          "type": "bool"
        }
      ],
      "stateMutability": "view",
      "type": "function"
    },
    {
      "inputs": [
        {
          "internalType": "uint256",
          "name": "_productId",
          "type": "uint256"
        },
        {
          "internalType": "address",
          "name": "_currency",
          "type": "address"
        }
      ],
      "name": "removeCurrencyFromProduct",
      "outputs": [],
      "stateMutability": "nonpayable",
      "type": "function"
    },
    {
      "inputs": [],
      "name": "renounceOwnership",
      "outputs": [],
      "stateMutability": "nonpayable",
      "type": "function"
    },
    {
      "inputs": [
        {
          "internalType": "address",
          "name": "newOwner",
          "type": "address"
        }
      ],
      "name": "transferOwnership",
      "outputs": [],
      "stateMutability": "nonpayable",
      "type": "function"
    },
    {
      "inputs": [
        {
          "internalType": "uint256",
          "name": "productId",
          "type": "uint256"
        },
        {
          "internalType": "uint256",
          "name": "wholesalePrice",
          "type": "uint256"
        },
        {
          "internalType": "uint256",
          "name": "retailPrice",
          "type": "uint256"
        },
        {
          "internalType": "uint8",
          "name": "affiliatePercentage",
          "type": "uint8"
        },
        {
          "internalType": "uint16",
          "name": "funderRate",
          "type": "uint16"
        },
        {
          "internalType": "bool",
          "name": "redeemable",
          "type": "bool"
        },
        {
          "internalType": "bool",
          "name": "buyable",
          "type": "bool"
        }
      ],
      "name": "updateProduct",
      "outputs": [],
      "stateMutability": "nonpayable",
      "type": "function"
    },
    {
      "inputs": [
        {
          "internalType": "address",
          "name": "_currency",
          "type": "address"
        }
      ],
      "name": "initialize",
      "outputs": [],
      "stateMutability": "nonpayable",
      "type": "function"
    }
  ],
  "bytecode": "0x608060405234801561001057600080fd5b50612a21806100206000396000f3fe608060405234801561001057600080fd5b50600436106101da5760003560e01c80638da5cb5b11610104578063c4d66de8116100a2578063d755bb3711610071578063d755bb37146104ad578063dd77345e146104db578063eca82492146104ee578063f2fde38b1461050157600080fd5b8063c4d66de814610461578063c54fc00414610474578063d172d79b14610487578063d27e1a181461049a57600080fd5b8063a10a0adf116100de578063a10a0adf146103d6578063a7262ba214610412578063b9db15b41461043b578063bd5d80081461044e57600080fd5b80638da5cb5b1461038457806395fea610146103955780639a6cb9e9146103a857600080fd5b8063543d1ba11161017c578063715018a61161014b578063715018a61461032f5780637a102472146103375780637acc0b201461034a5780637c1972371461037157600080fd5b8063543d1ba1146102cb5780635ffb750a146102f457806361c661de14610307578063704723e21461031c57600080fd5b80630c62a8aa116101b85780630c62a8aa146102485780631d3d93d414610286578063217b635e1461029957806326fdfcb3146102b957600080fd5b8063081c73f7146101df5780630ab7d150146101f45780630bbc44231461021d575b600080fd5b6101f26101ed366004612286565b610514565b005b61020761020236600461231e565b610521565b60405161021491906128b1565b60405180910390f35b61023061022b36600461249b565b61065e565b6040516001600160a01b039091168152602001610214565b6102766102563660046122a0565b606b60209081526000928352604080842090915290825290205460ff1681565b6040519015158152602001610214565b6101f2610294366004612286565b610688565b6102ac6102a7366004612347565b6106e8565b60405161021491906126c6565b6066545b604051908152602001610214565b6102bd6102d9366004612286565b6001600160a01b03166000908152606c602052604090205490565b6102766103023660046124b3565b6107d7565b61030f61080f565b6040516102149190612679565b61030f61032a36600461249b565b610871565b6101f2610b75565b61023061034536600461231e565b610bdb565b61035d61035836600461249b565b610c64565b604051610214989796959493929190612616565b6101f261037f3660046124b3565b610d49565b6033546001600160a01b0316610230565b6102766103a33660046122a0565b610ebf565b6102766103b63660046124b3565b606960209081526000928352604080842090915290825290205460ff1681565b6102766103e43660046122a0565b6001600160a01b039182166000908152606e6020908152604080832093909416825291909152205460ff1690565b6102bd610420366004612286565b6001600160a01b031660009081526068602052604090205490565b61020761044936600461249b565b610eed565b6101f261045c3660046123ef565b61100c565b6101f261046f366004612286565b61140b565b6101f2610482366004612286565b611482565b6101f26104953660046124d5565b6114d6565b6102766104a836600461249b565b61188b565b6102766104bb3660046122a0565b606e60209081526000928352604080842090915290825290205460ff1681565b6101f26104e93660046124b3565b6118b0565b6102bd6104fc3660046122d2565b611ba8565b6101f261050f366004612286565b611c7a565b61051e8133611d42565b50565b6105296120f3565b6001600160a01b038084166000908152606a602090815260408083208684528252808320548084526065835281842082516101008101909352805490951682526001850180549195929384019161057f90612969565b80601f01602080910402602001604051908101604052809291908181526020018280546105ab90612969565b80156105f85780601f106105cd576101008083540402835291602001916105f8565b820191906000526020600020905b8154815290600101906020018083116105db57829003601f168201915b5050509183525050600282015460208201526003820154604082015260049091015460ff808216606084015261ffff6101008304166080840152630100000082048116151560a0840152600160201b90910416151560c090910152925050505b92915050565b6070818154811061066e57600080fd5b6000918252602090912001546001600160a01b0316905081565b6106923382610ebf565b6106b75760405162461bcd60e51b81526004016106ae90612814565b60405180910390fd5b336000908152606e602090815260408083206001600160a01b0394909416835292905220805460ff19166001179055565b60606000825167ffffffffffffffff81111561071457634e487b7160e01b600052604160045260246000fd5b60405190808252806020026020018201604052801561074d57816020015b61073a6120f3565b8152602001906001900390816107325790505b50905060005b83518110156107d057600061078e85838151811061078157634e487b7160e01b600052603260045260246000fd5b6020026020010151610eed565b9050808383815181106107b157634e487b7160e01b600052603260045260246000fd5b60200260200101819052505080806107c8906129a4565b915050610753565b5092915050565b60008281526069602090815260408083206001600160a01b0385168452909152812054819060ff1615610808575060015b9392505050565b6060607080548060200260200160405190810160405280929190818152602001828054801561086757602002820191906000526020600020905b81546001600160a01b03168152600190910190602001808311610849575b5050505050905090565b60008181526065602090815260408083208151610100810190925280546001600160a01b0316825260018101805460609594840191906108b090612969565b80601f01602080910402602001604051908101604052809291908181526020018280546108dc90612969565b80156109295780601f106108fe57610100808354040283529160200191610929565b820191906000526020600020905b81548152906001019060200180831161090c57829003601f168201915b5050509183525050600282015460208201526003820154604082015260049091015460ff808216606084015261ffff6101008304166080840152630100000082048116151560a0840152600160201b90910416151560c09091015290506000805b82516001600160a01b03166000908152606c60205260409020548111610a1e5782516109ba906103e48184610bdb565b15610a0c57600085815260696020526040812084519091906109dc9084610bdb565b6001600160a01b0316815260208101919091526040016000205460ff1615610a0c5781610a08816129a4565b9250505b80610a16816129a4565b91505061098a565b5060008167ffffffffffffffff811115610a4857634e487b7160e01b600052604160045260246000fd5b604051908082528060200260200182016040528015610a71578160200160208202803683370190505b5090506000805b838111610b6a578451610a8f906103e48184610bdb565b15610b585760008781526069602052604081208651909190610ab19084610bdb565b6001600160a01b0316815260208101919091526040016000205460ff1615610b585760708181548110610af457634e487b7160e01b600052603260045260246000fd5b9060005260206000200160009054906101000a90046001600160a01b0316838381518110610b3257634e487b7160e01b600052603260045260246000fd5b6001600160a01b039092166020928302919091019091015281610b54816129a4565b9250505b80610b62816129a4565b915050610a78565b509095945050505050565b6033546001600160a01b03163314610bcf5760405162461bcd60e51b815260206004820181905260248201527f4f776e61626c653a2063616c6c6572206973206e6f7420746865206f776e657260448201526064016106ae565b610bd96000611e54565b565b6001600160a01b0382166000908152606c60205260408120548210610c3b5760405162461bcd60e51b8152602060048201526016602482015275496e646578206973206f7574206f6620626f756e647360501b60448201526064016106ae565b506001600160a01b039182166000908152606d6020908152604080832093835292905220541690565b606560205260009081526040902080546001820180546001600160a01b039092169291610c9090612969565b80601f0160208091040260200160405190810160405280929190818152602001828054610cbc90612969565b8015610d095780601f10610cde57610100808354040283529160200191610d09565b820191906000526020600020905b815481529060010190602001808311610cec57829003601f168201915b50505050600283015460038401546004909401549293909290915060ff80821691610100810461ffff169163010000008204811691600160201b90041688565b60008281526065602090815260408083208151610100810190925280546001600160a01b03168252600181018054879533959094939290840191610d8c90612969565b80601f0160208091040260200160405190810160405280929190818152602001828054610db890612969565b8015610e055780601f10610dda57610100808354040283529160200191610e05565b820191906000526020600020905b815481529060010190602001808311610de857829003601f168201915b5050509183525050600282015460208201526003820154604082015260049091015460ff8082166060840152610100820461ffff166080840152630100000082048116151560a0840152600160201b90910416151560c09091015280519091506001600160a01b03838116911614610e8f5760405162461bcd60e51b81526004016106ae90612727565b50505060009182526069602090815260408084206001600160a01b0390931684529190529020805460ff19169055565b6001600160a01b039182166000908152606b6020908152604080832093909416825291909152205460ff1690565b610ef56120f3565b6000828152606560209081526040918290208251610100810190935280546001600160a01b031683526001810180549192840191610f3290612969565b80601f0160208091040260200160405190810160405280929190818152602001828054610f5e90612969565b8015610fab5780601f10610f8057610100808354040283529160200191610fab565b820191906000526020600020905b815481529060010190602001808311610f8e57829003601f168201915b5050509183525050600282015460208201526003820154604082015260049091015460ff808216606084015261ffff6101008304166080840152630100000082048116151560a0840152600160201b90910416151560c09091015292915050565b6127108710156110685760405162461bcd60e51b815260206004820152602160248201527f57686f6c7365616c652070726963652069732062656c6f77206d696e696d756d6044820152602160f81b60648201526084016106ae565b6127108610156110ba5760405162461bcd60e51b815260206004820152601e60248201527f52657461696c2070726963652069732062656c6f77206d696e696d756d21000060448201526064016106ae565b8686116111245760405162461bcd60e51b815260206004820152603260248201527f52657461696c207072696365206d7573742062652067726561746572207468616044820152716e2057686f6c6573616c652070726963652160701b60648201526084016106ae565b61112e3389611ba8565b156111895760405162461bcd60e51b815260206004820152602560248201527f50726f647563742077697468207468697320534b5520616c7265616479206578604482015264697374732160d81b60648201526084016106ae565b60648560ff16106111ac5760405162461bcd60e51b81526004016106ae90612784565b6111b46120f3565b33815260208101899052606081018890526040810187905260ff8616608082015261ffff851660a082015282151560c082015281151560e08201526111f7611ea6565b50806065600061120660665490565b8152602080820192909252604001600020825181546001600160a01b0319166001600160a01b03909116178155828201518051919261124d92600185019290910190612138565b50604082015160028201556060820151600382015560808201516004909101805460a084015160c085015160e0909501511515600160201b0264ff00000000199515156301000000029590951664ffff0000001961ffff9092166101000262ffffff1990931660ff90951694909417919091171691909117919091179055606b60006112d63390565b6001600160a01b03908116825260208083019390935260409182016000908120606f549092168152925290205460ff1661132057606f54611320906001600160a01b031633611d42565b61133d61132c60665490565b606f546001600160a01b03166118b0565b61134a8462093a8061290d565b61135a9063ffffffff16426128f5565b6067600061136760665490565b815260208082019290925260409081016000908120939093553383526068909152812080546001929061139b9084906128f5565b9091555050606654336000908152606a60209081526040808320606883528184205484529091529020557fc0a2dd4e6e15ffb73d268319140fb74a56d44d60337aefee0db2e3568930b22c6113ef60665490565b60405190815260200160405180910390a1505050505050505050565b60006114176001611eca565b9050801561142f576000805461ff0019166101001790555b61143882611f4f565b801561147e576000805461ff0019169055604051600181527f7f26b83ff96e1f2b6a682f133852f6798a09c465da95921460cefb38474024989060200160405180910390a15b5050565b61148c3382610ebf565b6114a85760405162461bcd60e51b81526004016106ae90612814565b336000908152606e602090815260408083206001600160a01b0394909416835292905220805460ff19169055565b8680158015906114e857506066548111155b6115345760405162461bcd60e51b815260206004820152601760248201527f50726f6475637420646f6573206e6f742065786973742100000000000000000060448201526064016106ae565b60648560ff16106115575760405162461bcd60e51b81526004016106ae90612784565b6103e88461ffff16106115ac5760405162461bcd60e51b815260206004820152601860248201527f46756e64657220415059206f7574206f6620626f756e6473000000000000000060448201526064016106ae565b8587106116125760405162461bcd60e51b815260206004820152602e60248201527f57686f6c6573616c65207072696365206d757374206265206c6573732074686160448201526d6e2052657461696c20707269636560901b60648201526084016106ae565b60008881526065602090815260408083208151610100810190925280546001600160a01b03168252600181018054929391929184019161165190612969565b80601f016020809104026020016040519081016040528092919081815260200182805461167d90612969565b80156116ca5780601f1061169f576101008083540402835291602001916116ca565b820191906000526020600020905b8154815290600101906020018083116116ad57829003601f168201915b5050509183525050600282015460208201526003820154604082015260049091015460ff80821660608085019190915261ffff6101008404166080850152630100000083048216151560a0850152600160201b90920416151560c090920191909152810151909150881461174057606081018890525b8681604001511461175357604081018790525b8560ff16816080015160ff161461176e5760ff861660808201525b8461ffff168160a0015161ffff161461178c5761ffff851660a08201525b8315158160c001511515146117a45783151560c08201525b8215158160e001511515146117bc5782151560e08201525b6000898152606560209081526040909120825181546001600160a01b0319166001600160a01b039091161781558282015180518493611802926001850192910190612138565b50604082015160028201556060820151600382015560808201516004909101805460a084015160c085015160e0909501511515600160201b0264ff00000000199515156301000000029590951664ffff0000001961ffff9092166101000262ffffff1990931660ff90951694909417919091171691909117919091179055505050505050505050565b60008181526067602052604081205442106118a857506001919050565b506000919050565b60008281526065602090815260408083208151610100810190925280546001600160a01b031682526001810180548795339590949392908401916118f390612969565b80601f016020809104026020016040519081016040528092919081815260200182805461191f90612969565b801561196c5780601f106119415761010080835404028352916020019161196c565b820191906000526020600020905b81548152906001019060200180831161194f57829003601f168201915b5050509183525050600282015460208201526003820154604082015260049091015460ff8082166060840152610100820461ffff166080840152630100000082048116151560a0840152600160201b90910416151560c09091015280519091506001600160a01b038381169116146119f65760405162461bcd60e51b81526004016106ae90612727565b60008581526065602090815260408083208151610100810190925280546001600160a01b031682526001810180549293919291840191611a3590612969565b80601f0160208091040260200160405190810160405280929190818152602001828054611a6190612969565b8015611aae5780601f10611a8357610100808354040283529160200191611aae565b820191906000526020600020905b815481529060010190602001808311611a9157829003601f168201915b5050509183525050600282015460208201526003820154604082015260049091015460ff808216606084015261ffff6101008304166080840152630100000082048116151560a0840152600160201b90910416151560c0909101528051909150611b189086610ebf565b611b745760405162461bcd60e51b815260206004820152602760248201527f43757272656e6379206973206e6f7420616363657074656420627920746869736044820152662053746f72652160c81b60648201526084016106ae565b5050506000928352506069602090815260408084206001600160a01b0390931684529190529020805460ff19166001179055565b6001600160a01b038216600090815260686020526040812054611bcd57506000610658565b60005b6001600160a01b0384166000908152606860205260409020548111611c70576000611bfb8583610521565b905083604051602001611c0e91906125fa565b604051602081830303815290604052805190602001208160200151604051602001611c3991906125fa565b604051602081830303815290604052805190602001201415611c5d57509050610658565b5080611c68816129a4565b915050611bd0565b5060009392505050565b6033546001600160a01b03163314611cd45760405162461bcd60e51b815260206004820181905260248201527f4f776e61626c653a2063616c6c6572206973206e6f7420746865206f776e657260448201526064016106ae565b6001600160a01b038116611d395760405162461bcd60e51b815260206004820152602660248201527f4f776e61626c653a206e6577206f776e657220697320746865207a65726f206160448201526564647265737360d01b60648201526084016106ae565b61051e81611e54565b611d4c8183610ebf565b15611da55760405162461bcd60e51b8152602060048201526024808201527f5468697320637572726e65637920697320616c72656164792061636365707461604482015263626c652160e01b60648201526084016106ae565b6001600160a01b038181166000818152606e602090815260408083209487168084529482528083208054600160ff199182168117909255858552606b8452828520968552958352818420805490961617909455918152606c909152205480611e0c816129a4565b6001600160a01b039384166000908152606c60209081526040808320849055606d82528083209383529290522080546001600160a01b03191694909316939093179091555050565b603380546001600160a01b038381166001600160a01b0319831681179093556040519116919082907f8be0079c531659141344cd1fd0a4f28419497f9722a3daafe3b4186f6b6457e090600090a35050565b600080611eb260665490565b905080611ebe816129a4565b60665550600192915050565b60008054610100900460ff1615611f09578160ff166001148015611eed5750303b155b6118a85760405162461bcd60e51b81526004016106ae906127c6565b60005460ff808416911610611f305760405162461bcd60e51b81526004016106ae906127c6565b506000805460ff191660ff92909216919091179055600190565b919050565b6000611f5b6001611eca565b90508015611f73576000805461ff0019166101001790555b611438826000611f836001611eca565b90508015611f9b576000805461ff0019166101001790555b606f80546001600160a01b0384166001600160a01b03199182168117909255607080546001810182556000919091527f8f6b23ffa15f0465e3176e15ca644cf24f86dc1312fe715484e3c4aead5eb78b018054909116909117905561143860006120056001611eca565b9050801561201d576000805461ff0019166101001790555b61202561206d565b801561051e576000805461ff0019169055604051600181527f7f26b83ff96e1f2b6a682f133852f6798a09c465da95921460cefb38474024989060200160405180910390a150565b60006120796001611eca565b90508015612091576000805461ff0019166101001790555b6000606655612025600054610100900460ff166120c05760405162461bcd60e51b81526004016106ae90612866565b610bd9600054610100900460ff166120ea5760405162461bcd60e51b81526004016106ae90612866565b610bd933611e54565b604080516101008101825260008082526060602083018190529282018190529181018290526080810182905260a0810182905260c0810182905260e081019190915290565b82805461214490612969565b90600052602060002090601f01602090048101928261216657600085556121ac565b82601f1061217f57805160ff19168380011785556121ac565b828001600101855582156121ac579182015b828111156121ac578251825591602001919060010190612191565b506121b89291506121bc565b5090565b5b808211156121b857600081556001016121bd565b80356001600160a01b0381168114611f4a57600080fd5b80358015158114611f4a57600080fd5b600082601f830112612208578081fd5b813567ffffffffffffffff811115612222576122226129d5565b612235601f8201601f19166020016128c4565b818152846020838601011115612249578283fd5b816020850160208301379081016020019190915292915050565b803561ffff81168114611f4a57600080fd5b803560ff81168114611f4a57600080fd5b600060208284031215612297578081fd5b610808826121d1565b600080604083850312156122b2578081fd5b6122bb836121d1565b91506122c9602084016121d1565b90509250929050565b600080604083850312156122e4578182fd5b6122ed836121d1565b9150602083013567ffffffffffffffff811115612308578182fd5b612314858286016121f8565b9150509250929050565b60008060408385031215612330578182fd5b612339836121d1565b946020939093013593505050565b60006020808385031215612359578182fd5b823567ffffffffffffffff80821115612370578384fd5b818501915085601f830112612383578384fd5b813581811115612395576123956129d5565b8060051b91506123a68483016128c4565b8181528481019084860184860187018a10156123c0578788fd5b8795505b838610156123e25780358352600195909501949186019186016123c4565b5098975050505050505050565b600080600080600080600080610100898b03121561240b578384fd5b883567ffffffffffffffff811115612421578485fd5b61242d8b828c016121f8565b985050602089013596506040890135955061244a60608a01612275565b945061245860808a01612263565b935060a089013563ffffffff81168114612470578384fd5b925061247e60c08a016121e8565b915061248c60e08a016121e8565b90509295985092959890939650565b6000602082840312156124ac578081fd5b5035919050565b600080604083850312156124c5578182fd5b823591506122c9602084016121d1565b600080600080600080600060e0888a0312156124ef578283fd5b87359650602088013595506040880135945061250d60608901612275565b935061251b60808901612263565b925061252960a089016121e8565b915061253760c089016121e8565b905092959891949750929550565b6000815180845261255d816020860160208601612939565b601f01601f19169290920160200192915050565b600061010060018060a01b038351168452602083015181602086015261259982860182612545565b915050604083015160408501526060830151606085015260ff608084015116608085015261ffff60a08401511660a085015260c08301516125de60c086018215159052565b5060e08301516125f260e086018215159052565b509392505050565b6000825161260c818460208701612939565b9190910192915050565b6001600160a01b03891681526101006020820181905260009061263b8382018b612545565b60408401999099525050606081019590955260ff93909316608085015261ffff9190911660a0840152151560c0830152151560e09091015292915050565b6020808252825182820181905260009190848201906040850190845b818110156126ba5783516001600160a01b031683529284019291840191600101612695565b50909695505050505050565b6000602080830181845280855180835260408601915060408160051b8701019250838701855b8281101561271a57603f19888603018452612708858351612571565b945092850192908501906001016126ec565b5092979650505050505050565b6020808252603b908201527f4f6e6c79207468652053746f72652073656c6c696e6720746869732070726f6460408201527f7563742063616e2063616c6c20746869732066756e6374696f6e210000000000606082015260800190565b60208082526022908201527f416666696c696174652050657263656e74616765206f7574206f6620626f756e604082015261647360f01b606082015260800190565b6020808252602e908201527f496e697469616c697a61626c653a20636f6e747261637420697320616c72656160408201526d191e481a5b9a5d1a585b1a5e995960921b606082015260800190565b60208082526032908201527f43757272656e6379206973206e6f7420696e207468652061636365707461626c6040820152716543757272656e636965732061727261792160701b606082015260800190565b6020808252602b908201527f496e697469616c697a61626c653a20636f6e7472616374206973206e6f74206960408201526a6e697469616c697a696e6760a81b606082015260800190565b6020815260006108086020830184612571565b604051601f8201601f1916810167ffffffffffffffff811182821017156128ed576128ed6129d5565b604052919050565b60008219821115612908576129086129bf565b500190565b600063ffffffff80831681851681830481118215151615612930576129306129bf565b02949350505050565b60005b8381101561295457818101518382015260200161293c565b83811115612963576000848401525b50505050565b600181811c9082168061297d57607f821691505b6020821081141561299e57634e487b7160e01b600052602260045260246000fd5b50919050565b60006000198214156129b8576129b86129bf565b5060010190565b634e487b7160e01b600052601160045260246000fd5b634e487b7160e01b600052604160045260246000fdfea264697066735822122020426e6e033baccd3af96d0bcc9166f743178533c9f6f31ed0bb6e8ab03f34ab64736f6c63430008040033",
  "immutableReferences": {},
  "source": "// contracts/Box.sol\n// SPDX-License-Identifier: MIT\npragma solidity ^0.8.4;\n\nimport \"./ProductPostable.sol\";\n \ncontract ProductFactoryProxy is ProductPostable {\n\nfunction initialize(address _currency) initializer public {\n        __ProductPostable_init(_currency);\n    }\n\n}",
  "sourcePath": "/Users/torbjoranderson/Documents/TorbjorDefi/develpoment/crypto-commerce-hud-1.0/src/truffle/contracts/ProductFactoryProxy.sol",
  "compiler": {
    "name": "solc",
    "version": "0.8.4+commit.c7e474f2.Emscripten.clang"
  },
  "schemaVersion": "3.4.7",
  "updatedAt": "2022-09-21T02:52:08.858Z",
  "devdoc": {
    "kind": "dev",
    "methods": {
      "activateCurrency(address)": {
        "details": "Makes a currency in the accceptableCurrencies array active. ",
        "params": {
          "_currency": "The currency address to activate."
        }
      },
      "addAcceptableCurrency(address)": {
        "details": "Adds a currency to be accepted by the store. ",
        "params": {
          "_currency": "The currency address to add."
        }
      },
      "addCurrencyToProduct(uint256,address)": {
        "details": "Adds a currency to be accepted for a Product. ",
        "params": {
          "currency": "The currency address to add.",
          "productId": "The Product to add the currency to."
        }
      },
      "deactivateCurrency(address)": {
        "details": "Makes a currency in the accceptableCurrencies array inactive. ",
        "params": {
          "_currency": "The currency address to deactivate."
        }
      },
      "getCurrencies()": {
        "details": "Returns a copy of the acceptableCurrencies array. "
      },
      "getProduct(uint256)": {
        "details": "Retuns a specific product",
        "params": {
          "_id": "The ID of the product to return"
        }
      },
      "getProductCurrencies(uint256)": {
        "details": "Returns an array of acceptable currency's addresses for the Product. ",
        "params": {
          "_productId": "The Product ID to get acceptableCurrencies for."
        }
      },
      "getProductIdBySKU(address,string)": {
        "details": "Gets the Product ID to corresponds to the provided SKU.",
        "params": {
          "_sku": "The SKU tp match to a prduct ID."
        }
      },
      "getProducts(uint256[])": {
        "details": "Retuns a list of products",
        "params": {
          "_ids": "The ID of the products to return"
        }
      },
      "getStoreCurrencyByIndex(address,uint256)": {
        "details": "Retuns the address at acceptableCurrencies[_index].",
        "params": {
          "_index": "The index of the address in the array."
        }
      },
      "getStoreProductCount(address)": {
        "details": "Returns an array of all products listed by a specific Store"
      },
      "isCurrencyAcceptable(address,address)": {
        "details": "Returns if a currency is accepted by this store or not. ",
        "params": {
          "_currency": "The currency address to check."
        }
      },
      "owner()": {
        "details": "Returns the address of the current owner."
      },
      "postProduct(string,uint256,uint256,uint8,uint16,uint32,bool,bool)": {
        "details": "Posts a new type of product. ",
        "params": {
          "_affiliatePercentage": "The affiliate percentage.",
          "_funderRate": "APY promised to funders",
          "_refundablePeriod": "The redeemable period, in weeks.",
          "_retailPrice": "The retail price value.",
          "_sku": "The name for the item to trade.",
          "_wholesalePrice": "The wholesale price value.",
          "buyable": "Buyable status flag",
          "redeemable": "Redeemable status flag"
        }
      },
      "removeCurrencyFromProduct(uint256,address)": {
        "details": "Removes a currency from being accepted for a Product. ",
        "params": {
          "_currency": "The currency address to remove.",
          "_productId": "The Product to remove the currency from."
        }
      },
      "renounceOwnership()": {
        "details": "Leaves the contract without owner. It will not be possible to call `onlyOwner` functions anymore. Can only be called by the current owner. NOTE: Renouncing ownership will leave the contract without an owner, thereby removing any functionality that is only available to the owner."
      },
      "transferOwnership(address)": {
        "details": "Transfers ownership of the contract to a new account (`newOwner`). Can only be called by the current owner."
      },
      "updateProduct(uint256,uint256,uint256,uint8,uint16,bool,bool)": {
        "details": "Updates an existing product.",
        "params": {
          "affiliatePercentage": "The updated  affiliate percentage.",
          "buyable": "The updated buyable value.",
          "funderRate": "The aPY promised to the funder",
          "productId": "The Product to update.",
          "redeemable": "The updated redeemable value.",
          "retailPrice": "The updated retail price value.",
          "wholesalePrice": "The updated wholesale price value."
        }
      }
    },
    "version": 1
  },
  "userdoc": {
    "kind": "user",
    "methods": {},
    "version": 1
  }
}