{
  "contractName": "Splitter",
  "abi": [
    {
      "anonymous": false,
      "inputs": [
        {
          "indexed": true,
          "internalType": "contract IERC20Upgradeable",
          "name": "token",
          "type": "address"
        },
        {
          "indexed": false,
          "internalType": "address",
          "name": "to",
          "type": "address"
        },
        {
          "indexed": false,
          "internalType": "uint256",
          "name": "amount",
          "type": "uint256"
        }
      ],
      "name": "ERC20PaymentReleased",
      "type": "event"
    },
    {
      "anonymous": false,
      "inputs": [
        {
          "indexed": false,
          "internalType": "uint8",
          "name": "version",
          "type": "uint8"
        }
      ],
      "name": "Initialized",
      "type": "event"
    },
    {
      "anonymous": false,
      "inputs": [
        {
          "indexed": false,
          "internalType": "address",
          "name": "account",
          "type": "address"
        },
        {
          "indexed": false,
          "internalType": "uint256",
          "name": "shares",
          "type": "uint256"
        }
      ],
      "name": "PayeeAdded",
      "type": "event"
    },
    {
      "anonymous": false,
      "inputs": [
        {
          "indexed": false,
          "internalType": "address",
          "name": "from",
          "type": "address"
        },
        {
          "indexed": false,
          "internalType": "uint256",
          "name": "amount",
          "type": "uint256"
        }
      ],
      "name": "PaymentReceived",
      "type": "event"
    },
    {
      "anonymous": false,
      "inputs": [
        {
          "indexed": false,
          "internalType": "address",
          "name": "to",
          "type": "address"
        },
        {
          "indexed": false,
          "internalType": "uint256",
          "name": "amount",
          "type": "uint256"
        }
      ],
      "name": "PaymentReleased",
      "type": "event"
    },
    {
      "inputs": [
        {
          "internalType": "uint256",
          "name": "index",
          "type": "uint256"
        }
      ],
      "name": "payee",
      "outputs": [
        {
          "internalType": "address",
          "name": "",
          "type": "address"
        }
      ],
      "stateMutability": "view",
      "type": "function"
    },
    {
      "inputs": [
        {
          "internalType": "address payable",
          "name": "account",
          "type": "address"
        }
      ],
      "name": "release",
      "outputs": [],
      "stateMutability": "nonpayable",
      "type": "function"
    },
    {
      "inputs": [
        {
          "internalType": "contract IERC20Upgradeable",
          "name": "token",
          "type": "address"
        },
        {
          "internalType": "address",
          "name": "account",
          "type": "address"
        }
      ],
      "name": "release",
      "outputs": [],
      "stateMutability": "nonpayable",
      "type": "function"
    },
    {
      "inputs": [
        {
          "internalType": "contract IERC20Upgradeable",
          "name": "token",
          "type": "address"
        },
        {
          "internalType": "address",
          "name": "account",
          "type": "address"
        }
      ],
      "name": "released",
      "outputs": [
        {
          "internalType": "uint256",
          "name": "",
          "type": "uint256"
        }
      ],
      "stateMutability": "view",
      "type": "function"
    },
    {
      "inputs": [
        {
          "internalType": "address",
          "name": "account",
          "type": "address"
        }
      ],
      "name": "released",
      "outputs": [
        {
          "internalType": "uint256",
          "name": "",
          "type": "uint256"
        }
      ],
      "stateMutability": "view",
      "type": "function"
    },
    {
      "inputs": [
        {
          "internalType": "address",
          "name": "account",
          "type": "address"
        }
      ],
      "name": "shares",
      "outputs": [
        {
          "internalType": "uint256",
          "name": "",
          "type": "uint256"
        }
      ],
      "stateMutability": "view",
      "type": "function"
    },
    {
      "inputs": [
        {
          "internalType": "contract IERC20Upgradeable",
          "name": "token",
          "type": "address"
        }
      ],
      "name": "totalReleased",
      "outputs": [
        {
          "internalType": "uint256",
          "name": "",
          "type": "uint256"
        }
      ],
      "stateMutability": "view",
      "type": "function"
    },
    {
      "inputs": [],
      "name": "totalReleased",
      "outputs": [
        {
          "internalType": "uint256",
          "name": "",
          "type": "uint256"
        }
      ],
      "stateMutability": "view",
      "type": "function"
    },
    {
      "inputs": [],
      "name": "totalShares",
      "outputs": [
        {
          "internalType": "uint256",
          "name": "",
          "type": "uint256"
        }
      ],
      "stateMutability": "view",
      "type": "function"
    },
    {
      "stateMutability": "payable",
      "type": "receive"
    },
    {
      "inputs": [
        {
          "internalType": "address[]",
          "name": "_payees",
          "type": "address[]"
        },
        {
          "internalType": "uint256[]",
          "name": "_shares",
          "type": "uint256[]"
        }
      ],
      "name": "__Splitter_init",
      "outputs": [],
      "stateMutability": "nonpayable",
      "type": "function"
    },
    {
      "inputs": [
        {
          "internalType": "address[]",
          "name": "_payees",
          "type": "address[]"
        },
        {
          "internalType": "uint256[]",
          "name": "_shares",
          "type": "uint256[]"
        }
      ],
      "name": "__Splitter_init_unchained",
      "outputs": [],
      "stateMutability": "nonpayable",
      "type": "function"
    }
  ],
  "bytecode": "0x608060405234801561001057600080fd5b506112fb806100206000396000f3fe6080604052600436106100a05760003560e01c80638b83209b116100645780638b83209b146101ba5780639852595c146101f2578063ce7c2ac214610228578063d79779b21461025e578063e33b7de314610294578063fee1ebb8146102a957600080fd5b806319165587146100ee5780633a98ef3914610110578063406072a91461013457806348b750441461017a57806367ab651a1461019a57600080fd5b366100e9577f6ef95f06320e7a25a04a175ca677b7052bdd97131872c2192525a629f51be77033604080516001600160a01b0390921682523460208301520160405180910390a1005b600080fd5b3480156100fa57600080fd5b5061010e610109366004610ede565b6102c9565b005b34801561011c57600080fd5b506033545b6040519081526020015b60405180910390f35b34801561014057600080fd5b5061012161014f366004610fdd565b6001600160a01b03918216600090815260396020908152604080832093909416825291909152205490565b34801561018657600080fd5b5061010e610195366004610fdd565b610401565b3480156101a657600080fd5b5061010e6101b5366004610efa565b6105e9565b3480156101c657600080fd5b506101da6101d5366004611015565b61065e565b6040516001600160a01b03909116815260200161012b565b3480156101fe57600080fd5b5061012161020d366004610ede565b6001600160a01b031660009081526036602052604090205490565b34801561023457600080fd5b50610121610243366004610ede565b6001600160a01b031660009081526035602052604090205490565b34801561026a57600080fd5b50610121610279366004610ede565b6001600160a01b031660009081526038602052604090205490565b3480156102a057600080fd5b50603454610121565b3480156102b557600080fd5b5061010e6102c4366004610efa565b61069c565b6001600160a01b0381166000908152603560205260409020546103075760405162461bcd60e51b81526004016102fe90611094565b60405180910390fd5b600061031260345490565b61031c90476111c8565b905060006103498383610344866001600160a01b031660009081526036602052604090205490565b6106ca565b9050806103685760405162461bcd60e51b81526004016102fe906110da565b6001600160a01b038316600090815260366020526040812080548392906103909084906111c8565b9250508190555080603460008282546103a991906111c8565b909155506103b990508382610712565b604080516001600160a01b0385168152602081018390527fdf20fd1e76bc69d672e4814fafb2c449bba3a5369d8359adf9e05e6fde87b05691015b60405180910390a1505050565b6001600160a01b0381166000908152603560205260409020546104365760405162461bcd60e51b81526004016102fe90611094565b6001600160a01b0382166000908152603860205260408120546040516370a0823160e01b81523060048201526001600160a01b038516906370a082319060240160206040518083038186803b15801561048e57600080fd5b505afa1580156104a2573d6000803e3d6000fd5b505050506040513d601f19601f820116820180604052508101906104c6919061102d565b6104d091906111c8565b90506000610509838361034487876001600160a01b03918216600090815260396020908152604080832093909416825291909152205490565b9050806105285760405162461bcd60e51b81526004016102fe906110da565b6001600160a01b0380851660009081526039602090815260408083209387168352929052908120805483929061055f9084906111c8565b90915550506001600160a01b0384166000908152603860205260408120805483929061058c9084906111c8565b9091555061059d905084848361082b565b604080516001600160a01b038581168252602082018490528616917f3be5b7a71e84ed12875d241991c70855ac5817d847039e17a9d895c1ceb0f18a910160405180910390a250505050565b60006105f5600161087d565b9050801561060d576000805461ff0019166101001790555b6106178383610905565b8015610659576000805461ff0019169055604051600181527f7f26b83ff96e1f2b6a682f133852f6798a09c465da95921460cefb3847402498906020016103f4565b505050565b60006037828154811061068157634e487b7160e01b600052603260045260246000fd5b6000918252602090912001546001600160a01b031692915050565b60006106a8600161087d565b905080156106c0576000805461ff0019166101001790555b61061783836105e9565b6033546001600160a01b038416600090815260356020526040812054909183916106f49086611200565b6106fe91906111e0565b610708919061121f565b90505b9392505050565b804710156107625760405162461bcd60e51b815260206004820152601d60248201527f416464726573733a20696e73756666696369656e742062616c616e636500000060448201526064016102fe565b6000826001600160a01b03168260405160006040518083038185875af1925050503d80600081146107af576040519150601f19603f3d011682016040523d82523d6000602084013e6107b4565b606091505b50509050806106595760405162461bcd60e51b815260206004820152603a60248201527f416464726573733a20756e61626c6520746f2073656e642076616c75652c207260448201527f6563697069656e74206d6179206861766520726576657274656400000000000060648201526084016102fe565b604080516001600160a01b038416602482015260448082018490528251808303909101815260649091019091526020810180516001600160e01b031663a9059cbb60e01b179052610659908490610aa3565b60008054610100900460ff16156108c4578160ff1660011480156108a05750303b155b6108bc5760405162461bcd60e51b81526004016102fe90611125565b506000919050565b60005460ff8084169116106108eb5760405162461bcd60e51b81526004016102fe90611125565b506000805460ff191660ff92909216919091179055600190565b600054610100900460ff166109705760405162461bcd60e51b815260206004820152602b60248201527f496e697469616c697a61626c653a20636f6e7472616374206973206e6f74206960448201526a6e697469616c697a696e6760a81b60648201526084016102fe565b80518251146109dc5760405162461bcd60e51b815260206004820152603260248201527f5061796d656e7453706c69747465723a2070617965657320616e6420736861726044820152710cae640d8cadccee8d040dad2e6dac2e8c6d60731b60648201526084016102fe565b6000825111610a2d5760405162461bcd60e51b815260206004820152601a60248201527f5061796d656e7453706c69747465723a206e6f2070617965657300000000000060448201526064016102fe565b60005b825181101561065957610a91838281518110610a5c57634e487b7160e01b600052603260045260246000fd5b6020026020010151838381518110610a8457634e487b7160e01b600052603260045260246000fd5b6020026020010151610b75565b80610a9b81611266565b915050610a30565b6000610af8826040518060400160405280602081526020017f5361666545524332303a206c6f772d6c6576656c2063616c6c206661696c6564815250856001600160a01b0316610d5b9092919063ffffffff16565b8051909150156106595780806020019051810190610b169190610fbd565b6106595760405162461bcd60e51b815260206004820152602a60248201527f5361666545524332303a204552433230206f7065726174696f6e20646964206e6044820152691bdd081cdd58d8d9595960b21b60648201526084016102fe565b6001600160a01b038216610be05760405162461bcd60e51b815260206004820152602c60248201527f5061796d656e7453706c69747465723a206163636f756e74206973207468652060448201526b7a65726f206164647265737360a01b60648201526084016102fe565b60008111610c305760405162461bcd60e51b815260206004820152601d60248201527f5061796d656e7453706c69747465723a2073686172657320617265203000000060448201526064016102fe565b6001600160a01b03821660009081526035602052604090205415610caa5760405162461bcd60e51b815260206004820152602b60248201527f5061796d656e7453706c69747465723a206163636f756e7420616c726561647960448201526a206861732073686172657360a81b60648201526084016102fe565b60378054600181019091557f42a7b7dd785cd69714a189dffb3fd7d7174edc9ece837694ce50f7078f7c31ae0180546001600160a01b0319166001600160a01b0384169081179091556000908152603560205260409020819055603354610d129082906111c8565b603355604080516001600160a01b0384168152602081018390527f40c340f65e17194d14ddddb073d3c9f888e3cb52b5aae0c6c7706b4fbc905fac910160405180910390a15050565b60606107088484600085856001600160a01b0385163b610dbd5760405162461bcd60e51b815260206004820152601d60248201527f416464726573733a2063616c6c20746f206e6f6e2d636f6e747261637400000060448201526064016102fe565b600080866001600160a01b03168587604051610dd99190611045565b60006040518083038185875af1925050503d8060008114610e16576040519150601f19603f3d011682016040523d82523d6000602084013e610e1b565b606091505b5091509150610e2b828286610e36565b979650505050505050565b60608315610e4557508161070b565b825115610e555782518084602001fd5b8160405162461bcd60e51b81526004016102fe9190611061565b600082601f830112610e7f578081fd5b81356020610e94610e8f836111a4565b611173565b80838252828201915082860187848660051b8901011115610eb3578586fd5b855b85811015610ed157813584529284019290840190600101610eb5565b5090979650505050505050565b600060208284031215610eef578081fd5b813561070b816112ad565b60008060408385031215610f0c578081fd5b823567ffffffffffffffff80821115610f23578283fd5b818501915085601f830112610f36578283fd5b81356020610f46610e8f836111a4565b8083825282820191508286018a848660051b8901011115610f65578788fd5b8796505b84871015610f90578035610f7c816112ad565b835260019690960195918301918301610f69565b5096505086013592505080821115610fa6578283fd5b50610fb385828601610e6f565b9150509250929050565b600060208284031215610fce578081fd5b8151801515811461070b578182fd5b60008060408385031215610fef578182fd5b8235610ffa816112ad565b9150602083013561100a816112ad565b809150509250929050565b600060208284031215611026578081fd5b5035919050565b60006020828403121561103e578081fd5b5051919050565b60008251611057818460208701611236565b9190910192915050565b6020815260008251806020840152611080816040850160208701611236565b601f01601f19169190910160400192915050565b60208082526026908201527f5061796d656e7453706c69747465723a206163636f756e7420686173206e6f2060408201526573686172657360d01b606082015260800190565b6020808252602b908201527f5061796d656e7453706c69747465723a206163636f756e74206973206e6f742060408201526a191d59481c185e5b595b9d60aa1b606082015260800190565b6020808252602e908201527f496e697469616c697a61626c653a20636f6e747261637420697320616c72656160408201526d191e481a5b9a5d1a585b1a5e995960921b606082015260800190565b604051601f8201601f1916810167ffffffffffffffff8111828210171561119c5761119c611297565b604052919050565b600067ffffffffffffffff8211156111be576111be611297565b5060051b60200190565b600082198211156111db576111db611281565b500190565b6000826111fb57634e487b7160e01b81526012600452602481fd5b500490565b600081600019048311821515161561121a5761121a611281565b500290565b60008282101561123157611231611281565b500390565b60005b83811015611251578181015183820152602001611239565b83811115611260576000848401525b50505050565b600060001982141561127a5761127a611281565b5060010190565b634e487b7160e01b600052601160045260246000fd5b634e487b7160e01b600052604160045260246000fd5b6001600160a01b03811681146112c257600080fd5b5056fea26469706673582212201977b36d696501136664cbbba4760b0b7bd290a3109cb9fea28a7c4f2d58a4df64736f6c63430008040033",
  "immutableReferences": {},
  "source": "// contracts/Box.sol\n// SPDX-License-Identifier: MIT\npragma solidity ^0.8.4;\n\nimport \"@openzeppelin/contracts-upgradeable/finance/PaymentSplitterUpgradeable.sol\";\n \ncontract Splitter is PaymentSplitterUpgradeable {\n\n    function __Splitter_init(address[] memory _payees, uint256[] memory _shares) initializer public {\n        __PaymentSplitter_init_unchained(_payees, _shares);\n    }\n\n    function __Splitter_init_unchained(address[] memory _payees, uint256[] memory _shares) initializer public {\n        __Splitter_init(_payees, _shares);\n    }\n    \n}",
  "sourcePath": "/Users/torbjoranderson/Documents/TorbjorDefi/develpoment/crypto-commerce-hud-1.0/src/truffle/contracts/Splitter.sol",
  "compiler": {
    "name": "solc",
    "version": "0.8.4+commit.c7e474f2.Emscripten.clang"
  },
  "schemaVersion": "3.4.7",
  "updatedAt": "2022-09-21T02:52:08.895Z",
  "devdoc": {
    "kind": "dev",
    "methods": {
      "payee(uint256)": {
        "details": "Getter for the address of the payee number `index`."
      },
      "release(address)": {
        "details": "Triggers a transfer to `account` of the amount of Ether they are owed, according to their percentage of the total shares and their previous withdrawals."
      },
      "release(address,address)": {
        "details": "Triggers a transfer to `account` of the amount of `token` tokens they are owed, according to their percentage of the total shares and their previous withdrawals. `token` must be the address of an IERC20 contract."
      },
      "released(address)": {
        "details": "Getter for the amount of Ether already released to a payee."
      },
      "released(address,address)": {
        "details": "Getter for the amount of `token` tokens already released to a payee. `token` should be the address of an IERC20 contract."
      },
      "shares(address)": {
        "details": "Getter for the amount of shares held by an account."
      },
      "totalReleased()": {
        "details": "Getter for the total amount of Ether already released."
      },
      "totalReleased(address)": {
        "details": "Getter for the total amount of `token` already released. `token` should be the address of an IERC20 contract."
      },
      "totalShares()": {
        "details": "Getter for the total shares held by payees."
      }
    },
    "version": 1
  },
  "userdoc": {
    "kind": "user",
    "methods": {},
    "version": 1
  }
}